:100000000C9462000C948A000C948A000C948A0070
:100010000C948A000C948A000C948A000C948A0038
:100020000C948A000C948A000C948A000C948A0028
:100030000C948A000C948A000C948A000C948A0018
:100040000C9410040C948A000C940F030C94E90295
:100050000C948A000C948A000C948A000C948A00F8
:100060000C9486050C948A000000000025002800EE
:100070002B000000000023002600290000000008DB
:10008000000201000003040700000000000000005F
:1000900000000000240027002A00010204081020AC
:1000A000408001020408102001020408102004040A
:1000B0000404040404040202020202020303030310
:1000C0000303960A11241FBECFEFD8E0DEBFCDBFD9
:1000D00011E0A0E0B1E0E6E4F6E102C005900D9287
:1000E000AE3DB107D9F723E0AEEDB1E001C01D92FE
:1000F000AC39B207E1F710E0C2E6D0E004C02197C6
:10010000FE010E94080BC136D107C9F70E945208B0
:100110000C94210B0C940000CF92DF92EF92FF928F
:100120000F931F93CF93DF936C017A018B01C0E093
:10013000D0E0CE15DF0589F0D8016D918D01D60193
:10014000ED91FC910190F081E02DC6010995892B7C
:1001500011F47E0102C02196ECCFC701DF91CF914F
:100160001F910F91FF90EF90DF90CF900895FC01C9
:10017000538D448D252F30E0842F90E0821B930B0C
:10018000541710F0CF96089501970895FC01918DB2
:10019000828D981761F0828DDF01A80FB11D5D96E9
:1001A0008C91928D9F5F9F73928F90E008958FEF57
:1001B0009FEF0895FC01918D828D981731F0828D0B
:1001C000E80FF11D858D90E008958FEF9FEF089562
:1001D000FC01918D228D892F90E0805C9F4F821BC6
:1001E00091098F73992708958CED92E00E94E800A1
:1001F00021E0892B09F420E0822F0895FC01848DF1
:10020000DF01A80FB11DA35ABF4F2C91848D90E040
:1002100001968F739927848FA689B7892C93A0891B
:10022000B1898C9180648C93938D848D981306C0D2
:100230000288F389E02D80818F7D80830895EF927D
:10024000FF920F931F93CF93DF93EC0181E0888F90
:100250009B8D8C8D981305C0E889F989808185FD77
:1002600024C0F62E0B8D10E00F5F1F4F0F73112768
:10027000E02E8C8DE8120CC00FB607FCFACFE8898F
:10028000F989808185FFF5CFCE010E94FE00F1CF74
:100290008B8DFE01E80FF11DE35AFF4FF0820B8FAB
:1002A000EA89FB898081806207C0EE89FF896083CB
:1002B000E889F98980818064808381E090E0DF9122
:1002C000CF911F910F91FF90EF900895CF93DF93FF
:1002D000EC01888D8823C9F0EA89FB89808185FD3E
:1002E00005C0A889B9898C9186FD0FC00FB607FC9F
:1002F000F5CF808185FFF2CFA889B9898C9185FFE0
:10030000EDCFCE010E94FE00E7CFDF91CF9108959F
:1003100080E090E0892B29F00E94F40081110C9478
:1003200000000895833081F028F4813099F0823004
:10033000A1F008958730A9F08830B9F08430D1F465
:10034000809180008F7D03C0809180008F778093A3
:100350008000089584B58F7702C084B58F7D84BDF9
:1003600008958091B0008F7703C08091B0008F7D99
:100370008093B00008953FB7F89480912A0290913D
:100380002B02A0912C02B0912D0226B5A89B05C08E
:100390002F3F19F00196A11DB11D3FBFBA2FA92F04
:1003A000982F8827820F911DA11DB11DBC01CD0181
:1003B00043E0660F771F881F991F4A95D1F708956C
:1003C00085ED8093BC008091BC0084FDFCCF109231
:1003D000B902089540910002262F30E0240F311D0C
:1003E00021323105DCF42091B9022430C9F4FC013A
:1003F00080E090E0861758F4309100022191DC01F2
:10040000A252BE4FA30FB11D2C930196F3CF809142
:100410000002680F6093000280E0089581E0089573
:1004200082E008950895E091BB028091BA02E81736
:1004300030F4F0E0E454FD4F808190E008958FEFB8
:100440009FEF08959091BB028091BA02981750F4E3
:10045000E92FF0E0E454FD4F208130E09F5F90935E
:10046000BB0202C02FEF3FEFC90108958091BA028D
:1004700090E02091BB02821B91090895CF92DF92F8
:10048000EF92FF920F931F93CF93DF937C01262F60
:10049000972F8A0180915202882391F0C62FD72F7F
:1004A0006E01C40ED51ECC15DD0571F06991D70122
:1004B000ED91FC910190F081E02DC7010995F3CFFA
:1004C000642F822F0E94EA01C801DF91CF911F9112
:1004D0000F91FF90EF90DF90CF900895CF93DF932F
:1004E0001F92CDB7DEB76983209152022223D1F04B
:1004F00020914F02203240F021E030E0FC013383B4
:10050000228380E090E015C080915002E82FF0E057
:10051000E15DFD4F998190838F5F809350028093BE
:100520004F0205C061E0CE0101960E94EA0181E020
:1005300090E00F90DF91CF910895682F89E793E0C5
:100540000C946E02089580E090E008958F929F923F
:10055000AF92BF920F931F93CF93DF93CDB7DEB7C8
:10056000A1970FB6F894DEBF0FBECDBF19A24230DF
:1005700008F44AE08E010F5D1F4F842E912CA12CB0
:10058000B12CA50194010E94E60AE62FB901CA0127
:1005900001501109EA3014F4E05D01C0E95CD801B2
:1005A000EC93232B242B252B61F7C8010E94F20624
:1005B000A1960FB6F894DEBF0FBECDBFDF91CF91ED
:1005C0001F910F91BF90AF909F908F9008950E94C0
:1005D0000E0B1F920F920FB60F9211242F933F9381
:1005E0004F935F936F937F938F939F93AF93BF933B
:1005F000EF93FF938CED92E00E94FE00FF91EF914C
:10060000BF91AF919F918F917F916F915F914F912A
:100610003F912F910F900FBE0F901F9018951F9232
:100620000F920FB60F9211242F938F939F93EF93F6
:10063000FF93E091EC02F091ED028081E091F202F3
:10064000F091F30282FD12C090818091F5028F5FDC
:100650008F732091F602821751F0E091F502F0E0DD
:10066000E452FD4F958F8093F50201C08081FF9188
:10067000EF919F918F912F910F900FBE0F901F9030
:100680001895CF93DF93282F30E0F901E458FF4FFE
:100690008491F901E656FF4FD491F901E255FF4FDD
:1006A000C491CC2391F081110E949201EC2FF0E0D3
:1006B000EE0FFF1FEE58FF4FA591B491EC91ED2383
:1006C00081E090E021F480E002C080E090E0DF91E2
:1006D000CF9108951F93CF93DF93282F30E0F90136
:1006E000E458FF4F8491F901E656FF4FD491F90188
:1006F000E255FF4FC491CC23C9F0162F81110E94FF
:100700009201EC2FF0E0EE0FFF1FE859FF4FA5918B
:10071000B4918FB7F894111105C09C91ED2FE0951D
:10072000E92302C0EC91ED2BEC938FBFDF91CF91C9
:100730001F910895CF93DF9390E0FC01E656FF4FA1
:100740002491FC01E255FF4F8491882361F190E0F0
:10075000880F991FFC01E057FF4FC591D491FC0110
:10076000E859FF4FA591B491611109C09FB7F89462
:100770008881209582238883EC912E230BC06230E0
:1007800061F49FB7F8943881822F80958323888302
:10079000EC912E2B2C939FBF06C08FB7F894E88165
:1007A0002E2B28838FBFDF91CF9108958F929F9238
:1007B000AF92BF92CF92DF92EF92FF926B017C01DA
:1007C0000E94BB014B015C01C114D104E104F1049E
:1007D000F1F00E94BB01DC01CB0188199909AA093B
:1007E000BB09883E9340A105B10570F321E0C21A10
:1007F000D108E108F10888EE880E83E0981EA11C5C
:10080000B11CC114D104E104F10419F7DDCFFF904C
:10081000EF90DF90CF90BF90AF909F908F90089512
:100820001F920F920FB60F9211242F933F938F9325
:100830009F93AF93BF938091260290912702A0913E
:100840002802B09129023091250226E0230F2D378E
:1008500020F40296A11DB11D05C029E8230F0396BF
:10086000A11DB11D2093250280932602909327029B
:10087000A0932802B093290280912A0290912B0222
:10088000A0912C02B0912D020196A11DB11D809363
:100890002A0290932B02A0932C02B0932D02BF91B9
:1008A000AF919F918F913F912F910F900FBE0F901D
:1008B0001F90189508958CBD9DBD0895AF92BF926D
:1008C000CF92DF92EF92FF920F931F93CF93DF931C
:1008D00000D000D000D0CDB7DEB77B0190919A0355
:1008E00001E0080F992309F44EC080919B038823EF
:1008F00021F081E791E00E945B0460E08091850334
:100900000E946A0362E070E080E090E00E94D603FB
:1009100081E00E94120780E00E94120780E00E949E
:1009200012078FEF0E941207802F0E941207802F5C
:1009300081950E94120784ED0E941207A12C93ED6D
:10094000B92E10E0015011092A2D30E0201731078F
:100950006CF4C9018D5A9D4F6C01FC0180810E948D
:100960001207F6018081B80EA394EECF8B2D8095EF
:100970000E94120780E00E94120761E080918503C7
:100980000E946A0392C062E070E080E090E00E9402
:10099000D60381E08093520284E280935102109248
:1009A000500210924F0280E00E949D0280E00E945F
:1009B0009D028FEF0E949D02802F0E949D02802F3A
:1009C00081950E949D0284ED0E949D02A12C83EDE1
:1009D000B82E10E0015011092A2D30E02017310700
:1009E0006CF4C9018D5A9D4F6C01FC0180810E94FD
:1009F0009D02F6018081B80EA394EECF8B2D8095D9
:100A00000E949D0280E00E949D0280914F028132EF
:100A100008F045C09091B9029111FCCF92E09093FB
:100A2000B90291E09093B8029FEF9093B7021092B1
:100A3000B6028093B502AFE2B2E023E932E0F901F9
:100A40009E2F921B981718F49D919193F9CF1092B5
:100A5000B4028091B40288648093B4028091B3029E
:100A6000813061F41092B3028091B4028093BB0094
:100A70008091BC0083FDF8CF85EC01C085EE8093AA
:100A8000BC008091B9028230E1F38091B7028F3FC0
:100A900031F08091B702803211F08091B70210924C
:100AA000500210924F0210925202C7010E94020897
:100AB000182F811102C010E017C066E0CE01019628
:100AC0000E944E0746E050E066E071E0CE010196DC
:100AD0000E94130B892B79F780919A03882321F0C8
:100AE000C7010E940208182F812F26960FB6F8948E
:100AF000DEBF0FBECDBFDF91CF911F910F91FF9051
:100B0000EF90DF90CF90BF90AF9008951F920F921B
:100B10000FB60F9211242F933F934F935F936F93D0
:100B20007F938F939F93AF93BF93EF93FF938091A6
:100B3000B900887F803609F49CC068F5883209F4D2
:100B40005BC090F4803109F454C038F4882309F470
:100B5000F6C0883009F44DC0F6C0883109F44CC0A5
:100B6000803209F45DC0EFC0803409F468C048F4F5
:100B7000803309F455C0883309F0E5C08093B7028B
:100B8000D8C0803509F44FC0883509F45DC0883479
:100B900009F0D9C0D6C0883909F4C7C0A8F488378D
:100BA00009F467C038F4883609F463C0803709F463
:100BB00060C0C9C0883809F4B8C0803909F45FC082
:100BC000803809F0C0C05BC0803B09F486C038F4AF
:100BD000803A09F466C0883A09F47FC0B4C0803C0A
:100BE00009F4A7C0883C09F4A4C0883B09F48AC072
:100BF000AAC08091B40210C09091B6028091B50253
:100C0000981770F5E091B60281E08E0F8093B602DE
:100C1000F0E0ED56FD4F80818093BB0085EC86C0EF
:100C20008093B7028EC0E091B60281E08E0F809370
:100C3000B6028091BB00F0E0ED56FD4F80839091AD
:100C4000B6028091B5026EC0E091B60281E08E0FCF
:100C50008093B6028091BB00F0E0ED56FD4F80839B
:100C60008091B80281116DC081E08093B30284EA63
:100C700061C083E08093B90210922402CFCF8091AB
:100C80002402803208F051C0E091240281E08E0FEE
:100C9000809324028091BB00F0E0EC5FFD4F8083E5
:100CA000BDCF85EC8093BC001092B90280912402E4
:100CB000803230F4E0912402F0E0EC5FFD4F1082CE
:100CC0006091240270E0E0910202F091030284E05E
:100CD00092E009951092240236C084E08093B90214
:100CE0001092010210920002E091FE01F091FF01CA
:100CF000099580910002811105C081E08093000276
:100D00001092DE01E091010281E08E0F80930102DA
:100D1000F0E0E252FE4F80818093BB00909101028F
:100D200080910002981708F479CF85E88093BC0081
:100D30000AC085EC8093BC001092B90204C01092E6
:100D4000B7020E94E001FF91EF91BF91AF919F9197
:100D50008F917F916F915F914F913F912F910F9064
:100D60000FBE0F901F901895EF92FF920F931F9355
:100D7000CF9380919B03882339F01EBC00000DB4F3
:100D800007FEFDCFCEB527C061E0809186030E94AB
:100D90006A0300E010E0C0E0EE24E394F12C8091BF
:100DA00088030E944103892B39F0C701002E01C03E
:100DB000880F0A94EAF7C82B60E0809186030E94AE
:100DC0006A0361E0809186030E946A030F5F1F4FF0
:100DD0000830110521F78C2FCF911F910F91FF90B3
:100DE000EF900895009769F0FC0101900020E9F769
:100DF0003197AF01481B590BBC018CED92E00C946C
:100E00008C0080E090E00895CF93DF930E94F2067B
:100E1000EC018EE591E00E94F2068C0F9D1FDF91A0
:100E2000CF9108950F931F93CF93DF9390919B03DE
:100E3000992339F08EBD00000DB407FEFDCF8EB5AD
:100E400028C0C82F61E0809186030E946A0300E0F9
:100E500010E0D0E060E0809186030E946A03CE013A
:100E6000002E02C0959587950A94E2F780FF02C094
:100E700061E001C060E0809187030E946A0361E045
:100E8000809186030E946A030F5F1F4F083011058F
:100E900009F7DF91CF911F910F910895EF92FF9283
:100EA0000F931F93CF93DF93182FF92E062F809166
:100EB0009A038823C9F180919B03882321F081E75D
:100EC00091E00E945B0460E0809185030E946A03C8
:100ED00062E070E080E090E00E94D60383E00E9430
:100EE0001207E12EC12FDF2D8C2F8E19801750F4A1
:100EF00061E070E080E090E00E94D6030E94B406BA
:100F00008993F2CF61E0809185030E946A0380910A
:100F10009B03882309F46FC0DF91CF911F910F913C
:100F2000FF90EF900C945A0462E070E080E090E053
:100F30000E94D6038091B9028111FCCF22E0200FDC
:100F4000213208F020E281E08093B9028093B80258
:100F50009FEF9093B7021092B602920F9093B50252
:100F60008093B4028091B40288648093B40280912B
:100F7000B302813061F41092B3028091B402809385
:100F8000BB008091BC0083FDF8CF85EC01C085EEED
:100F90008093BC008091B9028130E1F38091B60268
:100FA000821710F42091B602A3E9B2E04CEB52E0B4
:100FB000FA018E2F841B821718F48D918193F9CF3B
:100FC0001092BB022093BA0289E793E00E942202AA
:100FD000E12EC12FDF2D8C2F8E19801760F461E078
:100FE00070E080E090E00E94D60389E793E00E94E1
:100FF00022028993F0CFDF91CF911F910F91FF9043
:10100000EF900895FF920F931F93CF93DF938C017E
:10101000C0E0D0E080919A03882339F180919B034E
:10102000882321F081E791E00E945B0460E08091D9
:1010300085030E946A0362E070E080E090E00E9415
:10104000D60382E00E9412070E94B406F82E61E0E7
:10105000809185030E946A0380919B0381110E9405
:101060005A0491E0F91208C016C0809189030E94C9
:10107000410391E0882379F090E00115110521F0FA
:101080002A960C171D0738F06AE070E080E090E0C7
:101090000E94D603BFCF892FDF91CF911F910F916F
:1010A000FF900895CF93DF93CDB7DEB727970FB6A4
:1010B000F894DEBF0FBECDBF789484B5826084BD46
:1010C00084B5816084BD85B5826085BD85B581604C
:1010D00085BD80916E00816080936E0010928100CA
:1010E0008091810082608093810080918100816085
:1010F0008093810080918000816080938000809146
:10110000B10084608093B1008091B00081608093D1
:10111000B00080917A00846080937A0080917A0098
:10112000826080937A0080917A008E7F80937A002B
:1011300080917A00806880937A001092C100E091DB
:10114000EC02F091ED0282E08083E091E802F09100
:10115000E9021082E091EA02F091EB0288E08083DC
:101160001092F402E091F002F091F10286E08083A7
:10117000E091EE02F091EF02808180618083E09146
:10118000EE02F091EF02808188608083E091EE02B0
:10119000F091EF02808180688083E091EE02F0910F
:1011A000EF0280818F7D808380E391E00E940407BD
:1011B00080919A03882309F460C080919B0388235F
:1011C00009F444C01FB7F89480912E02811127C002
:1011D000E8EBF0E08491E4EAF0E09491E82FF0E0AD
:1011E000EE0FFF1FE057FF4FA591B491EC91E9235B
:1011F00021F461E08AE00E946A0361E08AE00E94D3
:101200009A038CB580618CBD8CB580648CBD61E027
:101210008DE00E949A0361E08BE00E949A03809126
:101220002E028F5F80932E021FBF8CB5837F8CBDF3
:101230008CB580628CBD8CB58C7F81608CBD8DB58A
:101240008E7F8DBD81E791E00E945B0460E080911C
:1012500085030E946A0368EE73E080E090E00E94DC
:10126000D60382E08093530268EE73E081E00E942F
:101270005E0461E0809185033AC01092BB02109237
:10128000BA021092500210924F021092B90281E0FD
:101290008093B8021092B30261E082E10E946A0377
:1012A00061E083E10E946A038091B9008E7F8093A0
:1012B000B9008091B9008D7F8093B90080E280935E
:1012C000B80085E48093BC0061E080918A030E94AD
:1012D0006A0360E080918A030E946A0360E971E01A
:1012E00080E090E00E94D60361E080918A030E9432
:1012F0006A0382E08093530268EE73E081E00E940B
:101300005E048823A9F16CE083E592E00E944E0719
:1013100046E050E060E071E083E592E00E94130B4C
:10132000892B31F580919A03811103C0E7E0F0E049
:1013300002C0E6E0F0E0ED5AFD4FC080D12CE12C78
:10134000F12CFE2CED2CDC2CCC248181C82AFE2C27
:10135000ED2CDC2CCC248281C82AFE2CED2CDC2C3C
:10136000CC248381C82AC114D104E104F10429F4F6
:1013700087E391E00E94F206FFCF8FE491E00E94A4
:10138000F2066F2D77278827992740E10E94A60251
:101390008EE591E00E94F20681E691E00E94F2065D
:1013A0006E2D70E080E090E04AE00E94A602E0919D
:1013B000DC02F091DD020190F081E02D6EE28CED17
:1013C00092E009956D2D70E080E090E04AE00E9487
:1013D000A6028EE591E00E94F20682E3809353021A
:1013E00085E0809354028FEF8093550211E01093B3
:1013F00056028093570268EE73E085E00E945E0417
:1014000084E1809353021093540280935502109309
:10141000560268EE73E084E00E945E04882329F09F
:1014200068E083E592E00E944E0780E791E00E9429
:10143000040787E0E82E8E010F5F1F4F9AE4B92E54
:10144000AA24A394902EF8018E2D11928A95E9F783
:10145000B0925302A09254021092550260E070E0E4
:1014600083E00E945E04882309F45BC080919A03A4
:10147000882389F064E183E592E00E944E07809121
:101480005A02813009F04DC0F0905F02A0E6B2E050
:101490006801F80107C080E090E00E940208811115
:1014A000E9CF3FC08E2F801B8F1518F48D9181934B
:1014B000F9CF82E991E00E94040780EA91E00E945E
:1014C000F2068F2D90E0A0E0B0E04AE0BC01CD0133
:1014D0000E94A6028DEA91E00E94040784EB91E04D
:1014E0000E94F2068C2D89198F1570F48EE891E018
:1014F0000E94F206F60161916F0170E080E090E0D9
:1015000040E10E94A602EECF80E691E00E9404072F
:1015100068EE73E080E090E00E94D6030E948801AC
:1015200092CF80EC91E00E940407F8CFCF93DF9335
:10153000ECEDF2E01382128288EE93E0A0E0B0E0DE
:1015400084839583A683B78320E131E031832083B0
:1015500025EC30E03587248724EC30E03787268778
:1015600020EC30E0318B208B21EC30E0338B228B70
:1015700022EC30E0358B248B26EC30E0378B268B49
:10158000118E128E138E148EE9E7F3E0138212820D
:1015900084839583A683B78382E291E091838083DD
:1015A000C5E8D3E0188219821A821B8282E08C83FC
:1015B00083E08D831D8A1E8A60E082E00E949A0388
:1015C00061E08D81DF91CF910C949A03A1E21A2EF4
:1015D000AA1BBB1BFD010DC0AA1FBB1FEE1FFF1FD7
:1015E000A217B307E407F50720F0A21BB30BE40B27
:1015F000F50B661F771F881F991F1A9469F760956E
:101600007095809590959B01AC01BD01CF01089527
:10161000EE0FFF1F0590F491E02D099481E090E01A
:10162000F8940C94210BFB01DC014150504030F048
:101630008D910190801919F40020B9F7881B990B3E
:061640000895F894FFCFAD
:1016460000FF06FAD5030000FF00FF0000000000BF
:101656001F018C00B7006601E800C600DA00000032
:1016660000006E023E02A30212023602220213029A
:1016760048656C6C6F21004469646E277420666946
:101686006E6420504E35337820626F617264004676
:101696006F756E64206368697020504E35000D0AC0
:1016A600004669726D77617265207665722E20003C
:1016B60057616974696E6720666F7220616E204992
:1016C600534F313434343341206361726400203027
:1016D6007800466F756E6420612063617264210034
:1016E600554944204C656E6774683A20002062793B
:1016F600746573005549442056616C75653A20003F
:1017060054696D6564206F75742077616974696EBC
:0E1716006720666F72206120636172640000BC
:00000001FF
