:100000000C9400020C941D020C941D020C949D0390
:100010000C941D020C941D020C949C030C941D0264
:100020000C941D020C941D020C941D020C941D02D4
:100030000C941D020C941D020C941D020C941D02C4
:100040000C9452030C941D020C941D020C941D027E
:100050000C941D020C941D020C941D020C941D02A4
:100060000C941D020C941D020000000023002600C9
:10007000290000000008000201000003040700003E
:1000800000000000000000000000250028002B00F8
:1000900000000000240027002A00040404040404D3
:1000A0000404020202020202030303030303010227
:1000B00004081020408001020408102001020408F6
:1000C0001020AED580A81FD300408D142001A1C8F8
:1000D000DA02818FD9F1DB40A4A62EAFFC7FFF1F8F
:1000E000FA3FFE2FF61FFC370E0000380E000038D6
:1000F0000E0000380E0000380E0000380E000038E8
:100100000E000038F61FFC37FA3FFE2FFC7FFF1F62
:1001100000000000000000000000000000000000DF
:1001200000000000000000000000000000000000CF
:100130000000000000000000F01FFC07F83FFE0F69
:10014000FC7FFF1F0000FF1F0280FE2F06C0FD374F
:100150000EC001380EC001380EC001380EC0013883
:100160000EC001380EC001380EC00138F6DF013074
:10017000FABF0020FC7F0000000000000280002089
:1001800006C001300EC001380EC001380EC0013863
:100190000EC001380EC001380EC001380EC0013843
:1001A000F6DFFD37FABFFE2FFC7FFF1FFC7F00004C
:1001B000F8BF0000F0DF010000C0010000C0010036
:1001C00000C0010000C0010000C0010000C001002B
:1001D00000C00100F0DFFD07F8BFFE0FFC7FFF1F2E
:1001E000FC7F0000FABF0020F6DF01300EC00138AE
:1001F0000EC001380EC001380EC001380EC00138E3
:100200000EC001380EC0013806C0FD370280FE2F37
:100210000000FF1FFC7FFF1FFABFFE2FF6DFFD3738
:100220000EC001380EC001380EC001380EC00138B2
:100230000EC001380EC001380EC0013806C0FD37AF
:100240000280FE2F0000FF1F0000000002000000DF
:10025000060000000E0000000E0000000E0000006E
:100260000E0000000E0000000E0000000E00000056
:10027000F61FFC07FA3FFE0FFC7FFF1FFC7FFF1FEE
:10028000FABFFE2FF6DFFD370EC001380EC0013871
:100290000EC001380EC001380EC001380EC0013842
:1002A0000EC00138F6DFFD37FABFFE2FFC7FFF1FBF
:1002B000FC7F0000FABF0020F6DF01300EC00138DD
:1002C0000EC001380EC001380EC001380EC0013812
:1002D0000EC001380EC00138F6DFFD37FABFFE2F21
:1002E000FC7FFF1FFC7FFF1FFABFFE0FF6DFFD073D
:1002F0000EC001000EC01D000EC03D000EC07900F2
:100300000EC0F1000EC0E1010EC0C103F6DF81078F
:10031000FABF000FFC7F001EFC7FFF1FF8BFFE0F1F
:10032000F0DFFD0700C0010000C0010000C00100B7
:1003300000C0010000C0010000C0010000C00100B9
:10034000F0DFFD07F8BFFE0FFC7FFF1FFC7FFF1FE4
:10035000FA3FFE2FF61FFC370E0000380E00003863
:100360000E0000380E0000380E0000380E00003875
:100370000E000038060000300200002000000000DF
:10038000700000005000800F7000E0070000F801CE
:1003900000007E0000801F0000E0070000F8010060
:1003A000007E0000801F0000E007000EF001000A40
:1003B0000000000E000000000080000000C00100EE
:1003C00000C0010000C0010000C0010000C0010029
:1003D00000C0010000C0010000C0010000C0010019
:1003E00000800000000000000E0000000A00000075
:1003F0000E00000000000038000000380000003847
:1004000011241FBECFEFD8E0DEBFCDBF11E0A0E0CA
:10041000B1E0E2E5F3E102C005900D92AA30B10728
:10042000D9F721E0AAE0B1E001C01D92A331B207E3
:10043000E1F70E9490040C94A7090C9400003FB7C8
:10044000F89480910F0190911001A0911101B09149
:10045000120126B5A89B05C02F3F19F00196A11DDA
:10046000B11D3FBFBA2FA92F982F8827820F911D4A
:10047000A11DB11DBC01CD0143E0660F771F881F90
:10048000991F4A95D1F708950F931F93CF93DF9348
:100490008FEF40E06AE770E0A6EBB0E0C2EAD0E0A0
:1004A000FB019491FD015491FE012491222309F452
:1004B0004CC0992339F1933091F038F49130A9F080
:1004C000923001F594B59F7D12C0973091F098302D
:1004D000A1F09430B9F4909180009F7D03C0909179
:1004E00080009F77909380000DC094B59F7794BD56
:1004F00009C09091B0009F7703C09091B0009F7D9C
:100500009093B00030E0220F331F28593F4FF9017C
:1005100005911491F80190815923B9F0815009F0A7
:10052000BFCF91E0403C08F090E0209100012917F6
:1005300071F09093000191110AC09091090181E03E
:1005400089278093090181E002C04F5FE7CFDF91E7
:10055000CF911F910F910895FB01DA0190ED980F53
:100560009A3060F490E0C09724E3289FA001299F6F
:10057000500D1124518340832C930895823519F432
:1005800088E092E013C0883419F48CE392E00EC046
:10059000833419F480E792E009C0853219F484EAC3
:1005A00092E004C08D3231F488ED92E09183808333
:1005B00084E30CC0873219F48CE093E004C08E32DF
:1005C00039F488E193E0918380838CE08C930895E3
:1005D00084E38C938FEF9FEF9183808308956F92D4
:1005E0007F928F929F92AF92BF92CF92DF92EF92C3
:1005F000FF920F931F93CF93DF936B017C01142F16
:10060000052F97FF0BC0F094E094D094C094C11CC8
:10061000D11CE11CF11C7724739401C0712CC12FF3
:10062000D02F8AE0882E912CA12CB12C96EF692E28
:10063000C701B601A50194010E946609FE01319629
:1006400080E38C0DC82E629EC00C1124C8828E2FB0
:10065000811B69017A01C114D104E104F10411F094
:10066000EF01E6CF772021F031969DE299838F5FED
:10067000A12FB02F3197AE17BF0728F490812C918E
:1006800020839D93F7CFDF91CF911F910F91FF9022
:10069000EF90DF90CF90BF90AF909F908F907F9022
:1006A0006F9008951F920F920FB60F9211242F93FF
:1006B0003F938F939F93AF93BF9380910B01909142
:1006C0000C01A0910D01B0910E0130910A0126E0BC
:1006D000230F2D3720F40296A11DB11D05C029E876
:1006E000230F0396A11DB11D20930A0180930B01D6
:1006F00090930C01A0930D01B0930E0180910F0116
:1007000090911001A0911101B09112010196A11DCB
:10071000B11D80930F0190931001A0931101B0932C
:100720001201BF91AF919F918F913F912F910F90A7
:100730000FBE0F901F9018951895189571E03D9A6F
:100740003C980000000000003D98A89400000000C4
:100750000000359BCFD0A2F0889434990894771F7D
:1007600070F73D9A803011F03C9801C03C9A00002F
:10077000000000003D98A89400000000359BBAD00E
:10078000000000003D9A872F9927089580E2089580
:100790000894881F01C0880FA9F03D9A000000004E
:1007A000000018F400003C9802C03C9A00C03D983C
:1007B000A894000000000000359B9CD012F488270C
:1007C0000FC0E9CF3D9A000000003C989927882788
:1007D0003D98A8940000359B8DD08AF3349B81E02E
:1007E000000000003D9A089581E008953D9A3C9AEA
:1007F00095D03D9893D0359B7DD03C988FD008956F
:100800008F938F918F93359B75D03C9A87D0C0DFA3
:10081000882311F4EBDFF5CF0F90089508953D9AEA
:100820007DD03C987BD03D9879D0359B63D03C9A65
:1008300075D0AEDF089581E00895359B5BD03C9A7A
:100840006DD0A6DF089581E00895FF920F931F9366
:10085000CF93DF9321153105F9F0E901F42E162F1E
:10086000880F0E941D04811104C00E94F60380E0DD
:1008700014C0812F0E94C8038823B9F300E010E060
:100880008F2D0E94C803882381F30F5F1F4F0C1721
:100890001D07B1F70E94F60381E0DF91CF911F9110
:1008A0000F91FF90089521E030E0482F60E08CE345
:1008B0000C94250481E20E94530480E00E945304BA
:1008C0008FE70E94530482E20E94530480E00E945A
:1008D000530483E00C9453043C983D984498459805
:1008E00088279927349B0895359B089581E00895C2
:1008F00081E00895B0E0A8EC002409D032F40A9415
:10090000E1F71197C9F7289408C0A89406C0A894E5
:10091000359901C028940000089508950895089518
:10092000CF93DF93CDB7DEB72D970FB6F894DEBF28
:100930000FBECDBF789484B5826084BD84B58160DC
:1009400084BD85B5826085BD85B5816085BD80919A
:100950006E00816080936E00109281008091810012
:10096000826080938100809181008160809381000A
:10097000809180008160809380008091B1008460CC
:100980008093B1008091B00081608093B00080912D
:100990007A00846080937A0080917A0082608093EC
:1009A0007A0080917A008E7F80937A0080917A001D
:1009B000806880937A001092C10010927A00E6EB72
:1009C000F0E02491E2EAF0E084918823C9F090E01D
:1009D000880F991FFC01E057FF4F45915491FC018E
:1009E000EA57FF4FA591B4919FB7F894FA0130816F
:1009F000822F809583238083EC91E22BEC939FBF21
:100A000081E08093680080936B0002EC10E05AE173
:100A1000F52EF00EF80184910E9453040F5F1F4FD2
:100A2000F012F8CF0E945A0420E032E040E060E487
:100A30008CE30E94250435E2332EE12C42E0F42EB3
:100A400000E010E021E030E040E064E284E40E9455
:100A50002504882309F48FC00E941F024B015C010A
:100A600020E1422E512C612C712C0E941F02DC01CE
:100A7000CB0188199909AA09BB09883E9340A105B1
:100A8000B10558F0F1E04F1A51086108710828EEDD
:100A9000820E23E0921EA11CB11C4114510461047A
:100AA000710419F788E80E941D04811103C00E9497
:100AB000F60361C080E00E94C8038823C1F389E87F
:100AC0000E940F04882399F3CE0101966C0190E0F7
:100AD00081E0953009F080E09D870E949E03F60139
:100AE00081936F019D859F5F963091F70E94F60379
:100AF000698170E0762F6627CC80D12CDC2CCC2449
:100B00008D81C82A8A81682B80E090E00E9442088B
:100B100020E030E04FE253E40E94D50820E03FEFB0
:100B20004FE757E40E949A0720E030E044E352E4A4
:100B30000E942D07609305017093060180930701C1
:100B400090930801B60180E090E00E94420820E006
:100B500030E048EC52E40E94D50820E03FEF4FE738
:100B600057E40E949A0760930101709302018093F9
:100B700003019093040180910901882309F47CC04A
:100B800020E030E040E251E46091050170910601FF
:100B900080910701909108010E94D5082B013C012A
:100BA00020E030E0A9010E94D00820E030E040E0E1
:100BB0005FE318162CF4C301B2010E942E0704C093
:100BC000C301B2010E942D070E940C082B013C01B9
:100BD000AE014F5F5F4F0E94EF02282F30E081305F
:100BE00021F08230D9F477FE19C0F901319741E044
:100BF00050E04C0F5D1FE40FF51F9081A2E0B0E0C4
:100C0000AC0FBD1FA20FB31F9C9390E39083FA011A
:100C1000E20FF31F9EE290838E5F10C08F5FF90199
:100C2000319741E050E04C0F5D1FE40FF51F9081BC
:100C3000DA01A20FB31F9C939EE29083E1E0F0E003
:100C4000EC0FFD1FE80FF11D97E2908391E0980FE4
:100C5000E1E0F0E0EC0FFD1FE90FF11D90E2908361
:100C600092E0980FE1E0F0E0EC0FFD1FE90FF11DBD
:100C700093E490838D5F4BC040900101509002013E
:100C8000609003017090040120E030E0A901C301ED
:100C9000B2010E94D00820E030E040E05FE3181687
:100CA0002CF4C301B2010E942E0704C0C301B2019B
:100CB0000E942D070E940C08AE014F5F5F4F0E94FB
:100CC000EF02E1E0F0E0EC0FFD1FE80FF11D3082D4
:100CD00091E0980FE1E0F0E0EC0FFD1FE90FF11D4E
:100CE00090E2908392E0980FE1E0F0E0EC0FFD1FBE
:100CF000E90FF11D92E5908393E0980FE1E0F0E0B9
:100D0000EC0FFD1FE90FF11D98E490838C5FE1E08B
:100D1000F0E0EC0FFD1FE80FF11D10820E945A0455
:100D2000C12CD12CA12CE1E0F0E0EC0FFD1FEA0D6D
:100D3000F11D8081882379F0AE01445F5F4FBE01D1
:100D4000665F7F4F0E94AC028C8590E00C96C80EC7
:100D5000D91EA394E8CF97012C193D0940E060E427
:100D60008CE30E942504A12CE1E0F0E0EC0FFD1FD4
:100D7000EA0DF11D8081882309F443C0A394AE01DC
:100D8000445F5F4FBE01665F7F4F0E94AC028A8462
:100D90009B842C855FEF8516950629F1C22ED12CF8
:100DA000C114D10431F188E70E941D04811103C0F0
:100DB0000E94F6031EC080E40E94C8038823C1F38A
:100DC000612C712CF301E80DF91DE452FF4F849161
:100DD0000E94C803882361F38FEF681A780A6C14A5
:100DE0007D0480F3E5CF30E040E060E48CE30E94D6
:100DF00025042CE030E040E060E48CE30E94250410
:100E0000B3CF0E944402811121C083B7817F8460E7
:100E100083BFF894A89588E18093600086E480936E
:100E2000600083B7816083BF7894889583B78E7F95
:100E300083BF0FB6F894A895809160008861809375
:100E40006000109260000FBE0E944402011511055F
:100E500009F4F8CD0E940000EECD5058BB27AA2718
:100E60000E9445070C9496080E94880838F00E945A
:100E70008F0820F039F49F3F19F426F40C9485086C
:100E80000EF4E095E7FB0C947F08E92F0E94A70879
:100E900058F3BA17620773078407950720F079F4AF
:100EA000A6F50C94C9080EF4E0950B2EBA2FA02DD0
:100EB0000B01B90190010C01CA01A0011124FF2707
:100EC000591B99F0593F50F4503E68F11A16F04002
:100ED000A22F232F342F4427585FF3CF4695379501
:100EE0002795A795F0405395C9F77EF41F16BA0BC6
:100EF000620B730B840BBAF09150A1F0FF0FBB1F74
:100F0000661F771F881FC2F70EC0BA0F621F731FBC
:100F1000841F48F4879577956795B795F7959E3F19
:100F200008F0B0CF9395880F08F09927EE0F9795AA
:100F3000879508950E94AE070C9496080E948F082A
:100F400058F00E94880840F029F45F3F29F00C9483
:100F50007F0851110C94CA080C9485080E94A708B8
:100F600068F39923B1F3552391F3951B550BBB27D8
:100F7000AA2762177307840738F09F5F5F4F220F1D
:100F8000331F441FAA1FA9F335D00E2E3AF0E0E814
:100F900032D091505040E695001CCAF72BD0FE2F5E
:100FA00029D0660F771F881FBB1F261737074807F2
:100FB000AB07B0E809F0BB0B802DBF01FF279358AA
:100FC0005F4F3AF09E3F510578F00C947F080C94E7
:100FD000CA085F3FE4F3983ED4F38695779567950A
:100FE000B795F7959F5FC9F7880F911D96958795DF
:100FF00097F90895E1E0660F771F881FBB1F6217FE
:1010000073078407BA0720F0621B730B840BBA0BBB
:10101000EE1F88F7E09508950E9413086894B111B7
:101020000C94CA0808950E94AF0888F09F5798F062
:10103000B92F9927B751B0F0E1F0660F771F881FDD
:10104000991F1AF0BA95C9F714C0B13091F00E94F7
:10105000C908B1E008950C94C908672F782F882734
:10106000B85F39F0B93FCCF3869577956795B3951E
:10107000D9F73EF490958095709561957F4F8F4F8D
:101080009F4F0895E89409C097FB3EF49095809592
:10109000709561957F4F8F4F9F4F9923A9F0F92F3E
:1010A00096E9BB279395F695879577956795B795BC
:1010B000F111F8CFFAF4BB0F11F460FF1BC06F5FA2
:1010C0007F4F8F4F9F4F16C0882311F096E911C0B4
:1010D000772321F09EE8872F762F05C0662371F0D5
:1010E00096E8862F70E060E02AF09A95660F771FE9
:1010F000881FDAF7880F9695879597F9089597F9DD
:101100009F6780E870E060E008959FEF80EC0895AD
:1011100000240A94161617061806090608950024D6
:101120000A9412161306140605060895092E039450
:10113000000C11F4882352F0BB0F40F4BF2B11F4C4
:1011400060FF04C06F5F7F4F8F4F9F4F089557FD23
:101150009058440F551F59F05F3F71F04795880F25
:1011600097FB991F61F09F3F79F0879508951216BC
:1011700013061406551FF2CF4695F1DF08C0161668
:1011800017061806991FF1CF869571056105089419
:101190000895E894BB2766277727CB0197F9089530
:1011A0000E94420908F48FEF08950E94E8080C9409
:1011B00096080E94880838F00E948F0820F0952336
:1011C00011F00C947F080C94850811240C94CA0823
:1011D0000E94A70870F3959FC1F3950F50E0551F2B
:1011E000629FF001729FBB27F00DB11D639FAA277C
:1011F000F00DB11DAA1F649F6627B00DA11D661FCB
:10120000829F2227B00DA11D621F739FB00DA11DEB
:10121000621F839FA00D611D221F749F3327A00DA5
:10122000611D231F849F600D211D822F762F6A2F41
:1012300011249F5750409AF0F1F088234AF0EE0FA6
:10124000FF1FBB1F661F771F881F91505040A9F7D3
:101250009E3F510580F00C947F080C94CA085F3FB4
:10126000E4F3983ED4F3869577956795B795F7950F
:10127000E7959F5FC1F7FE2B880F911D9695879587
:1012800097F90895990F0008550FAA0BE0E8FEEFB3
:1012900016161706E807F907C0F012161306E4073A
:1012A000F50798F0621B730B840B950B39F40A2633
:1012B00061F0232B242B252B21F408950A2609F411
:1012C000A140A6958FEF811D811D0895052E97FBE6
:1012D0001EF400940E947D0957FD07D00E948509E5
:1012E00007FC03D04EF40C947D0950954095309541
:1012F00021953F4F4F4F5F4F089590958095709582
:1013000061957F4F8F4F9F4F0895A1E21A2EAA1B20
:10131000BB1BFD010DC0AA1FBB1FEE1FFF1FA217A5
:10132000B307E407F50720F0A21BB30BE40BF50BA2
:10133000661F771F881F991F1A9469F7609570952B
:10134000809590959B01AC01BD01CF010895F89463
:02135000FFCFCD
:0A135200010000C642CDCCC74201E5
:00000001FF
