:100000000C945D000C9485000C9485000C94850084
:100010000C9485000C9485000C9485000C9485004C
:100020000C9485000C9485000C9485000C9485003C
:100030000C9485000C9485000C9485000C9485002C
:100040000C948A030C9485000C9458030C9432038E
:100050000C9485000C9485000C9485000C9485000C
:100060000C9485000C9485000000000024002700FB
:100070002A0000000000250028002B0004040404CE
:100080000404040402020202020203030303030342
:10009000010204081020408001020408102001021F
:1000A00004081020000000080002010000030407FB
:1000B00000000000000000008E0411241FBECFEFDE
:1000C000D8E0DEBFCDBF11E0A0E0B1E0E0E7F1E1B4
:1000D00002C005900D92A237B107D9F722E0A2E73E
:1000E000B1E001C01D92A931B207E1F710E0CDE502
:1000F000D0E004C02197FE010E94AB08CC35D107A7
:10010000C9F70E94BB040C94B6080C940000E0915F
:100110007C01F0917D010190F081E02D682F8CE74A
:1001200091E00994CF92DF92EF92FF920F931F9389
:10013000CF93DF936C017A018B01C0E0D0E0CE1544
:10014000DF0589F0D8016D918D01D601ED91FC910B
:100150000190F081E02DC6010995892B11F47E01F3
:1001600002C02196ECCFC701DF91CF911F910F9173
:10017000FF90EF90DF90CF900895089580E090E099
:100180000895FC01538D448D252F30E0842F90E09D
:10019000821B930B541710F0CF9608950197089582
:1001A000FC01918D828D981761F0828DDF01A80F7F
:1001B000B11D5D968C91928D9F5F9F73928F90E0A1
:1001C00008958FEF9FEF0895FC01918D828D981710
:1001D00031F0828DE80FF11D858D90E008958FEF4D
:1001E0009FEF0895FC01918D228D892F90E0805C16
:1001F0009F4F821B91098F73992708958CE791E097
:100200000E94F20021E0892B09F420E0822F08955A
:10021000FC01848DDF01A80FB11DA35ABF4F2C91A3
:10022000848D90E001968F739927848FA689B78972
:100230002C93A089B1898C9180648C93938D848D4B
:10024000981306C00288F389E02D80818F7D80831A
:100250000895EF92FF920F931F93CF93DF93EC01DA
:1002600081E0888F9B8D8C8D981305C0E889F98972
:10027000808185FD24C0F62E0B8D10E00F5F1F4F8F
:100280000F731127E02E8C8DE8120CC00FB607FCFF
:10029000FACFE889F989808185FFF5CFCE010E94E8
:1002A0000801F1CF8B8DFE01E80FF11DE35AFF4FDE
:1002B000F0820B8FEA89FB898081806207C0EE891A
:1002C000FF896083E889F98980818064808381E087
:1002D00090E0DF91CF911F910F91FF90EF900895E3
:1002E000CF93DF93EC01888D8823C9F0EA89FB89DD
:1002F000808185FD05C0A889B9898C9186FD0FC0D4
:100300000FB607FCF5CF808185FFF2CFA889B989A8
:100310008C9185FFEDCFCE010E940801E7CFDF91E0
:10032000CF91089580E090E0892B29F00E94FE0093
:1003300081110C94000008953FB7F89480917701E3
:1003400090917801A0917901B0917A0126B5A89B8E
:1003500005C02F3F19F00196A11DB11D3FBFBA2F57
:10036000A92F982F8827820F911DA11DB11DBC01B7
:10037000CD0143E0660F771F881F991F4A95D1F77B
:1003800008958F929F92AF92BF92CF92DF92EF9299
:10039000FF926B017C010E949C014B015C01C11426
:1003A000D104E104F104F1F00E949C01DC01CB01D5
:1003B00088199909AA09BB09883E9340A105B1058E
:1003C00070F321E0C21AD108E108F10888EE880E26
:1003D00083E0981EA11CB11CC114D104E104F104F6
:1003E00019F7DDCFFF90EF90DF90CF90BF90AF90E7
:1003F0009F908F900895009769F0FC010190002074
:10040000E9F73197AF01481B590BBC018CE791E02C
:100410000C94920080E090E008958F929F92AF92AA
:10042000BF920F931F93CF93DF93CDB7DEB7A19702
:100430000FB6F894DEBF0FBECDBF19A2423008F44C
:100440004AE08E010F5D1F4F842E912CA12CB12C00
:10045000A50194010E948908E62FB901CA01015043
:100460001109EA3014F4E05D01C0E95CD801EC93B5
:10047000232B242B252B61F7C8010E94FB01A19699
:100480000FB6F894DEBF0FBECDBFDF91CF911F91A5
:100490000F91BF90AF909F908F900895CF93DF936F
:1004A0000E94FB01EC0182E191E00E94FB018C0FB4
:1004B0009D1FDF91CF9108954F925F926F927F922F
:1004C0008F929F92AF92BF92CF92DF92EF92FF9264
:1004D0006B017C01B42E9B01AC010E94840888232F
:1004E00019F085E191E027C026013701E89477F8FB
:1004F0002FEF3FEF4FE75FE7C301B2010E9484088F
:1005000081110DC02FEF3FEF4FE75FE7C301B2014D
:100510000E94BA0618161CF489E191E00CC02FEF76
:100520003FEF4FE75FE4C701B6010E9412081816BB
:1005300084F48DE191E0FF90EF90DF90CF90BF9039
:10054000AF909F908F907F906F905F904F900C94A2
:10055000FB012FEF3FEF4FE75FECC701B6010E94B1
:10056000BA0687FDE6CF20E030E0A901C701B60159
:100570000E94BA0687FF09C08DE20E9487004C01E5
:10058000F7FAF094F7F8F09402C0812C912CA12C8A
:1005900060E070E080E09FE3AB1441F020E030E0E9
:1005A00040E251E40E94BF06A394F6CF9B01AC0148
:1005B000C701B6010E944E062B013C010E94310783
:1005C0006B017C010E9460079B01AC01C301B20179
:1005D0000E944D062B013C014AE0C701B6010E9472
:1005E0000D027C01E80CF91CBB2029F08EE20E9470
:1005F0008700E80EF91EDB2CDD2021F120E030E041
:1006000040E251E4C301B2010E9417082B013C01F2
:100610000E9431074B01A12CB12C4AE0C501B40165
:100620000E940D02E80EF91EC501B4010E94600788
:100630009B01AC01C301B2010E944D062B013C019C
:10064000DA94DACFC701FF90EF90DF90CF90BF90A0
:10065000AF909F908F907F906F905F904F90089594
:100660000E94B1081F920F920FB60F9211242F9380
:100670003F934F935F936F937F938F939F93AF932A
:10068000BF93EF93FF938CE791E00E940801FF91E5
:10069000EF91BF91AF919F918F917F916F915F91FA
:1006A0004F913F912F910F900FBE0F901F90189573
:1006B0001F920F920FB60F9211242F938F939F9337
:1006C000EF93FF93E0918C01F0918D018081E09197
:1006D0009201F091930182FD12C090818091950169
:1006E0008F5F8F7320919601821751F0E0919501F1
:1006F000F0E0E458FE4F958F8093950101C0808112
:10070000FF91EF919F918F912F910F900FBE0F90BE
:100710001F9018951F920F920FB60F9211242F93CE
:100720003F938F939F93AF93BF9380917301909169
:100730007401A0917501B09176013091720126E0AB
:10074000230F2D3720F40296A11DB11D05C029E805
:10075000230F0396A11DB11D209372018093730195
:1007600090937401A0937501B09376018091770105
:1007700090917801A0917901B0917A010196A11D23
:10078000B11D8093770190937801A0937901B09384
:100790007A01BF91AF919F918F913F912F910F90CF
:1007A0000FBE0F901F90189571E0539A5298000059
:1007B00000000000AED05398ACD0A8940000000018
:1007C00000004B9B92D0B2F088944A990894771F0E
:1007D00060F7539A803011F0529801C0529A00008D
:1007E0000000000096D05398A894000000004B9B96
:1007F0007CD08FD000000000539A872F992708954E
:1008000080E208950894881F01C0880FB9F0539AB8
:1008100000000000000018F40000529802C0529A34
:1008200000C077D05398A8940000000000004B9BB4
:100830005CD012F4882712C06CD0E7CF539A000026
:100840000000529866D0992788275398A8940000F2
:100850004B9B4BD07AF34A9B81E05BD000000000B9
:10086000539A089581E00895539A529A52D053981A
:1008700050D04B9B3AD052984CD0789408958F9397
:100880008F918F93F8944B9B30D0529A42D0BADF1D
:10089000882311F4E9DFF4CF0F9008950895F894B8
:1008A000539A37D0529835D0539833D04B9B1DD0A4
:1008B000529A2FD0A7DF089581E00895F8944B9BBA
:1008C00014D0529A26D09EDF089581E00895529860
:1008D00053985A985B98882799274A9B08954B9B71
:1008E000089581E0089581E00895B0E0A8EC002427
:1008F00009D032F40A94E1F71197C9F7289408C097
:10090000A89406C0A8944B9901C0289400000895AB
:10091000089598E09A95F1F708950895ECE7F1E0CD
:100920001382128288EE93E0A0E0B0E08483958386
:10093000A683B78384E091E09183808385EC90E087
:100940009587848784EC90E09787868780EC90E099
:10095000918B808B81EC90E0938B828B82EC90E08A
:10096000958B848B86EC90E0978B868B118E128E04
:10097000138E148E0895CF93DF9300D000D000D053
:10098000CDB7DEB7789484B5826084BD84B58160CC
:1009900084BD85B5826085BD85B5816085BD80914A
:1009A0006E00816080936E001092810080918100C2
:1009B00082608093810080918100816080938100BA
:1009C000809180008160809380008091B10084607C
:1009D0008093B1008091B00081608093B0008091DD
:1009E0007A00846080937A0080917A00826080939C
:1009F0007A0080917A008E7F80937A0080917A00CD
:100A0000806880937A001092C10044E950E0FA01B6
:100A1000649180E890E0FC012491222399F030E079
:100A2000220F331FF901E859FF4FA591B4912E58B9
:100A30003F4FF901059114912FB7F8943C91632B26
:100A40006C932FBFE8EAF0E02491FA014491FC0195
:100A500094919923B9F1222339F1233091F038F49C
:100A60002130A9F0223001F584B58F7D12C02730E6
:100A700091F02830A1F02430B9F4809180008F7D6E
:100A800003C0809180008F77809380000DC084B573
:100A90008F7784BD09C08091B0008F7703C08091AB
:100AA000B0008F7D8093B000E92FF0E0EE0FFF1FC4
:100AB000EE58FF4FA591B4918FB7F8949C91492BB4
:100AC0004C938FBF65E070E080E090E00E94C10130
:100AD000E0918C01F0918D0182E08083E0918801AA
:100AE000F09189011082E0918A01F0918B0188E0F8
:100AF000808310929401E0919001F091910186E041
:100B00008083E0918E01F0918F01808180618083EC
:100B1000E0918E01F0918F01808188608083E09167
:100B20008E01F0918F01808180688083E0918E0139
:100B3000F0918F0180818F7D80830E946704809374
:100B40007B0180917B01811104C081E291E00E94D0
:100B50004E0288E80E945E04811104C08AE291E09E
:100B60000E944E0284E20E940204811104C085E3C7
:100B700091E00E944E0280E00E940204811104C0B4
:100B800081E491E00E944E020E94340460E170E032
:100B900080E090E00E94C10188E80E945E0481111B
:100BA00004C08DE491E00E944E0280E00E940204A5
:100BB000811104C088E591E00E944E0289E80E94FC
:100BC0004F04811104C084E691E00E944E029E0110
:100BD0002F5F3F4F790110E081E0153009F080E090
:100BE0000E94D403F70181937F011F5F1630A1F7A4
:100BF0000E943404698170E0762F66270C8110E032
:100C0000102F00278A81682B80E090E00E94600707
:100C100020E030E04FE253E40E94170820E03FEF6D
:100C20004FE757E40E94BF066B017C018D8198015C
:100C3000282BC901BC0180E090E00E94600720E001
:100C400030E048EC52E40E9417084B015C0120E0C0
:100C500030E044E352E4C701B6010E944D0642E091
:100C60000E945C0280E20E94870020E03FEF4FE795
:100C700057E4C501B4010E94BF0642E00E945C0235
:100C800082E191E00E94FB0168EE73E080E090E079
:100C90000E94C1010E94920154CF5058BB27AA273D
:100CA0000E9465060C94D8070E94CA0738F00E947B
:100CB000D10720F039F49F3F19F426F40C94C707AC
:100CC0000EF4E095E7FB0C94C107E92F0E94E907B9
:100CD00058F3BA17620773078407950720F079F471
:100CE000A6F50C940B080EF4E0950B2EBA2FA02D50
:100CF0000B01B90190010C01CA01A0011124FF27C9
:100D0000591B99F0593F50F4503E68F11A16F040C3
:100D1000A22F232F342F4427585FF3CF46953795C2
:100D20002795A795F0405395C9F77EF41F16BA0B87
:100D3000620B730B840BBAF09150A1F0FF0FBB1F35
:100D4000661F771F881FC2F70EC0BA0F621F731F7E
:100D5000841F48F4879577956795B795F7959E3FDB
:100D600008F0B0CF9395880F08F09927EE0F97956C
:100D7000879508950E949D0708F481E008950E94D8
:100D8000D3060C94D8070E94D10758F00E94CA07D6
:100D900040F029F45F3F29F00C94C10751110C94E5
:100DA0000C080C94C7070E94E90768F39923B1F374
:100DB000552391F3951B550BBB27AA276217730781
:100DC000840738F09F5F5F4F220F331F441FAA1F15
:100DD000A9F335D00E2E3AF0E0E832D091505040D1
:100DE000E695001CCAF72BD0FE2F29D0660F771F7F
:100DF000881FBB1F261737074807AB07B0E809F065
:100E0000BB0B802DBF01FF2793585F4F3AF09E3FE9
:100E1000510578F00C94C1070C940C085F3FE4F383
:100E2000983ED4F3869577956795B795F7959F5F2C
:100E3000C9F7880F911D9695879597F90895E1E078
:100E4000660F771F881FBB1F621773078407BA07D7
:100E500020F0621B730B840BBA0BEE1F88F7E09532
:100E600008950E94F10788F09F5798F0B92F9927AD
:100E7000B751B0F0E1F0660F771F881F991F1AF085
:100E8000BA95C9F714C0B13091F00E940B08B1E0D7
:100E900008950C940B08672F782F8827B85F39F0D6
:100EA000B93FCCF3869577956795B395D9F73EF41E
:100EB00090958095709561957F4F8F4F9F4F0895C6
:100EC000E89409C097FB3EF49095809570956195E4
:100ED0007F4F8F4F9F4F9923A9F0F92F96E9BB279A
:100EE0009395F695879577956795B795F111F8CF16
:100EF000FAF4BB0F11F460FF1BC06F5F7F4F8F4F81
:100F00009F4F16C0882311F096E911C0772321F076
:100F10009EE8872F762F05C0662371F096E8862F0E
:100F200070E060E02AF09A95660F771F881FDAF765
:100F3000880F9695879597F90895990F0008550F92
:100F4000AA0BE0E8FEEF16161706E807F907C0F04F
:100F500012161306E407F50798F0621B730B840B57
:100F6000950B39F40A2661F0232B242B252B21F431
:100F700008950A2609F4A140A6958FEF811D811DD1
:100F8000089597F99F6780E870E060E008959FEF0B
:100F900080EC089500240A94161617061806090610
:100FA000089500240A9412161306140605060895DF
:100FB000092E0394000C11F4882352F0BB0F40F467
:100FC000BF2B11F460FF04C06F5F7F4F8F4F9F4FA7
:100FD000089557FD9058440F551F59F05F3F71F029
:100FE0004795880F97FB991F61F09F3F79F0879590
:100FF0000895121613061406551FF2CF4695F1DF19
:1010000008C0161617061806991FF1CF86957105A8
:10101000610508940895E894BB2766277727CB01DC
:1010200097F908950E949D0708F48FEF08950E9494
:101030002A080C94D8070E94CA0738F00E94D107EA
:1010400020F0952311F00C94C1070C94C7071124CC
:101050000C940C080E94E90770F3959FC1F3950F5B
:1010600050E0551F629FF001729FBB27F00DB11D2C
:10107000639FAA27F00DB11DAA1F649F6627B00DBC
:10108000A11D661F829F2227B00DA11D621F739FA5
:10109000B00DA11D621F839FA00D611D221F749FB3
:1010A0003327A00D611D231F849F600D211D822FFA
:1010B000762F6A2F11249F5750409AF0F1F0882321
:1010C0004AF0EE0FFF1FBB1F661F771F881F91504E
:1010D0005040A9F79E3F510580F00C94C1070C9435
:1010E0000C085F3FE4F3983ED4F3869577956795B7
:1010F000B795F795E7959F5FC1F7FE2B880F911D78
:101100009695879597F908950E949D07880B990BEE
:101110000895A1E21A2EAA1BBB1BFD010DC0AA1F38
:10112000BB1FEE1FFF1FA217B307E407F50720F050
:10113000A21BB30BE40BF50B661F771F881F991FCB
:101140001A9469F760957095809590959B01AC0114
:10115000BD01CF010895EE0FFF1F0590F491E02D22
:10116000099481E090E0F8940C94B608F894FFCFCD
:101170000000000029019200C1007001F200D000BF
:10118000E4000D0A006E616E00696E66006F76669F
:1011900000494E4954204552520053544152543153
:1011A0002045525200575249544531312045525240
:1011B0000057524954453132204552520053544150
:1011C0005254322045525200575249544532312030
:1011D00045525200524550535441525420455252A8
:0211E00000000D
:107800000C94343C0C94513C0C94513C0C94513CE1
:107810000C94513C0C94513C0C94513C0C94513CB4
:107820000C94513C0C94513C0C94513C0C94513CA4
:107830000C94513C0C94513C0C94513C0C94513C94
:107840000C94513C0C94513C0C94513C0C94513C84
:107850000C94513C0C94513C0C94513C0C94513C74
:107860000C94513C0C94513C11241FBECFEFD8E036
:10787000DEBFCDBF11E0A0E0B1E0EAE8FFE702C063
:1078800005900D92A230B107D9F712E0A2E0B1E065
:1078900001C01D92AD30B107E1F70E942D3D0C945F
:1078A000C33F0C94003C982F95959595959595958B
:1078B000905D8F708A307CF0282F295A8091C0000B
:1078C00085FFFCCF9093C6008091C00085FFFCCF60
:1078D0002093C6000895282F205DF0CF982F809127
:1078E000C00085FFFCCF9093C6000895EF92FF92F1
:1078F0000F931F93EE24FF2487018091C00087FD22
:1079000017C00894E11CF11C011D111D81E2E8164D
:1079100081EAF80687E0080780E0180770F3E09135
:107920000401F091050109958091C00087FFE9CF1E
:107930008091C6001F910F91FF90EF9008950E94D3
:10794000763C982F8091C00085FFFCCF9093C600B5
:1079500091362CF490330CF09053892F089597555D
:10796000892F08951F930E949F3C182F0E949F3CCF
:107970001295107F810F1F9108951F93182F882350
:1079800021F00E94763C1150E1F71F9108951F935A
:10799000182F0E94763C803249F0809103018F5F5E
:1079A000809303018530C1F01F9108958091C0003C
:1079B00085FFFCCF84E18093C6008091C00085FFE5
:1079C000FCCF1093C6008091C00085FFFCCF80E102
:1079D0008093C6001F910895E0910401F091050184
:1079E00009951F9108950E94763C803241F0809164
:1079F00003018F5F80930301853081F008958091AA
:107A0000C00085FFFCCF84E18093C6008091C00058
:107A100085FFFCCF80E18093C6000895E0910401CA
:107A2000F09105010995089548EC50E08823A1F0F4
:107A30002D9A28EE33E0FA013197F1F721503040CA
:107A4000D1F72D9828EE33E0FA013197F1F7215064
:107A50003040D1F7815061F708953F924F925F9285
:107A60006F927F928F929F92AF92BF92CF92DF924E
:107A7000EF92FF920F931F93CF93DF93000082E06A
:107A80008093C00080E18093C4001092C50088E11B
:107A90008093C10086E08093C2005098589A259A3E
:107AA00081E00E94143D24E1F22E9EE1E92E85E959
:107AB000D82E0FE0C02E10E1B12EAA24A394B1E479
:107AC0009B2EA6E58A2EF2E57F2EE0E26E2E79E46B
:107AD000572E63E5462E50E5352E0E94763C8033C6
:107AE000B1F18133B9F1803409F46FC0813409F404
:107AF00076C0823409F485C0853409F488C08035A5
:107B000031F1823521F1813511F1853509F485C0D6
:107B1000863509F48DC0843609F496C0843709F49B
:107B200003C1853709F472C1863709F466C08091B4
:107B300003018F5F80930301853079F6E0910401A2
:107B4000F091050109950E94763C803351F60E9420
:107B5000F33CC3CF0E94763C803249F78091C0004D
:107B600085FFFCCFF092C6008091C00085FFFCCF5E
:107B70009092C6008091C00085FFFCCF8092C60025
:107B80008091C00085FFFCCF7092C6008091C0003C
:107B900085FFFCCF6092C6008091C00085FFFCCFBE
:107BA0005092C6008091C00085FFFCCF4092C60075
:107BB0008091C00085FFFCCF3092C6008091C0004C
:107BC00085FFFCCFB092C60088CF0E94763C8638F5
:107BD00008F4BDCF0E94763C0E94F33C7ECF0E9409
:107BE000763C803809F49CC0813809F40BC1823896
:107BF00009F430C1883909F48FC080E00E94C73C85
:107C00006CCF84E10E94BD3C0E94F33C66CF85E0CE
:107C10000E94BD3C0E94F33C60CF0E94763C809362
:107C200006010E94763C809307010E94F33C55CFE9
:107C30000E94763C803309F411C183E00E94BD3C70
:107C400080E00E94C73C49CF0E94763C80930902A5
:107C50000E94763C8093080280910C028E7F809374
:107C60000C020E94763C853409F409C18091080217
:107C700090910902892B89F000E010E00E94763C87
:107C8000F801E85FFE4F80830F5F1F4F809108026D
:107C9000909109020817190788F30E94763C8032F8
:107CA00009F045CF80910C0280FFF5C0609106017C
:107CB00070910701660F771F7093070160930601AB
:107CC000A0910802B09109021097C9F0E8E0F1E034
:107CD0009B01AD014E0F5F1FF999FECF32BD21BD53
:107CE000819180BDFA9AF99A2F5F3F4FE417F5070B
:107CF00099F76A0F7B1F70930701609306018091CB
:107D0000C00085FFFCCFF092C6008091C00085FFC7
:107D1000FCCFB092C600E1CE83E00E94C73CDDCE2E
:107D200082E00E94C73CD9CE0E94763C8093090233
:107D30000E94763C80930802809106019091070191
:107D4000880F991F90930701809306010E94763C4B
:107D5000853409F49AC080910C028E7F80930C02C6
:107D60000E94763C803209F0B8CE8091C00085FF39
:107D7000FCCFF092C600A0910802B09109021097C2
:107D8000C1F180910C02082F0170182F1695117007
:107D9000E0910601F0910701AF014F5F5F4FBA011B
:107DA00020E030E00023B1F4112339F49491809164
:107DB000C00085FFFCCF9093C6002F5F3F4FCB01E3
:107DC0000196FA012A173B0780F4BC014F5F5F4F11
:107DD000002351F3F999FECFF2BDE1BDF89A90B5B9
:107DE0008091C00085FFFCCFE6CF709307016093C0
:107DF00006018091C00085FDE5CE8091C00085FF21
:107E0000F8CFE0CE81E00E94C73C67CE0E94763C6E
:107E1000803209F08CCE8091C00085FFFCCFF092BB
:107E2000C6008091C00085FFFCCFE092C600809123
:107E3000C00085FFFCCFD092C6008091C00085FFB6
:107E4000FCCFC092C6008091C00085FFFCCFB092ED
:107E5000C60043CE80E10E94C73C3FCE0E94763CE4
:107E60000E94763C182F0E94763C112309F483C0AF
:107E7000113009F484C08FE00E94C73C2ECE80915F
:107E80000C02816080930C02F1CE80910C02816023
:107E900080930C0265CF809107018823880F880B9F
:107EA0008A2180930B028091060190910701880F2F
:107EB000991F90930701809306018091080280FF2B
:107EC00009C08091080290910902019690930902DD
:107ED00080930802F894F999FECF1127E0910601EA
:107EE000F0910701C8E0D1E0809108029091090269
:107EF000103091F40091570001700130D9F303E084
:107F000000935700E8950091570001700130D9F3B4
:107F100001E100935700E8950990199000915700EE
:107F200001700130D9F301E000935700E8951395F3
:107F3000103498F011270091570001700130D9F3E7
:107F400005E000935700E89500915700017001305B
:107F5000D9F301E100935700E8953296029709F0B2
:107F6000C7CF103011F00296E5CF11248091C000E8
:107F700085FFC5CEC8CE8EE10E94C73CAECD85E957
:0A7F80000E94C73CAACDF894FFCF81
:027F8A00800075
:040000030000780081
:00000001FF
