:100000000C945D000C9485000C9485000C94850084
:100010000C9485000C9485000C942E030C948500A0
:100020000C9485000C9485000C9485000C9485003C
:100030000C9485000C9485000C9485000C9485002C
:100040000C94E4020C9485000C94B2020C948C0283
:100050000C9485000C9485000C9485000C9485000C
:100060000C9485000C9485000000000024002700FB
:100070002A0000000000250028002B0004040404CE
:100080000404040402020202020203030303030342
:10009000010204081020408001020408102001021F
:1000A00004081020000000080002010000030407FB
:1000B00000000000000000004D0411241FBECFEF1F
:1000C000D8E0DEBFCDBF11E0A0E0B1E0E8EAF9E1A1
:1000D00002C005900D92A231B107D9F722E0A2E14A
:1000E000B1E001C01D92A830B207E1F710E0CDE504
:1000F000D0E004C02197FE010E94B80CCC35D10796
:10010000C9F70E947A040C94D20C0C940000CF9290
:10011000DF92EF92FF920F931F93CF93DF936C01C7
:100120007A018B01C0E0D0E0CE15DF0589F0D8015F
:100130006D918D01D601ED91FC910190F081E02D42
:10014000C6010995892B11F47E0102C02196ECCFDE
:10015000C701DF91CF911F910F91FF90EF90DF903A
:10016000CF900895089580E090E00895FC01538DAC
:10017000448D252F30E0842F90E0821B930B541781
:1001800010F0CF96089501970895FC01918D828D0E
:10019000981761F0828DDF01A80FB11D5D968C91DB
:1001A000928D9F5F9F73928F90E008958FEF9FEFE6
:1001B0000895FC01918D828D981731F0828DE80FA2
:1001C000F11D858D90E008958FEF9FEF0895FC015C
:1001D000918D228D892F90E0805C9F4F821B910929
:1001E0008F739927089581E491E00E94E70021E050
:1001F000892B09F420E0822F0895FC01848DDF0112
:10020000A80FB11DA35ABF4F2C91848D90E0019689
:100210008F739927848FA689B7892C93A089B18978
:100220008C9180648C93938D848D981306C0028882
:10023000F389E02D80818F7D80830895EF92FF9276
:100240000F931F93CF93DF93EC0181E0888F9B8DF9
:100250008C8D981305C0E889F989808185FD24C0BB
:10026000F62E0B8D10E00F5F1F4F0F731127E02E3E
:100270008C8DE8120CC00FB607FCFACFE889F9891B
:10028000808185FFF5CFCE010E94FD00F1CF8B8DDF
:10029000FE01E80FF11DE35AFF4FF0820B8FEA8950
:1002A000FB898081806207C0EE89FF896083E889CD
:1002B000F98980818064808381E090E0DF91CF9133
:1002C0001F910F91FF90EF900895CF93DF93EC0172
:1002D000888D8823C9F0EA89FB89808185FD05C066
:1002E000A889B9898C9186FD0FC00FB607FCF5CFA0
:1002F000808185FFF2CFA889B9898C9185FFEDCFE8
:10030000CE010E94FD00E7CFDF91CF91089580E0FC
:1003100090E0892B29F00E94F30081110C940000D9
:10032000089590E0FC01EC55FF4F3491FC01E0573B
:10033000FF4F2491FC01E458FF4FE491EE2309F4B0
:100340003BC0332339F1333091F038F43130A9F028
:10035000323001F584B58F7D12C0373091F03830DE
:10036000A1F03430B9F4809180008F7D03C080917A
:1003700080008F77809380000DC084B58F7784BD17
:1003800009C08091B0008F7703C08091B0008F7D4D
:100390008093B000F0E0EE0FFF1FEE58FF4FA591E5
:1003A000B4918FB7F894EC91611103C020952E237E
:1003B00001C02E2B2C938FBF0895CF93DF9390E035
:1003C000FC01E057FF4F2491FC01E458FF4F84915A
:1003D000882361F190E0880F991FFC01E859FF4FD5
:1003E000C591D491FC01EE58FF4FA591B4916111D4
:1003F00009C09FB7F8948881209582238883EC9167
:100400002E230BC0623061F49FB7F8943881822F9D
:10041000809583238883EC912E2B2C939FBF06C05D
:100420008FB7F894E8812E2B28838FBFDF91CF916F
:1004300008953FB7F8948091170190911801A09109
:100440001901B0911A0126B5A89B05C02F3F19F0DC
:100450000196A11DB11D3FBFBA2FA92F982F882744
:10046000820F911DA11DB11DBC01CD0143E0660F9E
:10047000771F881F991F4A95D1F708958F929F92F1
:10048000AF92BF92CF92DF92EF92FF926B017C010D
:100490000E9419024B015C01C114D104E104F10472
:1004A000F1F00E941902DC01CB0188199909AA090F
:1004B000BB09883E9340A105B10570F321E0C21A43
:1004C000D108E108F10888EE880E83E0981EA11C8F
:1004D000B11CC114D104E104F10419F7DDCFFF9080
:1004E000EF90DF90CF90BF90AF909F908F90089546
:1004F00062E070E080E090E00E943E0260E081E116
:100500000E94910160E083E10E94910160E082E13C
:100510000C9491010E94CD0C1F920F920FB60F9276
:1005200011242F933F934F935F936F937F938F93F8
:100530009F93AF93BF93EF93FF9381E491E00E9469
:10054000FD00FF91EF91BF91AF919F918F917F91AE
:100550006F915F914F913F912F910F900FBE0F9030
:100560001F9018951F920F920FB60F9211242F9380
:100570008F939F93EF93FF93E0915101F09152017C
:100580008081E0915701F091580182FD12C0908165
:1005900080915A018F5F8F7320915B01821751F018
:1005A000E0915A01F0E0EF5BFE4F958F80935A0186
:1005B00001C08081FF91EF919F918F912F910F90BA
:1005C0000FBE0F901F9018951F920F920FB60F92AB
:1005D00011242F933F938F939F93AF93BF93809159
:1005E000130190911401A0911501B0911601309161
:1005F000120126E0230F2D3720F40296A11DB11D14
:1006000005C029E8230F0396A11DB11D20931201F7
:100610008093130190931401A0931501B0931601D8
:100620008091170190911801A0911901B0911A01C0
:100630000196A11DB11D8093170190931801A093FD
:100640001901B0931A01BF91AF919F918F913F9182
:100650002F910F900FBE0F901F901895189571E075
:100660003D9A3C9800000000000012D13D9810D146
:10067000A894000000000000359BF6D0B2F08894EA
:1006800034990894771F60F73D9A803011F03C98B8
:1006900001C03C9A000000000000FAD03D98A894E8
:1006A00000000000359BE0D0F3D0000000003D9A30
:1006B000872F9927089580E208950894881F01C024
:1006C000880FB9F03D9A00000000000018F4000007
:1006D0003C9802C03C9A00C0DBD03D98A894000032
:1006E00000000000359BC0D012F4882712C0D0D083
:1006F000E7CF3D9A000000003C98CAD09927882790
:100700003D98A8940000359BAFD07AF3349B81E0EC
:10071000BFD0000000003D9A089581E008953D9A01
:100720003C9AB6D03D98B4D0359B9ED03C98B0D082
:1007300008958F938F918F93359B96D03C9AA8D034
:10074000BCDF882311F4EBDFF5CF0F9008950895F7
:100750003D9A9ED03C989CD03D989AD0359B84D0B1
:100760003C9A96D0AADF089581E00895359B7CD00D
:100770003C9A8ED0A2DF089581E00895CF93C82FD0
:100780008CEE0E94B603811104C00E948F0380E0AA
:100790000EC08C2F0E945D038823B9F38091EE0177
:1007A0000E945D03882389F30E948F0381E0CF912B
:1007B0000895CF92DF92EF92FF920F931F93CF9302
:1007C000662381F1C62F182F8CEE0E94B60381118B
:1007D00004C00E948F0380E026C0812F0E945D0329
:1007E0008823B9F38DEE0E94A803882391F38EEE3F
:1007F000E82E81E0F82E00E010E0CC2ED12C0F5F27
:100800001F4F8FEF800F8C1758F481E00C151D05DA
:1008100009F080E00E942F03F70181937F01EFCF61
:100820000E948F0381E0CF911F910F91FF90EF9075
:10083000DF90CF90089561E080ED0E94D90381E0C0
:100840009091EE01903609F080E008953C983D9833
:100850004498459888279927349B0895359B089597
:1008600081E0089581E00895B0E0A8EC002409D06B
:1008700032F40A94E1F71197C9F7289408C0A894B4
:1008800006C0A894359901C02894000008950895E1
:1008900098E09A95F1F708950895E1E4F1E0138264
:1008A000128288EE93E0A0E0B0E084839583A68373
:1008B000B78384E091E09183808385EC90E0958715
:1008C000848784EC90E09787868780EC90E0918B1A
:1008D000808B81EC90E0938B828B82EC90E0958B07
:1008E000848B86EC90E0978B868B118E128E138E04
:1008F000148E0895CF93DF93CDB7DEB7A1970FB6CF
:10090000F894DEBF0FBECDBF789484B5826084BDFD
:1009100084B5816084BD85B5826085BD85B5816003
:1009200085BD80916E00816080936E001092810081
:10093000809181008260809381008091810081603C
:1009400080938100809180008160809380008091FD
:10095000B10084608093B1008091B0008160809389
:10096000B00080917A00846080937A0080917A0050
:10097000826080937A0080917A008E7F80937A00E3
:1009800080917A00806880937A001092C10061E0C3
:1009900081E10E94DD0161E080E10E94DD0161E012
:1009A0008FE00E94DD0160E08EE00E94DD01809119
:1009B0007A008093400110927A000E942604E09110
:1009C0005101F091520182E08083E0914D01F0915C
:1009D0004E011082E0914F01F091500188E0808338
:1009E00010925901E0915501F091560186E0808303
:1009F000E0915301F0915401808180618083E09106
:100A00005301F0915401808188608083E09153010B
:100A1000F0915401808180688083E0915301F091CE
:100A2000540180818F7D808361E081E10E9491018A
:100A300062E070E080E090E00E943E020E941B04B1
:100A4000882309F4D2C06AE188E80E94D903809122
:100A5000EF0190E0982F88272091EE01822B909350
:100A60003F0180933E018091F10190E0982F88270B
:100A70002091F001822B90933D0180933C01809165
:100A8000F30190E0982F88272091F201822B909318
:100A90003B0180933A018091F50190E0982F8827DF
:100AA0002091F401822B90932B0180932A01809155
:100AB000F70190E0982F88272091F601822B9093E0
:100AC0002D0180932C018091F90190E0982F8827C7
:100AD0002091F801822B90932F0180932E01809119
:100AE000FB0190E0982F88272091FA01822B9093A8
:100AF0003101809330018091FD0190E0982F88278B
:100B00002091FC01822B90933301809332018091DC
:100B1000FF0190E0982F88272091FE01822B90936F
:100B20003501809334018091010290E0982F88274D
:100B300020910002822B90932501809324018091C3
:100B4000030290E0982F882720910202822B909335
:100B50002701809326018091050290E0982F882735
:100B600020910402822B9093290180932801809187
:100B7000070280931B0167E081EE0E94D9038091F8
:100B8000EF0190E0982F88272091EE01822B90931F
:100B90001D0180931C018091F00180931E01209122
:100BA000F1019091F20140E1240290011124892F7A
:100BB0008F70282B30932301209322018091F30121
:100BC00050E1850290011124892F90E0A4E09595D1
:100BD0008795AA95E1F7822B932B9093210180931F
:100BE00020018091F40180931F010E94780260E04F
:100BF00080E10E94910160E08FE00E94910161E03C
:100C000081E10E94910162E070E080E090E00E944A
:100C10003E020E941B0481110FC01092E20110924B
:100C2000E3011092E4011092E5016AE070E080E0D7
:100C300090E00E943E0286C381E08093EE0182EF45
:100C40000E94BE0385E28093EE0184EF0E94BE0302
:100C50006AE070E080E090E00E943E0268E087EF8A
:100C60000E94D9036091EE016D8B7091EF017E8B34
:100C70008091F0018F8BC090F201D12CE12CF12CEE
:100C800024E0CC0CDD1CEE1CFF1C2A95D1F78091D2
:100C9000F10190E0A0E0B0E03CE0880F991FAA1FAE
:100CA000BB1F3A95D1F78C299D29AE29BF29C09049
:100CB000F301D12CE12CF12C44E0F694E794D79485
:100CC000C7944A95D1F7C82AD92AEA2AFB2A8091E3
:100CD000F40190E0A0E0B0E0BA2FA92F982F882768
:100CE0002091F501AC01BD01422B488F598F6A8FCD
:100CF0007B8F80903E0190903F012601370163E099
:100D000076946794579447946A95D1F7A12CB12CA7
:100D1000AEEFBFEFA50194010E94B30CA3019201B5
:100D2000260F371F481F591FA0913C01B0913D016C
:100D30000E94B00C2B013C01D701C60174E0B695AE
:100D4000A795979587957A95D1F7BC01CD0168193C
:100D500079098A099B099B01AC010E94540C9B01F3
:100D6000AC01ECE05595479537952795EA95D1F775
:100D7000A0913A01B0913B010E94B00C6B017C0143
:100D8000C301B20120E038E040E050E00E94860C50
:100D900049015A01C701B60120E030E440E050E0CB
:100DA0000E94860CC501B401620F731F841F951F3A
:100DB000698B7A8B8B8B9C8B609336017093370198
:100DC0008093380190933901A5E0B0E09B01AC011C
:100DD0000E94A50C60587F4F8F4F9F4F20E031E05D
:100DE00040E050E00E94860C203670EF37077FEF1E
:100DF000470757072CF480E690EFAFEFBFEF13C023
:100E0000253381E23807410551054CF42093EA016E
:100E10003093EB014093EC015093ED010CC084E35F
:100E200091E2A0E0B0E08093EA019093EB01A093FF
:100E3000EC01B093ED0102E0402E512C612C712C9D
:100E400069897A898B899C89A30192010E94860C09
:100E500069017A019AEFD91AE108F108C701B601D0
:100E600024E030E040E050E00E94860CCA01B90165
:100E70000E94540C4B015C0100913401109135012A
:100E80002090320130903301A0913001B0913101B6
:100E9000BD8FAC8FA0912E01B0912F019B01AC01B1
:100EA0008DE055954795379527958A95D1F70E94FE
:100EB000B00C28E030E040E050E00E94860C2E8F1D
:100EC0003F8F48A359A3A0912C01B0912D01A701F8
:100ED00096010E94B00CA30192010E94860C6E8DB7
:100EE0007F8D88A199A1620F731F841F951F20E039
:100EF00030E044E050E00E94860C30584F4F5F4F86
:100F0000A0912A01B0912B010E94A50C2B013C015C
:100F10009FE075946794579447949A95D1F741143C
:100F200051046104710409F40DC1A50194018BE021
:100F300055954795379527958A95D1F7D8010E9401
:100F4000B00C4B015C01D101A70196010E94B00CCD
:100F5000DC01CB01880F991FAA1FBB1FBC01CD016B
:100F6000680D791D8A1D9B1D24E030E040E050E0B3
:100F70000E94860CBD89CB2ED12CE12CF12C6CE08B
:100F8000CC0CDD1CEE1CFF1C6A95D1F76E89862FF8
:100F900090E0A0E0B0E074E0880F991FAA1FBB1F8B
:100FA0007A95D1F7C82AD92AEA2AFB2A7F89872F7E
:100FB00090E0A0E0B0E0E4E0B695A795979587951E
:100FC000EA95D1F78C299D29AE29BF29C12CD12CB6
:100FD000F0E1EF2EF12CC81AD90AEA0AFB0A6C8D4F
:100FE0007D8DCB01770FAA0BBB0BDC0199278827DE
:100FF000BC01CD01620F731F841F951F20E030E1FB
:1010000040E050E00E94860CD701C601821B930B82
:10101000A40BB50B9C01AD01A5E3BCE00E94A50C9F
:1010200097FD11C0660F771F881F991FA3019201BA
:101030000E94640C2093E2013093E3014093E401A9
:101040005093E50112C0A30192010E94640CDA01E1
:10105000C901880F991FAA1FBB1F8093E2019093BB
:10106000E301A093E401B093E501C090E201D090C8
:10107000E301E090E401F090E501C701B601E3E08F
:101080009695879577956795EA95D1F7E091280130
:10109000F09129019B01AC010E94540C9B01AC0111
:1010A000ADE05695479537952795AA95D1F7DF017D
:1010B0000E94B00C20E030E140E050E00E94860C3D
:1010C00049015A01A7019601B2E056954795379517
:1010D0002795BA95D1F7A0912601B09127010E94DA
:1010E000B00C20E030E240E050E00E94860C820E1E
:1010F000931EA41EB51E8091240190912501092EF6
:10110000000CAA0BBB0BBC01CD01680D791D8A1D1B
:101110009B1D20E130E040E050E00E94860CC20EB2
:10112000D31EE41EF51EC092E201D092E301E092CC
:10113000E401F092E50190E3C91695E7D906E104D0
:10114000F10468F420E335E740E050E02093E20149
:101150003093E3014093E4015093E50114C031EB77
:10116000C3163DEAD30631E0E306F10460F080EBFC
:101170009DEAA1E0B0E08093E2019093E301A093A7
:10118000E401B093E501C988DA88EB88FC884CE279
:10119000D41A41E0E40AF108888C998CAA8CBB8CA3
:1011A0002EE0880C991CAA1CBB1C2A95D1F78091B3
:1011B000220190912301092E000CAA0BBB0B34E1F4
:1011C000880F991FAA1FBB1F3A95D1F7881A990A51
:1011D000AA0ABB0AA0912001B0912101A7019601A2
:1011E0000E94B00CA5019401261B370B480B590B2C
:1011F000CA01B901705C8F4F9F4F20E030E840E09A
:1012000050E00E94860C49015A01A0911F010A2E4C
:10121000000CBB0BA70196010E94B00C20E034E04B
:1012200040E050E00E94860C29013A01A0911E0185
:10123000B0E0A70196010E94A50C20E038E040E054
:1012400050E00E94860CCA01B90170588F4F9F4F21
:10125000A30192010E94540C20E034E040E050E0F1
:101260000E94860C405E5F4FA0911C01B0911D0151
:101270000E94B00C705E8F4F9F4F20E030E440E042
:1012800050E00E94860CCA01B901A50194010E9498
:10129000540C6B017C0120E030E840E050E00E94FB
:1012A000860CCA01B9010E94540C9B01AC0167E095
:1012B00055954795379527956A95D1F7A0911B01CC
:1012C000B0E00E94A50C20E130E040E050E00E9438
:1012D000860CC21AD30AE40AF50AF7FE03C0C12C31
:1012E000D12C760131E0C316D104E10439E1F306D3
:1012F0002CF0C12CD12CE12C99E1F92E8CE0F59445
:10130000E794D794C7948A95D1F741EAC41646E882
:10131000D40641E0E406F1044CF4C092E601D09218
:10132000E701E092E801F092E9010CC060EA76E89A
:1013300081E090E06093E6017093E7018093E8011B
:101340009093E9010E9478028091400180937A0095
:1013500080E880937A0080917A00876080937A0099
:101360008EE480937C0080917A00806480937A0080
:1013700080917A0086FDFCCF6091780070917900B1
:1013800080E090E00E94590B20E030E040E05FE315
:101390000E944C0A9B01AC0160E070E084E894E498
:1013A0000E94B80A20E030E040E854E40E94E70BD5
:1013B0000E942A0B6093DE017093DF018093E001AD
:1013C0009093E10110927A008091EA019091EB01F3
:1013D000A091EC01B091ED0189839A83AB83BC832A
:1013E0008091E6019091E701A091E801B091E901B7
:1013F0008D839E83AF83B8878091E2019091E30152
:10140000A091E401B091E50189879A87AB87BC87F9
:101410008091DE019091DF01A091E001B091E101A6
:101420008D879E87AF87B88B40E150E0BE016F5F2C
:101430007F4F81E491E00E94870081E491E00E9467
:10144000650161E080E10E94910161E08FE00E940E
:10145000910183B7817F846083BFF894A89588E168
:101460008093600081E68093600083B7816083BFD2
:101470007894889583B78E7F83BF0FB6F894A8952C
:1014800080916000886180936000109260000FBEC0
:101490000E948701ACCB5058BB27AA270E94630A41
:1014A0000C94AD0B0E949F0B38F00E94A60B20F00D
:1014B00039F49F3F19F426F40C949C0B0EF4E0953C
:1014C000E7FB0C94960BE92F0E94BE0B58F3BA175A
:1014D000620773078407950720F079F4A6F50C944A
:1014E000E00B0EF4E0950B2EBA2FA02D0B01B901E5
:1014F00090010C01CA01A0011124FF27591B99F08A
:10150000593F50F4503E68F11A16F040A22F232F95
:10151000342F4427585FF3CF469537952795A795E5
:10152000F0405395C9F77EF41F16BA0B620B730B8C
:10153000840BBAF09150A1F0FF0FBB1F661F771FFD
:10154000881FC2F70EC0BA0F621F731F841F48F4B2
:10155000879577956795B795F7959E3F08F0B0CF3B
:101560009395880F08F09927EE0F97958795089522
:101570000E94CC0A0C94AD0B0E94A60B58F00E945E
:101580009F0B40F029F45F3F29F00C94960B51110A
:101590000C94E10B0C949C0B0E94BE0B68F39923F6
:1015A000B1F3552391F3951B550BBB27AA2762175F
:1015B0007307840738F09F5F5F4F220F331F441F6C
:1015C000AA1FA9F335D00E2E3AF0E0E832D09150A0
:1015D0005040E695001CCAF72BD0FE2F29D0660F8D
:1015E000771F881FBB1F261737074807AB07B0E8D0
:1015F00009F0BB0B802DBF01FF2793585F4F3AF0D6
:101600009E3F510578F00C94960B0C94E10B5F3FD4
:10161000E4F3983ED4F3869577956795B795F7955B
:101620009F5FC9F7880F911D9695879597F9089543
:10163000E1E0660F771F881FBB1F621773078407DF
:10164000BA0720F0621B730B840BBA0BEE1F88F7EE
:10165000E09508950E94C60B88F09F5798F0B92F27
:101660009927B751B0F0E1F0660F771F881F991FD7
:101670001AF0BA95C9F714C0B13091F00E94E00B8E
:10168000B1E008950C94E00B672F782F8827B85F9E
:1016900039F0B93FCCF3869577956795B395D9F72F
:1016A0003EF490958095709561957F4F8F4F9F4F39
:1016B0000895E89409C097FB3EF490958095709545
:1016C00061957F4F8F4F9F4F9923A9F0F92F96E98E
:1016D000BB279395F695879577956795B795F11103
:1016E000F8CFFAF4BB0F11F460FF1BC06F5F7F4FA0
:1016F0008F4F9F4F16C0882311F096E911C07723B2
:1017000021F09EE8872F762F05C0662371F096E8BA
:10171000862F70E060E02AF09A95660F771F881F89
:10172000DAF7880F9695879597F9089597F99F6747
:1017300080E870E060E008959FEF80EC0895002459
:101740000A941616170618060906089500240A9426
:1017500012161306140605060895092E0394000CAC
:1017600011F4882352F0BB0F40F4BF2B11F460FF3B
:1017700004C06F5F7F4F8F4F9F4F089557FD905864
:10178000440F551F59F05F3F71F04795880F97FB45
:10179000991F61F09F3F79F08795089512161306FF
:1017A0001406551FF2CF4695F1DF08C0161617062E
:1017B0001806991FF1CF8695710561050894089563
:1017C000E894BB2766277727CB0197F908950E94F5
:1017D000FA0B0C94AD0B0E949F0B38F00E94A60BE5
:1017E00020F0952311F00C94960B0C949C0B112473
:1017F0000C94E10B0E94BE0B70F3959FC1F3950F03
:1018000050E0551F629FF001729FBB27F00DB11D84
:10181000639FAA27F00DB11DAA1F649F6627B00D14
:10182000A11D661F829F2227B00DA11D621F739FFD
:10183000B00DA11D621F839FA00D611D221F749F0B
:101840003327A00D611D231F849F600D211D822F52
:10185000762F6A2F11249F5750409AF0F1F0882379
:101860004AF0EE0FFF1FBB1F661F771F881F9150A6
:101870005040A9F79E3F510580F00C94960B0C94B4
:10188000E10B5F3FE4F3983ED4F386957795679537
:10189000B795F795E7959F5FC1F7FE2B880F911DD0
:1018A0009695879597F90895DB018F939F930E94F2
:1018B000A50CBF91AF91A29F800D911DA39F900D8C
:1018C000B29F900D11240895A1E21A2EAA1BBB1BF2
:1018D000FD010DC0AA1FBB1FEE1FFF1FA217B307FC
:1018E000E407F50720F0A21BB30BE40BF50B661F12
:1018F000771F881F991F1A9469F7609570958095D6
:1019000090959B01AC01BD01CF010895052E97FB79
:101910001EF400940E949D0C57FD07D00E94640C99
:1019200007FC03D04EF40C949D0C509540953095D7
:1019300021953F4F4F4F5F4F08959095809570953B
:1019400061957F4F8F4F9F4F08950E94BE0CA59FBA
:10195000900DB49F900DA49F800D911D11240895AA
:10196000B7FF0C94A50C0E94A50C821B930B089545
:10197000EE0FFF1F0590F491E02D0994A29FB00196
:10198000B39FC001A39F700D811D1124911DB29FB3
:10199000700D811D1124911D089581E090E0F8944F
:0819A0000C94D20CF894FFCF67
:1019A800000000001E018700B6006501E700C500C1
:0219B800D90054
:00000001FF
