:100000000C94A4010C94CC010C94CC010C94CC0164
:100010000C94CC010C94CC010C94CC010C94CC012C
:100020000C94CC010C94CC010C94CC010C94CC011C
:100030000C94CC010C94CC010C94CC010C94CC010C
:100040000C9402050C94CC010C94D0040C94AA04DA
:100050000C94CC010C94CC010C94CC010C94CC01EC
:100060000C9469070C94CC0107634236B79BD8A760
:100070001A39685618AEBAAB558C1D3CB7CC5763CD
:10008000BD6DEDFD753EF6177231BF000000803F7B
:1000900008000000BE922449123EABAAAA2ABECD97
:1000A000CCCC4C3E00000080BEABAAAAAA3E000009
:1000B0000000BF000000803F000000000008417801
:1000C000D3BB4387D1133D190E3CC3BD4282AD2B38
:1000D0003E68EC8276BED98FE1A93E4C80EFFFBE30
:1000E00001C4FF7F3F0000000000AED580A81FD3F1
:1000F00000408D142002A1C8DA02817FD9F1DB40D3
:10010000A4A6AF00030C0F30333C3FC0C3CCCFF0EC
:10011000F3FCFF0000050720600000000000000065
:100120005F00000003000300143E143E14242A7FE5
:100130002A124333086661364955225000050300F0
:1001400000001C2241000041221C0014083E08143B
:1001500008083E0808005030000008080808080099
:100160006060000020100804023E5149453E000432
:10017000027F004261514946224149493618141212
:100180007F1027454545393E4949493201017109EA
:10019000073649494936264949493E003636000066
:1001A00000563600000814224100141414141400E0
:1001B0004122140802015109063E4159555E7E094B
:1001C00009097E7F494949363E414141227F4141EB
:1001D000413E7F494949417F090909013E41414961
:1001E0003A7F0808087F00417F4100304040403F8F
:1001F0007F081422417F404040407F020C027F7FF5
:100200000204087F3E4141413E7F090909061E2143
:1002100021215E7F09090976264949493201017F7A
:1002200001013F4040403F1F2040201F7F20102001
:100230007F41221C2241070870080761514945434C
:10024000007F41000002040810200000417F0004EC
:1002500002010204404040404000010204002054DA
:100260005454787F444444383844444444384444E3
:10027000447F385454541804047E050508545454DB
:100280003C7F0804047800447D40002040443D0049
:100290007F1028440000417F40007C047804787C73
:1002A0000804047838444444387C141414080814AE
:1002B00014147C007C080404485454542004043F63
:1002C00044443C4040207C1C2040201C3C403040AA
:1002D0003C44281028440C5050503C4464544C4436
:1002E000000836414100007F00004141360800020D
:1002F000010204027F7F7F7F7FEA001980200000D7
:10030000000000250028002B000404040404040459
:1003100004020202020202030303030303010204B4
:100320000810204080010204081020010204081077
:100330002000000008000201000003040700000084
:100340000000000000002A0F11241FBECFEFD8E0EC
:10035000DEBFCDBF11E0A0E0B1E0EAE0F7E202C00D
:1003600005900D92AA3AB107D9F723E0AAEAB1E0C5
:1003700001C01D92A434B207E1F711E0C4EAD1E054
:1003800004C02197FE010E947813C33AD107C9F730
:100390000E94800A0C9483130C9400008091FA014F
:1003A00090E02091FB01821B91090895CF92DF928A
:1003B000EF92FF920F931F93CF93DF936C017A011B
:1003C0008B01C0E0D0E0CE15DF0589F0D8016D913A
:1003D0008D01D601ED91FC910190F081E02DC601D7
:1003E0000995892B11F47E0102C02196ECCFC7013B
:1003F000DF91CF911F910F91FF90EF90DF90CF9001
:100400000895FC01538D448D252F30E0842F90E01A
:10041000821B930B541710F0CF96089501970895FF
:10042000FC01918D828D981761F0828DDF01A80FFC
:10043000B11D5D968C91928D9F5F9F73928F90E01E
:1004400008958FEF9FEF0895FC01918D828D98178D
:1004500031F0828DE80FF11D858D90E008958FEFCA
:100460009FEF0895FC01918D228D892F90E0805C93
:100470009F4F821B91098F73992708958CE892E012
:100480000E94320221E0892B09F420E0822F089596
:10049000FC01848DDF01A80FB11DA35ABF4F2C9121
:1004A000848D90E001968F739927848FA689B789F0
:1004B0002C93A089B1898C9180648C93938D848DC9
:1004C000981306C00288F389E02D80818F7D808398
:1004D0000895EF92FF920F931F93CF93DF93EC0158
:1004E00081E0888F9B8D8C8D981305C0E889F989F0
:1004F000808185FD24C0F62E0B8D10E00F5F1F4F0D
:100500000F731127E02E8C8DE8120CC00FB607FC7C
:10051000FACFE889F989808185FFF5CFCE010E9465
:100520004802F1CF8B8DFE01E80FF11DE35AFF4F1A
:10053000F0820B8FEA89FB898081806207C0EE8997
:10054000FF896083E889F98980818064808381E004
:1005500090E0DF91CF911F910F91FF90EF90089560
:10056000CF93DF93EC01888D8823C9F0EA89FB895A
:10057000808185FD05C0A889B9898C9186FD0FC051
:100580000FB607FCF5CF808185FFF2CFA889B98926
:100590008C9185FFEDCFCE010E944802E7CFDF911D
:1005A000CF91089580E090E0892B29F00E943E02CF
:1005B00081110C94000008953FB7F8948091F201E6
:1005C0009091F301A091F401B091F50126B5A89B9B
:1005D00005C02F3F19F00196A11DB11D3FBFBA2FD5
:1005E000A92F982F8827820F911DA11DB11DBC0135
:1005F000CD0143E0660F771F881F991F4A95D1F7F9
:100600000895CF93DF93EC019C818E81981758F465
:10061000E881F9810084F185E02D42E0CE01099561
:100620008C818F5F8C83DF91CF91089585ED8093CE
:10063000BC008091BC0084FDFCCF1092670208953D
:100640004091CC01262F30E0240F311D213231059D
:10065000DCF4209167022430C9F4FC0180E090E0D2
:10066000861758F43091CC012191DC01A655BE4F7C
:10067000A30FB11D2C930196F3CF8091CC01680F8D
:100680006093CC0180E0089581E0089582E00895B0
:100690000895E091FB018091FA01E81730F4F0E051
:1006A000E450FE4F808190E008958FEF9FEF089512
:1006B0009091FB018091FA01981750F4E92FF0E036
:1006C000E450FE4F208130E09F5F9093FB0102C019
:1006D0002FEF3FEFC9010895CF92DF92EF92FF9283
:1006E0000F931F93CF93DF937C01262F972F8A01BF
:1006F00080916802882391F0C62FD72F6E01C40E17
:10070000D51ECC15DD0571F06991D701ED91FC91F5
:100710000190F081E02DC7010995F3CF642F822F5E
:100720000E942003C801DF91CF911F910F91FF908C
:10073000EF90DF90CF900895CF93DF931F92CDB7C6
:10074000DEB76983209168022223D1F020918B02C9
:10075000203240F021E030E0FC013383228380E04E
:1007600090E015C080916902E82FF0E0E659FD4F56
:10077000998190838F5F8093690280938B0205C07B
:1007800061E0CE0101960E94200381E090E00F908D
:10079000DF91CF9108956F927F928F929F92AF9247
:1007A000BF92CF92DF92EF92FF920F931F93CF935E
:1007B000DF936B017C01142F052F97FF0BC0F09482
:1007C000E094D094C094C11CD11CE11CF11C77248E
:1007D000739401C0712CC12FD02F8AE0882E912CE8
:1007E000A12CB12C96EF692EC701B601A501940189
:1007F0000E945913FE01319680E38C0DC82E629E33
:10080000C00C1124C8828E2F811B69017A01C1148A
:10081000D104E104F10411F0EF01E6CF772021F0DB
:1008200031969DE299838F5FA12FB02F3197AE173C
:10083000BF0728F490812C9120839D93F7CFDF91FF
:10084000CF911F910F91FF90EF90DF90CF90BF90CD
:10085000AF909F908F907F906F900895CF92DF928E
:10086000EF92FF926B017C0120E030E0A9010E9431
:100870003B1120E030E040E05FE318162CF4C701A4
:10088000B6010E94700F04C0C701B6010E946F0F2D
:100890000E945310FF90EF90DF90CF90089508953D
:1008A00080E090E008950F931F93CF93DF93EC01C6
:1008B000062F142F8E85813120F4882331F04111C9
:1008C00004C081E00E94FB081E868E85811113C042
:1008D0008D8591E09093680280938A02109269025C
:1008E00010928B02112311F060E401C060E089E2F4
:1008F00093E00E949C03602F89E293E00E949C0396
:10090000123021F48E858F5F8E8704C081E00E94B3
:10091000FB081E86DF91CF911F910F9108950E94D1
:100920007E136115710579F0FB0101900020E9F754
:100930003197AF01461B570BDC01ED91FC91028012
:10094000F381E02D099480E090E0089566E371E082
:100950000C9491041F920F920FB60F9211242F93B3
:100960003F934F935F936F937F938F939F93AF9337
:10097000BF93EF93FF938CE892E00E944802FF91AF
:10098000EF91BF91AF919F918F917F916F915F9107
:100990004F913F912F910F900FBE0F901F90189580
:1009A0001F920F920FB60F9211242F938F939F9344
:1009B000EF93FF93E0919C02F0919D028081E09182
:1009C000A202F091A30282FD12C090818091A50243
:1009D0008F5F8F732091A602821751F0E091A502DC
:1009E000F0E0E457FD4F958F8093A50201C0808110
:1009F000FF91EF919F918F912F910F900FBE0F90CC
:100A00001F9018951F920F920FB60F9211242F93DB
:100A10003F938F939F93AF93BF938091F6019091F3
:100A2000F701A091F801B091F9013091F10126E0B0
:100A3000230F2D3720F40296A11DB11D05C029E812
:100A4000230F0396A11DB11D2093F1018093F601A0
:100A50009093F701A093F801B093F9018091F2010E
:100A60009091F301A091F401B091F5010196A11DBF
:100A7000B11D8093F2019093F301A093F401B09320
:100A8000F501BF91AF919F918F913F912F910F9061
:100A90000FBE0F901F901895DC01ED91FC91008422
:100AA000F185E02D40E009940F931F93CF938C01C3
:100AB000FC0164839085C62FC90F6C2F6F70C8012D
:100AC0000E944C056C2F62956F706061C801CF91D8
:100AD0001F910F910C944C050F931F93CF93DF93AD
:100AE0001F92CDB7DEB78C01FC018681681728F410
:100AF000C80149830E9454054981F8018781869580
:100B000086958695481758F44583642F606BC80115
:100B10000F90DF91CF911F910F910C944C050F9086
:100B2000DF91CF911F910F910895CF92DF92EF92B5
:100B3000FF920F931F93CF93DF93EC01F62EC42EF9
:100B4000D22E8F81869586958695081710F00FEF27
:100B5000080F1D2D011780F0412F6F2DCE010E942F
:100B60006C05EF2CCE1430F060E0CE010E94010342
:100B7000E394F8CF1F5FEECF4D2D6F2DCE01DF91A7
:100B8000CF911F910F91FF90EF90DF90CF900C9439
:100B90006C052F923F924F925F926F927F928F924D
:100BA0009F92AF92BF92CF92DF92EF92FF920F93FC
:100BB0001F93CF93DF93CDB7DEB727970FB6F89487
:100BC000DEBF0FBECDBFDC011B960D911C911C97A3
:100BD0000115110509F462C19F838E83F801B49158
:100BE00031964491319654903196A491EA2EF12C8D
:100BF000F7E0EF0EF11C23E0F594E7942A95E1F776
:100C0000EB82F801349674913196E491671758F0AD
:100C1000862F90E02E2F30E0F901E70FF11D8E179F
:100C20009F070CF473C06D3069F4AE81BF811696D6
:100C30008C91882309F467C060E08E819F810E94B7
:100C4000540561C06A3009F029C1EE81FF818185B8
:100C50006581D62E8E9DD00C112487818695869530
:100C60008695D81630F08285882319F082E0828735
:100C7000D12C4D2D60E08E819F810E946C05AE814C
:100C8000BF811A968C911A97823008F43CC0159651
:100C90002C9115971B96ED91FC911C97309741F084
:100CA0003396E49119960C91E09FE02D112401C038
:100CB000E0E08FEF820F0E2F10E0095F1F4F93E0EF
:100CC000159507959A95E1F7080FEE81FF8146810A
:100CD00041506481CF010E949505AE81BF81199674
:100CE0008C9119976D2D8E9D600D1124660F660FE6
:100CF000660F17968C91861708F460E060648E8109
:100D00009F810E944C0581E090E0CAC050E05B2BBF
:100D1000C8010696671BEE81FF81F185F983423099
:100D2000510588F4452B09F019825E9C90015F9C67
:100D3000300D1124629F8001639F100D1124080F54
:100D4000191F412C24C0EA2FE77021F048E0442EFF
:100D50004E1A01C0412CA82FFC0140E050E07E2F2C
:100D60007A1B761728F47491470F511D3196F7CFEF
:100D7000FC01E60FF11D54904E9D80014F9D100D1A
:100D80005E9D100D1124020F131F080F191FAE8155
:100D9000BF811496BC91BC83EE81FF813580652CA8
:100DA000712CCC24C394D12C812C912C7FEF7C0D01
:100DB0007A838B81781708F05FC0212CAE81BF81C8
:100DC00019968C91281608F051C07A81711102C0D1
:100DD000222051F0AE81BF8115964C9115974F5F3F
:100DE0006C81CD010E946C05A12CB12CA51488F555
:100DF000F501E80DF91DE00FF11F2491442061F089
:100E0000CE14DF0449F4E22FF0E0042C02C0F59583
:100E1000E7950A94E2F72E2FEE81FF8181858230DB
:100E200079F4E22F2110E295EF70F0E0ED5FFE4FD4
:100E30002491622F8E819F812D830E9401032D8139
:100E4000622F8E819F810E940103FFEFAF1ABF0ABC
:100E5000CDCFB12C7981B71639F060E08E819F81BA
:100E60000E940103B394F6CF2394A8CF860C971C5D
:100E7000BFEFCB1ADB0A9ACFAE81BF8117968C9158
:100E80001797869586958695381608F03CCF159667
:100E90003C921597632D606BCD0133CF80E090E0DD
:100EA00027960FB6F894DEBF0FBECDBFDF91CF916E
:100EB0001F910F91FF90EF90DF90CF90BF90AF9078
:100EC0009F908F907F906F905F904F903F902F906A
:100ED00008951F920F920FB60F9211242F933F93F4
:100EE0004F935F936F937F938F939F93AF93BF9332
:100EF000EF93FF938091B900887F803609F49CC0FE
:100F000068F5883209F45BC090F4803109F454C06C
:100F100038F4882309F4F6C0883009F44DC0F6C0CF
:100F2000883109F44CC0803209F45DC0EFC08034D0
:100F300009F468C048F4803309F455C0883309F0D7
:100F4000E5C080936502D8C0803509F44FC088356C
:100F500009F45DC0883409F0D9C0D6C0883909F4D5
:100F6000C7C0A8F4883709F467C038F4883609F494
:100F700063C0803709F460C0C9C0883809F4B8C0BC
:100F8000803909F45FC0803809F0C0C05BC0803B85
:100F900009F486C038F4803A09F466C0883A09F446
:100FA0007FC0B4C0803C09F4A7C0883C09F4A4C049
:100FB000883B09F48AC0AAC08091420210C0909177
:100FC000640280916302981770F5E091640281E0F9
:100FD0008E0F80936402F0E0ED5BFD4F8081809383
:100FE000BB0085EC86C0809365028EC0E0916402F0
:100FF00081E08E0F809364028091BB00F0E0ED5B96
:10100000FD4F808390916402809163026EC0E091F5
:10101000640281E08E0F809364028091BB00F0E057
:10102000ED5BFD4F80838091660281116DC081E090
:101030008093410284EA61C083E08093670210924A
:10104000F001CFCF8091F001803208F051C0E091E3
:10105000F00181E08E0F8093F0018091BB00F0E001
:10106000E053FE4F8083BDCF85EC8093BC0010928F
:1010700067028091F001803230F4E091F001F0E0FD
:10108000E053FE4F10826091F00170E0E091CE01DC
:10109000F091CF0180ED91E009951092F00136C0FA
:1010A00084E0809367021092CD011092CC01E09110
:1010B000CA01F091CB0109958091CC01811105C045
:1010C00081E08093CC011092AA01E091CD0181E0F2
:1010D0008E0F8093CD01F0E0E655FE4F8081809326
:1010E000BB009091CD018091CC01981708F479CF85
:1010F00085E88093BC000AC085EC8093BC00109208
:10110000670204C0109265020E941603FF91EF91DE
:10111000BF91AF919F918F917F916F915F914F910F
:101120003F912F910F900FBE0F901F9018950F9326
:1011300000913C03069506950695015040913B03AE
:10114000415020E060E085E393E00E94950581E056
:1011500090913F03911101C080E080933F0360E4D0
:1011600085E393E00F910C944C0590E0FC01EF5C5B
:10117000FC4F2491FC01E35EFC4F3491FC01E75FDE
:10118000FC4FE491EE23B1F1222339F1233091F0A9
:1011900038F42130A9F0223001F584B58F7D12C0DA
:1011A000273091F02830A1F02430B9F480918000EC
:1011B0008F7D03C0809180008F77809380000DC069
:1011C00084B58F7784BD09C08091B0008F7703C04C
:1011D0008091B0008F7D8093B000F0E0EE0FFF1F94
:1011E000E150FD4FA591B4918FB7F894EC913E2B4F
:1011F0003C938FBF0895382F20918B0290918A02E3
:10120000213208F049C0809167028111FCCF42E091
:1012100040936702309366023FEF3093650210926D
:10122000640220936302AAE6B2E043E452E0FA01CA
:101230003E2F341B321718F43D913193F9CF1092A1
:10124000420220914202990F922B90934202909178
:101250004102913061F410924102909142029093C8
:10126000BB009091BC0093FDF8CF95EC01C095EECA
:101270009093BC00909167029230E1F390916502E7
:101280009F3F79F080916502803241F08091650244
:10129000803331F084E005C081E003C082E001C00A
:1012A00083E01092690210928B02109268020895F6
:1012B000CF93DF93BC0185E393E00E949104EC019E
:1012C00085E393E00E94A6048C0F9D1FDF91CF91D0
:1012D0000895E0918C02F0918D020190F081E02D53
:1012E000682F8CE892E009948F929F92AF92BF9200
:1012F0000F931F93CF93DF93CDB7DEB7A1970FB6B0
:10130000F894DEBF0FBECDBF19A2423008F44AE008
:101310008E010F5D1F4F842E912CA12CB12CA501A5
:1013200094010E943713E62FB901CA010150110937
:10133000EA3014F4E05D01C0E95CD801EC93232BA2
:10134000242B252B61F7B8018CE892E00E949104D0
:10135000A1960FB6F894DEBF0FBECDBFDF91CF913F
:101360001F910F91BF90AF909F908F9008954F92D3
:101370005F926F927F928F929F92AF92BF92CF9225
:10138000DF92EF92FF926B017C019B01AC010E9406
:10139000FD11882319F06EE971E01AC0460157016A
:1013A000E894B7F82FEF3FEF4FE75FE7C501B401CF
:1013B0000E94FD11811112C02FEF3FEF4FE75FE751
:1013C000C501B4010E94DC0F181644F462EA71E012
:1013D0008CE892E00E9491047C017FC02FEF3FEFE8
:1013E0004FE75FE4C701B6010E943B1118161CF4D9
:1013F00066EA71E0EDCF2FEF3FEF4FE75FECC701FB
:10140000B6010E94DC0F87FDF3CF20E030E0A90198
:10141000C701B6010E94DC0F87FF09C08DE20E9460
:1014200069095C01F7FAF094F7F8F09402C0A12C76
:10143000B12C2AE037ED43EA5BE3C701B6010E9415
:10144000700F2B013C010E945A106B017C010E941D
:1014500089109B01AC01C301B2010E946F0F2B01E7
:101460003C014AE0C701B6010E9474097C01EA0C04
:10147000FB1C8EE20E946909E80EF91E20E030E0B4
:1014800040E251E4C301B2010E9440112B013C0132
:101490000E945A104B01A12CB12C4AE0C501B401A5
:1014A0000E947409E80EF91EC501B4010E9489105A
:1014B0009B01AC01C301B2010E946F0F20E030E03C
:1014C00040E251E40E9440110E945A1080E090E0F6
:1014D0004AE00E947409E80EF91E8CE892E00E942E
:1014E000A6048E0D9F1DFF90EF90DF90CF90BF90D0
:1014F000AF909F908F907F906F905F904F900895E6
:10150000CF93DF93CDB7DEB7A9970FB6F894DEBFC0
:101510000FBECDBF789484B5826084BD84B58160F0
:1015200084BD85B5826085BD85B5816085BD8091AE
:101530006E00816080936E00109281008091810026
:10154000826080938100809181008160809381001E
:10155000809180008160809380008091B1008460E0
:101560008093B1008091B00081608093B000809141
:101570007A00846080937A0080917A008260809300
:101580007A0080917A008E7F80937A0080917A0031
:10159000806880937A001092C100E0919C02F091E3
:1015A0009D0282E08083E0919802F091990210827E
:1015B000E0919A02F0919B0288E080831092A4024D
:1015C000E091A002F091A10286E08083E0919E026A
:1015D000F0919F02808180618083E0919E02F09172
:1015E0009F02808188608083E0919E02F0919F023B
:1015F000808180688083E0919E02F0919F028081CB
:101600008F7D80831092FB011092FA011092690283
:1016100010928B021092670281E080936602109212
:10162000410282E10E94B50883E10E94B5088091E1
:10163000B9008E7F8093B9008091B9008D7F80932F
:10164000B90080E28093B80085E48093BC001092DA
:1016500043038CE3809342031092390310923A03C0
:10166000E9EFF2E085919491E82EEBEFF2E0F4904F
:10167000ECEFF2E0E491E0933B03EDEFF2E0E49174
:10168000E0933C03EEEFF2E0E491E0933D038C0144
:10169000802F8E198F1548F4F801649185E393E04B
:1016A0000E944C050F5F1F4FF3CF10923F030E9423
:1016B000970883E191E090934103809340030E9457
:1016C000970882E080933E03BB24B3948E010F5FA2
:1016D0001F4F4CEF842E41E0942E5AE0A52EA00E11
:1016E0002FB7F8948091F6019091F701A091F8013D
:1016F000B091F9012FBF80933D0290933E02A093D9
:101700003F02B09340028CE892E00E943202892BA3
:1017100039F1F0903C02FFE08CE892E0FF1550F0C8
:101720000E941002E6E1F0E0EC0FFD1FEF0DF11D4D
:10173000808302C00E941002F394F0923C028091D8
:101740003D0290913E02A0913F02B09140028093F1
:10175000380290933902A0933A02B0933B02D3CF60
:1017600080913D0290913E02A0913F02B0914002D3
:10177000409138025091390260913A0270913B02D7
:101780006C017D01C41AD50AE60AF70AB701A60161
:10179000453651056105710508F40DC120913C02E3
:1017A000203109F006C18093340290933502A09352
:1017B0003602B09337028E899F89A88DB98D8093A8
:1017C000300290933102A0933202B09333028A8D9B
:1017D0009B8DAC8DBD8D80932C0290932D02A09398
:1017E0002E02B0932F028E8D9F8DA8A1B9A1809358
:1017F000280290932902A0932A02B0932B028AA177
:101800009BA1ACA1BDA18093240290932502A0933B
:101810002602B093270269E371E08CE892E00E940F
:101820009104609130027091310280913202909166
:1018300033020E948B1020E030E048EC52E40E941A
:10184000E10F0E94B70963E471E08CE892E00E9426
:10185000910460912C0270912D0280912E02909142
:101860002F020E94891020E030E04AE754E40E94F1
:10187000E10F0E94B7096DE471E08CE892E00E94EC
:101880009104609128027091290280912A0290911E
:101890002B020E94891020E030E048EC52E40E94C4
:1018A000E10F0E94B70967E571E08CE892E00E94C1
:1018B00091046091240270912502809126029091FA
:1018C00027024AE00E9474098CE892E00E94A60474
:1018D00061E671E08CE892E00E9491046091300230
:1018E0007091310280913202909133020E948B10EC
:1018F0002AE037ED43E25CE30E94401123E333E941
:1019000048E853E40E94700F20E932EC4DE750E4C0
:101910000E94700F9B01AC0160E972EC8DE790E4CE
:101920000E94E10F9B01AC0160E070E080E89FE362
:101930000E946F0F28E539E348EA50EC0E94AD1190
:101940009B01AC01609128027091290280912A02CA
:1019500090912B022EA33FA348A759A70E9489105C
:101960002EA13FA148A559A50E94401120E030E0DA
:1019700048EC52E40E94E10F0E942E042B013C012E
:1019800097FF0CC08DE20E94690966277727CB017B
:1019900064197509860997094AE001C04AE00E9466
:1019A00074098CE892E00E94A6048CE892E00E9400
:1019B000A60410923C022FB7F8948091F601909102
:1019C000F701A091F801B091F9012FBF80933D027A
:1019D00090933E02A0933F02B093400240910001D9
:1019E0005091010160910201709103016C017D0130
:1019F000C41AD50AE60AF70A21E1C21627E2D2067E
:101A0000E104F10408F42EC18093000190930101D8
:101A1000A0930201B093030140E060E085E393E00E
:101A20000E946C051982B092680284E480938A0255
:101A30001092690210928B0264E289E293E00E94A4
:101A40009C0341E050E0B80189E293E00E946C03FE
:101A500081E00E94FB08882309F407C18BE691E02E
:101A600046C01D8A20E030E040E251E4609120024F
:101A70007091210280912202909123020E944011D4
:101A80000E942E042B013C01A8010E94CB03282FA9
:101A900030E0813009F0D0C1F9013197E00FF11F3A
:101AA0008081A2E0B0E0AC0FBD1FA20FB31F8C93EA
:101AB00080E38083F801E20FF31F8EE28083609160
:101AC0001C0270911D0280911E0290911F020E94C3
:101AD0002E04AE01495F5F4F0E94CB03E7E0F0E0C8
:101AE000EC0FFD1FE80FF11D85E28083C8010E9405
:101AF000580940913402509135026091360270913C
:101B0000370280913D0290913E02A0913F02B09138
:101B10004002841B950BA60BB70B89329342A1059B
:101B2000B10520F4452B462B472B19F486E791E0AD
:101B300073C08091280290912902A0912A02B0914D
:101B40002B02892B8A2B8B2B19F0F80180E203C022
:101B500081E891E061C0AE1611F08193FCCF1D8A3F
:101B60006091300270913102809132029091330283
:101B70000E948B1020E030E040E251E40E94E10F2F
:101B80000E942E042B013C01A8010E94CB03282FA8
:101B900030E0813021F08230A1F477FE12C0F901EB
:101BA0003197E00FF11F8081A2E0B0E0AC0FBD1FC4
:101BB000A20FB31F8C9380E38083F801E20FF31F21
:101BC00009C0F9013197E00FF11F8081D801A20F00
:101BD000B31F8C938EE2808360912C0270912D0252
:101BE00080912E0290912F020E94891020E030E017
:101BF0004AE754E40E94E10F0E942E04AE01495FBF
:101C00005F4F0E94CB03E7E0F0E0EC0FFD1FE80F11
:101C1000F11D85E28083C8010E9458096CE871E0DB
:101C20008CE892E00E949104609120027091210260
:101C300080912202909123020E94B70965E971E028
:101C40008CE892E00E94910460911C0270911D0248
:101C500080911E0290911F020E94B7098CE892E0C9
:101C60000E94A6040E94D2023BCD0E94DC026B01BE
:101C70007C0180E1482E512C612C712C0E94DC02E9
:101C8000DC01CB018C199D09AE09BF09883E934048
:101C9000A105B10558F081E0481A510861087108A2
:101CA00098EEC90E93E0D91EE11CF11C41145104B9
:101CB0006104710419F7B092680284E480938A0287
:101CC0001092690210928B0260E089E293E00E9418
:101CD0009C0381E00E94FB08909167029111FCCF68
:101CE000B0926702B09266029FEF909365021092E5
:101CF000640295E090936302B09242029091420296
:101D000098689093420290914102913061F4109250
:101D10004102909142029093BB009091BC0093FDD0
:101D2000F8CF95EC01C095EE9093BC0090916702BE
:101D30009130E1F390916402963018F4F0906402CF
:101D400002C036E0F32EA3E4B2E0ECEFF1E09E2F08
:101D500098199F1518F49D919193F9CF1092FB015A
:101D6000F092FA01F6E0FF1203C0EE24E394811131
:101D7000E12C3801862D801B8F1588F4863038F4CD
:101D800089E293E00E945803F301808304C089E252
:101D900093E00E945803FFEF6F1A7F0AEBCFEE200B
:101DA00009F45CCE698170E0762F6627EC80F12C17
:101DB000FE2CEE248D81E82A8A81682B80E090E059
:101DC0000E94891020E030E04FE253E40E9440116D
:101DD00020E03FEF4FE757E40E94E10F20E030E0C2
:101DE00044E352E40E946F0F60932002709321023B
:101DF0008093220290932302B70180E090E00E943A
:101E0000891020E030E048EC52E40E94401120E0CC
:101E10003FEF4FE757E40E94E10F60931C0270937D
:101E20001D0280931E0290931F02F80180E2AE16FD
:101E300009F417CE8193FBCF823011F477FC2CCEBE
:101E4000F9013197E00FF11F8081D801A20FB31F74
:101E50008C9333CEECE8F2E01382128288EE93E0AA
:101E6000A0E0B0E084839583A683B78328E031E0C7
:101E70003183208325EC30E03587248724EC30E063
:101E80003787268720EC30E0318B208B21EC30E047
:101E9000338B228B22EC30E0358B248B26EC30E028
:101EA000378B268B118E128E138E148EE9E2F3E09F
:101EB0001382128284839583A683B7838AE191E09B
:101EC00091838083E5E3F3E01382128281E08187CE
:101ED000148613868CE291E0918380830895505894
:101EE000BB27AA270E94870F0C9401110E94F310B0
:101EF00038F00E94FA1020F039F49F3F19F426F4CC
:101F00000C94F0100EF4E095E7FB0C94EA10E92F26
:101F10000E94121158F3BA176207730784079507D6
:101F200020F079F4A6F50C9434110EF4E0950B2E04
:101F3000BA2FA02D0B01B90190010C01CA01A0011B
:101F40001124FF27591B99F0593F50F4503E68F176
:101F50001A16F040A22F232F342F4427585FF3CFB7
:101F6000469537952795A795F0405395C9F77EF488
:101F70001F16BA0B620B730B840BBAF09150A1F0D1
:101F8000FF0FBB1F661F771F881FC2F70EC0BA0F57
:101F9000621F731F841F48F4879577956795B795DF
:101FA000F7959E3F08F0B0CF9395880F08F09927DA
:101FB000EE0F9795879508950E94C61008F481E06A
:101FC00008950E94F50F0C9401110E94FA1058F028
:101FD0000E94F31040F029F45F3F29F00C94EA10BE
:101FE00051110C9435110C94F0100E94121168F3E9
:101FF0009923B1F3552391F3951B550BBB27AA27C2
:1020000062177307840738F09F5F5F4F220F331FFB
:10201000441FAA1FA9F335D00E2E3AF0E0E832D0C3
:1020200091505040E695001CCAF72BD0FE2F29D0C6
:10203000660F771F881FBB1F261737074807AB0798
:10204000B0E809F0BB0B802DBF01FF2793585F4F0D
:102050003AF09E3F510578F00C94EA100C9435113B
:102060005F3FE4F3983ED4F3869577956795B795EF
:10207000F7959F5FC9F7880F911D9695879597F9FA
:102080000895E1E0660F771F881FBB1F6217730773
:102090008407BA0720F0621B730B840BBA0BEE1F88
:1020A00088F7E09508950E945A106894B1110C9435
:1020B000351108950E941A1188F09F5798F0B92F92
:1020C0009927B751B0F0E1F0660F771F881F991F6D
:1020D0001AF0BA95C9F714C0B13091F00E943411CA
:1020E000B1E008950C943411672F782F8827B85FDA
:1020F00039F0B93FCCF3869577956795B395D9F7C5
:102100003EF490958095709561957F4F8F4F9F4FCE
:102110000895E89409C097FB3EF4909580957095DA
:1021200061957F4F8F4F9F4F9923A9F0F92F96E923
:10213000BB279395F695879577956795B795F11198
:10214000F8CFFAF4BB0F11F460FF1BC06F5F7F4F35
:102150008F4F9F4F16C0882311F096E911C0772347
:1021600021F09EE8872F762F05C0662371F096E850
:10217000862F70E060E02AF09A95660F771F881F1F
:10218000DAF7880F9695879597F90895990F0008C3
:10219000550FAA0BE0E8FEEF16161706E807F90739
:1021A000C0F012161306E407F50798F0621B730BD4
:1021B000840B950B39F40A2661F0232B242B252B55
:1021C00021F408950A2609F4A140A6958FEF811DF8
:1021D000811D089597F99F6780E870E060E0089599
:1021E0009FEF80EC089500240A941616170618062F
:1021F0000906089500240A9412161306140605060B
:102200000895092E0394000C11F4882352F0BB0F9B
:1022100040F4BF2B11F460FF04C06F5F7F4F8F4FFE
:102220009F4F089557FD9058440F551F59F05F3F39
:1022300071F04795880F97FB991F61F09F3F79F0E8
:1022400087950895121613061406551FF2CF46956A
:10225000F1DF08C0161617061806991FF1CF8695EC
:102260007105610508940895E894BB2766277727D0
:10227000CB0197F908950E94C61008F48FEF0895D6
:102280000E9453110C9401110E94F31038F00E9427
:10229000FA1020F0952311F00C94EA100C94F01031
:1022A00011240C9435110E94121170F3959FC1F303
:1022B000950F50E0551F629FF001729FBB27F00DF4
:1022C000B11D639FAA27F00DB11DAA1F649F662749
:1022D000B00DA11D661F829F2227B00DA11D621F98
:1022E000739FB00DA11D621F839FA00D611D221F52
:1022F000749F3327A00D611D231F849F600D211D36
:10230000822F762F6A2F11249F5750409AF0F1F0B8
:1023100088234AF0EE0FFF1FBB1F661F771F881F21
:1023200091505040A9F79E3F510580F00C94EA105F
:102330000C9435115F3FE4F3983ED4F3869577957E
:102340006795B795F795E7959F5FC1F7FE2B880FC7
:10235000911D9695879597F90895FA01EE0FFF1F45
:10236000309621053105A1F16115710561F48038C0
:10237000BFE39B0749F168949038810561F080388C
:10238000BFEF9B0741F099234AF5FF3FE105310577
:10239000210519F1E8940894E795D901AA2329F4B5
:1023A000AB2FBE2FF85FD0F310C0FF5F70F4A6957F
:1023B000E0F7F73950F019F0FF3A38F49F779F9320
:1023C0000DD00F9007FC9058089546F00C94F01033
:1023D00060E070E080E89FE308954FE79F775F93A8
:1023E0004F933F932F930E94AD122F913F914F91A6
:1023F0005F910E9440110C940A120E94C610880B33
:10240000990B089529F416F00C94EA100C943411E9
:102410000C94F0100E941A11A8F39638A0F707F850
:102420000F92E8942BE33AEA48EB5FE70E945611DB
:102430000F920F920F924DB75EB70F920E94F51256
:10244000E8E6F0E00E943C124F915F91EF91FF911E
:10245000E595EE1FFF1F49F0FE57E0684427EE0F99
:10246000441FFA95E1F74195550B0E946F120F90AA
:1024700007FE0C9463120895DF93CF931F930F937D
:10248000FF92EF92DF927B018C01689406C0DA2EF6
:10249000EF010E945311FE01E894A5912591359119
:1024A00045915591A6F3EF010E94870FFE01970118
:1024B000A801DA9469F7DF90EF90FF900F911F91D8
:1024C000CF91DF9108959B01AC0160E070E080E85E
:1024D0009FE30C94E10F0C94EA100C9429130E94D2
:1024E0001A11D8F39923C9F3940F511DA3F39150F6
:1024F000504094F059F0882332F0660F771F881F00
:1025000091505040C1F79E3F51052CF7880F911D07
:102510009695879597F908955F3FACF0983E9CF0AB
:10252000BB27869577956795B79508F4B160939525
:10253000C1F7BB0F58F711F460FFE8CF6F5F7F4F13
:102540008F4F9F4FE3CF0C94351116F00C94291345
:102550000C94F01068940C94EA100E941A11A8F3DD
:102560009923C1F3AEF3DF93CF931F930F93FF92A1
:10257000C92FDD2788232AF02197660F771F881F30
:10258000DAF720E030E040E85FEB9FE3883920F0A5
:10259000803E38F021968F770E94700FE0E9F0E0DE
:1025A00004C00E94700FEDEBF0E00E943C128B0122
:1025B000BE01EC01FB2E6F5771097595771F880BD3
:1025C000990B0E948B1028E132E741E35FE30E9400
:1025D0005311AF2D9801AE01FF900F911F91CF9134
:1025E000DF910E94870F0C940111FA01DC01AA0F00
:1025F000BB1F9B01AC01BF5728F422273327442778
:10260000507820C0B75190F4AB2F002446953795F1
:102610002795011CA395D2F3002071F0220F331FE0
:10262000441FB395DAF30ED00C946F0F613071052F
:10263000A0E88A07B94630F49B01AC0166277727EA
:1026400088279078309621F020833183428353830A
:1026500008959F3F31F0915020F4879577956795C5
:10266000B795880F911D9695879597F90895A1E2E2
:102670001A2EAA1BBB1BFD010DC0AA1FBB1FEE1FFC
:10268000FF1FA217B307E407F50720F0A21BB30B47
:10269000E40BF50B661F771F881F991F1A9469F7C3
:1026A00060957095809590959B01AC01BD01CF011F
:1026B0000895052E97FB1EF400940E94701357FD99
:1026C00007D00E94371307FC03D04EF40C9470130C
:1026D00050954095309521953F4F4F4F5F4F08954E
:1026E00090958095709561957F4F8F4F9F4F08957E
:1026F000EE0FFF1F0590F491E02D099481E090E02A
:0A270000F8940C948313F894FFCFB3
:10270A00F82A0000000000006902D6010102B002A6
:10271A00320210022402000000009C036C035004E1
:10272A004803CE015803490300000000C905D60139
:10273A0050044F0453040D0A005B4F55545D205456
:10274A003A20005B4F55545D20483A20005B4F55B4
:10275A00545D20503A20005B4F55545D20563A2074
:10276A00005B4F55545D20533A2000494E204641A4
:10277A00494C202020004F5554204E4F20434F4DA6
:10278A00004F5554204641494C2020005B494E5D7C
:10279A0020543A20005B494E5D20483A20006E6181
:0A27AA006E00696E66006F7666002F
:107800000C94343C0C94513C0C94513C0C94513CE1
:107810000C94513C0C94513C0C94513C0C94513CB4
:107820000C94513C0C94513C0C94513C0C94513CA4
:107830000C94513C0C94513C0C94513C0C94513C94
:107840000C94513C0C94513C0C94513C0C94513C84
:107850000C94513C0C94513C0C94513C0C94513C74
:107860000C94513C0C94513C11241FBECFEFD8E036
:10787000DEBFCDBF11E0A0E0B1E0EAE8FFE702C063
:1078800005900D92A230B107D9F712E0A2E0B1E065
:1078900001C01D92AD30B107E1F70E942D3D0C945F
:1078A000C33F0C94003C982F95959595959595958B
:1078B000905D8F708A307CF0282F295A8091C0000B
:1078C00085FFFCCF9093C6008091C00085FFFCCF60
:1078D0002093C6000895282F205DF0CF982F809127
:1078E000C00085FFFCCF9093C6000895EF92FF92F1
:1078F0000F931F93EE24FF2487018091C00087FD22
:1079000017C00894E11CF11C011D111D81E2E8164D
:1079100081EAF80687E0080780E0180770F3E09135
:107920000401F091050109958091C00087FFE9CF1E
:107930008091C6001F910F91FF90EF9008950E94D3
:10794000763C982F8091C00085FFFCCF9093C600B5
:1079500091362CF490330CF09053892F089597555D
:10796000892F08951F930E949F3C182F0E949F3CCF
:107970001295107F810F1F9108951F93182F882350
:1079800021F00E94763C1150E1F71F9108951F935A
:10799000182F0E94763C803249F0809103018F5F5E
:1079A000809303018530C1F01F9108958091C0003C
:1079B00085FFFCCF84E18093C6008091C00085FFE5
:1079C000FCCF1093C6008091C00085FFFCCF80E102
:1079D0008093C6001F910895E0910401F091050184
:1079E00009951F9108950E94763C803241F0809164
:1079F00003018F5F80930301853081F008958091AA
:107A0000C00085FFFCCF84E18093C6008091C00058
:107A100085FFFCCF80E18093C6000895E0910401CA
:107A2000F09105010995089548EC50E08823A1F0F4
:107A30002D9A28EE33E0FA013197F1F721503040CA
:107A4000D1F72D9828EE33E0FA013197F1F7215064
:107A50003040D1F7815061F708953F924F925F9285
:107A60006F927F928F929F92AF92BF92CF92DF924E
:107A7000EF92FF920F931F93CF93DF93000082E06A
:107A80008093C00080E18093C4001092C50088E11B
:107A90008093C10086E08093C2005098589A259A3E
:107AA00081E00E94143D24E1F22E9EE1E92E85E959
:107AB000D82E0FE0C02E10E1B12EAA24A394B1E479
:107AC0009B2EA6E58A2EF2E57F2EE0E26E2E79E46B
:107AD000572E63E5462E50E5352E0E94763C8033C6
:107AE000B1F18133B9F1803409F46FC0813409F404
:107AF00076C0823409F485C0853409F488C08035A5
:107B000031F1823521F1813511F1853509F485C0D6
:107B1000863509F48DC0843609F496C0843709F49B
:107B200003C1853709F472C1863709F466C08091B4
:107B300003018F5F80930301853079F6E0910401A2
:107B4000F091050109950E94763C803351F60E9420
:107B5000F33CC3CF0E94763C803249F78091C0004D
:107B600085FFFCCFF092C6008091C00085FFFCCF5E
:107B70009092C6008091C00085FFFCCF8092C60025
:107B80008091C00085FFFCCF7092C6008091C0003C
:107B900085FFFCCF6092C6008091C00085FFFCCFBE
:107BA0005092C6008091C00085FFFCCF4092C60075
:107BB0008091C00085FFFCCF3092C6008091C0004C
:107BC00085FFFCCFB092C60088CF0E94763C8638F5
:107BD00008F4BDCF0E94763C0E94F33C7ECF0E9409
:107BE000763C803809F49CC0813809F40BC1823896
:107BF00009F430C1883909F48FC080E00E94C73C85
:107C00006CCF84E10E94BD3C0E94F33C66CF85E0CE
:107C10000E94BD3C0E94F33C60CF0E94763C809362
:107C200006010E94763C809307010E94F33C55CFE9
:107C30000E94763C803309F411C183E00E94BD3C70
:107C400080E00E94C73C49CF0E94763C80930902A5
:107C50000E94763C8093080280910C028E7F809374
:107C60000C020E94763C853409F409C18091080217
:107C700090910902892B89F000E010E00E94763C87
:107C8000F801E85FFE4F80830F5F1F4F809108026D
:107C9000909109020817190788F30E94763C8032F8
:107CA00009F045CF80910C0280FFF5C0609106017C
:107CB00070910701660F771F7093070160930601AB
:107CC000A0910802B09109021097C9F0E8E0F1E034
:107CD0009B01AD014E0F5F1FF999FECF32BD21BD53
:107CE000819180BDFA9AF99A2F5F3F4FE417F5070B
:107CF00099F76A0F7B1F70930701609306018091CB
:107D0000C00085FFFCCFF092C6008091C00085FFC7
:107D1000FCCFB092C600E1CE83E00E94C73CDDCE2E
:107D200082E00E94C73CD9CE0E94763C8093090233
:107D30000E94763C80930802809106019091070191
:107D4000880F991F90930701809306010E94763C4B
:107D5000853409F49AC080910C028E7F80930C02C6
:107D60000E94763C803209F0B8CE8091C00085FF39
:107D7000FCCFF092C600A0910802B09109021097C2
:107D8000C1F180910C02082F0170182F1695117007
:107D9000E0910601F0910701AF014F5F5F4FBA011B
:107DA00020E030E00023B1F4112339F49491809164
:107DB000C00085FFFCCF9093C6002F5F3F4FCB01E3
:107DC0000196FA012A173B0780F4BC014F5F5F4F11
:107DD000002351F3F999FECFF2BDE1BDF89A90B5B9
:107DE0008091C00085FFFCCFE6CF709307016093C0
:107DF00006018091C00085FDE5CE8091C00085FF21
:107E0000F8CFE0CE81E00E94C73C67CE0E94763C6E
:107E1000803209F08CCE8091C00085FFFCCFF092BB
:107E2000C6008091C00085FFFCCFE092C600809123
:107E3000C00085FFFCCFD092C6008091C00085FFB6
:107E4000FCCFC092C6008091C00085FFFCCFB092ED
:107E5000C60043CE80E10E94C73C3FCE0E94763CE4
:107E60000E94763C182F0E94763C112309F483C0AF
:107E7000113009F484C08FE00E94C73C2ECE80915F
:107E80000C02816080930C02F1CE80910C02816023
:107E900080930C0265CF809107018823880F880B9F
:107EA0008A2180930B028091060190910701880F2F
:107EB000991F90930701809306018091080280FF2B
:107EC00009C08091080290910902019690930902DD
:107ED00080930802F894F999FECF1127E0910601EA
:107EE000F0910701C8E0D1E0809108029091090269
:107EF000103091F40091570001700130D9F303E084
:107F000000935700E8950091570001700130D9F3B4
:107F100001E100935700E8950990199000915700EE
:107F200001700130D9F301E000935700E8951395F3
:107F3000103498F011270091570001700130D9F3E7
:107F400005E000935700E89500915700017001305B
:107F5000D9F301E100935700E8953296029709F0B2
:107F6000C7CF103011F00296E5CF11248091C000E8
:107F700085FFC5CEC8CE8EE10E94C73CAECD85E957
:0A7F80000E94C73CAACDF894FFCF81
:027F8A00800075
:040000030000780081
:00000001FF
