:100000000C9468010C9490010C9490010C94900154
:100010000C9490010C9490010C9490010C9490011C
:100020000C9490010C9490010C9490010C9490010C
:100030000C9490010C9490010C9490010C949001FC
:100040000C9426060C9490010C9490010C94900151
:100050000C9490010C9490010C9490010C949001DC
:100060000C9470060C949001AED580A81FD300406C
:100070008D142002A1C8DA02817FD9F1DB40A4A649
:10008000AF00030C0F30333C3FC0C3CCCFF0F3FCC8
:10009000FF00000008000201000003040700000048
:1000A00000000000000000050720600000000000C4
:1000B00000005F00000003000300143E143E1424FF
:1000C0002A7F2A12433308666136495522500005BB
:1000D000030000001C2241000041221C0014083EC5
:1000E000081408083E0808005030000008080808F6
:1000F00008006060000020100804023E5149453E9F
:100100000004027F004261514946224149493618A4
:1001100014127F1027454545393E494949320101AE
:100120007109073649494936264949493E0036365C
:100130000000005636000008142241001414141464
:1001400014004122140802015109063E4159555E2E
:100150007E0909097E7F494949363E414141227F56
:100160004141413E7F494949417F090909013E41D9
:1001700041493A7F0808087F00417F4100304040F4
:10018000403F7F081422417F404040407F020C02E4
:100190007F7F0204087F3E4141413E7F09090906F5
:1001A0001E2121215E7F090909762649494932012C
:1001B000017F01013F4040403F1F2040201F7F2022
:1001C00010207F41221C2241070870080761514915
:1001D0004543007F41000002040810200000417FD9
:1001E00000040201020440404040400001020400BB
:1001F00020545454787F4444443838444444443868
:100200004444447F385454541804047E050508546B
:1002100054543C7F0804047800447D40002040444E
:100220003D007F1028440000417F40007C0478049A
:10023000787C0804047838444444387C1414140846
:10024000081414147C007C080404485454542004FA
:10025000043F44443C4040207C1C2040201C3C4047
:1002600030403C44281028440C5050503C446454C6
:100270004C44000836414100007F000041413608EF
:100280000002010204027F7F7F7F7F6800198020C7
:100290000000000000250028002B000000000024C2
:1002A0000027002A000404040404040404020202D7
:1002B00002020203030303030301020408102040A7
:1002C00080010204081020010204081020009E078B
:1002D00011241FBECFEFD8E0DEBFCDBF11E0A0E0FC
:1002E000B1E0E6E6F2E102C005900D92A632B10758
:1002F000D9F721E0A6E2B1E001C01D92AD3DB20701
:10030000E1F711E0C8E6D1E004C02197FE010E94A8
:100310002609C736D107C9F70E94BB070C943109DB
:100320000C94000090E0FC01E754FD4F2491FC0187
:10033000EB55FD4F8491882399F090E0880F991F29
:10034000FC01E556FD4FA591B491FC01EF56FD4F20
:10035000859194918FB7F894EC91E22BEC938FBF39
:10036000089583E480937C0080917A008064809378
:100370007A0080917A0086FDFCCF809178002091F0
:10038000790090E0922B08952091C1019091C001D5
:10039000213208F04AC080919D018111FCCF32E0EA
:1003A00030939D0131E030939C013FEF30939B01EE
:1003B00010929A0120939901A0EAB1E049E751E037
:1003C000FA013E2F341B321718F43D913193F9CFC7
:1003D0001092780120917801990F922B90937801D7
:1003E00090917701913061F41092770190917801AA
:1003F0009093BB009091BC0093FDF8CF95EC01C0A9
:1004000095EE9093BC0090919D019230E1F3909114
:100410009B019F3F79F080919B01803241F0809158
:100420009B01803331F084E005C081E003C082E0AD
:1004300001C083E010929F011092C10110929E01B1
:100440000895CF92DF92EF92FF920F931F93CF9375
:10045000DF936C017A018B01C0E0D0E0CE15DF059F
:1004600089F0D8016D918D01D601ED91FC9101903B
:10047000F081E02DC6010995892B11F47E0102C09F
:100480002196ECCFC701DF91CF911F910F91FF9083
:10049000EF90DF90CF90089590E0FC01EF56FF4F72
:1004A0003491FC01E754FD4F2491FC01EB55FD4FC5
:1004B000E491EE2309F43BC0332339F1333091F05A
:1004C00038F43130A9F0323001F584B58F7D12C097
:1004D000373091F03830A1F03430B9F48091800099
:1004E0008F7D03C0809180008F77809380000DC046
:1004F00084B58F7784BD09C08091B0008F7703C029
:100500008091B0008F7D8093B000F0E0EE0FFF1F70
:10051000EF56FD4FA591B4918FB7F894EC9161110E
:1005200003C020952E2301C02E2B2C938FBF08953E
:100530003FB7F8948091730190917401A091750177
:10054000B091760126B5A89B05C02F3F19F0019602
:10055000A11DB11D3FBFBA2FA92F982F8827820F49
:10056000911DA11DB11DBC01CD0143E0660F771F98
:10057000881F991F4A95D1F708958F929F92AF9245
:10058000BF92CF92DF92EF92FF926B017C010E94AB
:1005900098024B015C01C114D104E104F104F1F0B3
:1005A0000E949802DC01CB0188199909AA09BB09AC
:1005B000883E9340A105B10570F321E0C21AD1082D
:1005C000E108F10888EE880E83E0981EA11CB11C9A
:1005D000C114D104E104F10419F7DDCFFF90EF90CD
:1005E000DF90CF90BF90AF909F908F90089585ED52
:1005F0008093BC008091BC0084FDFCCF10929D01D3
:10060000089540914901262F30E0240F311D2132F9
:100610003105DCF420919D012430C9F4FC0180E017
:1006200090E0861758F4309149012191DC01A95DD1
:10063000BE4FA30FB11D2C930196F3CF80914901BA
:10064000680F6093490180E0089581E0089582E099
:10065000089508958FEF9FEF08958FEF9FEF08950E
:100660008091260190E09195819591090895CF920E
:10067000DF92EF92FF920F931F93CF93DF937C0152
:10068000262F972F8A0180919E01882391F0C62FF3
:10069000D72F6E01C40ED51ECC15DD0571F0699102
:1006A000D701ED91FC910190F081E02DC7010995F2
:1006B000F3CF642F822F0E940103C801DF91CF91F5
:1006C0001F910F91FF90EF90DF90CF900895CF93FF
:1006D000DF931F92CDB7DEB7698320919E0122235D
:1006E000D1F02091C101203240F021E030E0FC0146
:1006F0003383228380E090E015C080919F01E82F32
:10070000F0E0E056FE4F998190838F5F80939F01C8
:100710008093C10105C061E0CE0101960E940103F2
:1007200081E090E00F90DF91CF910895CF93DF9318
:10073000EC019C818E81981758F4E881F98100843E
:10074000F185E02D42E0CE0109958C818F5F8C838D
:10075000DF91CF910895DC01ED91FC910084F1854A
:10076000E02D40E009940F931F93CF938C01FC017F
:1007700064839085C62FC90F6C2F6F70C8010E94CB
:10078000AB036C2F62956F706061C801CF911F91B0
:100790000F910C94AB030F931F93CF93DF931F9292
:1007A000CDB7DEB78C01FC018681681728F4C8013B
:1007B00049830E94B3034981F80187818695869514
:1007C0008695481758F44583642F606BC8010F90D5
:1007D000DF91CF911F910F910C94AB030F90DF919C
:1007E000CF911F910F910895CF92DF92EF92FF92D8
:1007F0000F931F93CF93DF93EC01F62EC42ED22ECE
:100800008F81869586958695081710F00FEF080F53
:100810001D2D011780F0412F6F2DCE010E94CB03BB
:10082000EF2CCE1430F060E0CE010E949603E394EA
:10083000F8CF1F5FEECF4D2D6F2DCE01DF91CF9101
:100840001F910F91FF90EF90DF90CF900C94CB030E
:100850000F930091D501069506950695015040919C
:10086000D401415020E060E08EEC91E00E94F4035E
:1008700081E09091D801911101C080E08093D8016E
:1008800060E48EEC91E00F910C94AB032F923F92B9
:100890004F925F926F927F928F929F92AF92BF9290
:1008A000CF92DF92EF92FF920F931F93CF93DF933C
:1008B000CDB7DEB727970FB6F894DEBF0FBECDBF1A
:1008C000DC011B960D911C911C970115110509F473
:1008D00062C19F838E83F801B49131964491319621
:1008E00054903196A491EA2EF12CF7E0EF0EF11C12
:1008F00023E0F594E7942A95E1F7EB82F80134962A
:1009000074913196E491671758F0862F90E02E2F5E
:1009100030E0F901E70FF11D8E179F070CF473C04B
:100920006D3069F4AE81BF8116968C91882309F4ED
:1009300067C060E08E819F810E94B30361C06A300E
:1009400009F029C1EE81FF8181856581D62E8E9DBA
:10095000D00C11248781869586958695D81630F01F
:100960008285882319F082E08287D12C4D2D60E0AA
:100970008E819F810E94CB03AE81BF811A968C919C
:100980001A97823008F43CC015962C9115971B9647
:10099000ED91FC911C97309741F03396E4911996B4
:1009A0000C91E09FE02D112401C0E0E08FEF820F59
:1009B0000E2F10E0095F1F4F93E0159507959A954C
:1009C000E1F7080FEE81FF81468141506481CF013C
:1009D0000E94F403AE81BF8119968C9119976D2DF9
:1009E0008E9D600D1124660F660F660F17968C9111
:1009F000861708F460E060648E819F810E94AB03DB
:100A000081E090E0CAC050E05B2BC8010696671BEE
:100A1000EE81FF81F185F9834230510588F4452B41
:100A200009F019825E9C90015F9C300D1124629F39
:100A30008001639F100D1124080F191F412C24C041
:100A4000EA2FE77021F048E0442E4E1A01C0412CF5
:100A5000A82FFC0140E050E07E2F7A1B761728F487
:100A60007491470F511D3196F7CFFC01E60FF11D30
:100A700054904E9D80014F9D100D5E9D100D1124D0
:100A8000020F131F080F191FAE81BF811496BC916E
:100A9000BC83EE81FF813580652C712CCC24C394FE
:100AA000D12C812C912C7FEF7C0D7A838B81781750
:100AB00008F05FC0212CAE81BF8119968C91281659
:100AC00008F051C07A81711102C0222051F0AE812C
:100AD000BF8115964C9115974F5F6C81CD010E9497
:100AE000CB03A12CB12CA51488F5F501E80DF91D57
:100AF000E00FF11F2491442061F0CE14DF0449F48B
:100B0000E22FF0E0042C02C0F595E7950A94E2F795
:100B10002E2FEE81FF818185823079F4E22F211022
:100B2000E295EF70F0E0EF57FF4F2491622F8E8136
:100B30009F812D830E9496032D81622F8E819F813C
:100B40000E949603FFEFAF1ABF0ACDCFB12C798177
:100B5000B71639F060E08E819F810E949603B394AE
:100B6000F6CF2394A8CF860C971CBFEFCB1ADB0AD5
:100B70009ACFAE81BF8117968C91179786958695EF
:100B80008695381608F03CCF15963C921597632D44
:100B9000606BCD0133CF80E090E027960FB6F894DC
:100BA000DEBF0FBECDBFDF91CF911F910F91FF90A0
:100BB000EF90DF90CF90BF90AF909F908F907F90FD
:100BC0006F905F904F903F902F9008950F931F93D9
:100BD000CF93DF93EC01062F142F8E85813120F403
:100BE000882329F0411103C00E94C4011E868E850E
:100BF000811113C08D8591E090939E018093C00177
:100C000010929F011092C101112311F060E401C004
:100C100060E082EC91E00E946703602F82EC91E03B
:100C20000E946703123021F48E858F5F8E8703C088
:100C30000E94C4011E86DF91CF911F910F910895EC
:100C4000089580E090E008950E942C091F920F9271
:100C50000FB60F9211242F933F938F939F93AF93CF
:100C6000BF9380916F0190917001A0917101B0913B
:100C7000720130916E0126E0230F2D3720F4029689
:100C8000A11DB11D05C029E8230F0396A11DB11DAB
:100C900020936E0180936F0190937001A093710176
:100CA000B09372018091730190917401A0917501CC
:100CB000B09176010196A11DB11D809373019093AF
:100CC0007401A0937501B0937601BF91AF919F918C
:100CD0008F913F912F910F900FBE0F901F901895FD
:100CE0001F920F920FB60F9211242F933F934F93A1
:100CF0005F936F937F938F939F93AF93BF93EF9384
:100D0000FF938091B900887F803609F49CC068F514
:100D1000883209F45BC090F4803109F454C038F48F
:100D2000882309F4F6C0883009F44DC0F6C0883134
:100D300009F44CC0803209F45DC0EFC0803409F47E
:100D400068C048F4803309F455C0883309F0E5C021
:100D500080939B01D8C0803509F44FC0883509F4D1
:100D60005DC0883409F0D9C0D6C0883909F4C7C03D
:100D7000A8F4883709F467C038F4883609F463C0EA
:100D8000803709F460C0C9C0883809F4B8C0803918
:100D900009F45FC0803809F0C0C05BC0803B09F433
:100DA00086C038F4803A09F466C0883A09F47FC0F6
:100DB000B4C0803C09F4A7C0883C09F4A4C0883BB7
:100DC00009F48AC0AAC08091780110C090919A015C
:100DD00080919901981770F5E0919A0181E08E0F4A
:100DE00080939A01F0E0E758FE4F80818093BB002A
:100DF00085EC86C080939B018EC0E0919A0181E0D2
:100E00008E0F80939A018091BB00F0E0E758FE4F6F
:100E1000808390919A01809199016EC0E0919A012E
:100E200081E08E0F80939A018091BB00F0E0E7583B
:100E3000FE4F808380919C0181116DC081E0809381
:100E4000770184EA61C083E080939D0110926D0177
:100E5000CFCF80916D01803208F051C0E0916D01DB
:100E600081E08E0F80936D018091BB00F0E0E35B29
:100E7000FE4F8083BDCF85EC8093BC0010929D0116
:100E800080916D01803230F4E0916D01F0E0E35B20
:100E9000FE4F108260916D0170E0E0914B01F09186
:100EA0004C018DE491E0099510926D0136C084E00B
:100EB00080939D0110924A0110924901E0914701EF
:100EC000F0914801099580914901811105C081E0A7
:100ED0008093490110922701E0914A0181E08E0F31
:100EE00080934A01F0E0E95DFE4F80818093BB0072
:100EF00090914A0180914901981708F479CF85E8CB
:100F00008093BC000AC085EC8093BC0010929D01C8
:100F100004C010929B010E94F702FF91EF91BF91D4
:100F2000AF919F918F917F916F915F914F913F9181
:100F30002F910F900FBE0F901F901895E2ECF1E0EB
:100F40001382128288EE93E0A0E0B0E08483958360
:100F5000A683B78384E091E091838083EEECF1E097
:100F60001382128281E081871486138686E191E0E4
:100F7000918380830895CF93DF93CDB7DEB7A79792
:100F80000FB6F894DEBF0FBECDBF789484B58260F3
:100F900084BD84B5816084BD85B5826085BD85B51D
:100FA000816085BD80916E00816080936E0010929B
:100FB0008100809181008260809381008091810016
:100FC00081608093810080918000816080938000A7
:100FD0008091B10084608093B1008091B000816005
:100FE0008093B00080917A00846080937A00809131
:100FF0007A00826080937A0080917A008E7F80935D
:101000007A0080917A00806880937A001092C10003
:1010100080E10E94920161E080E10E944C028FE039
:101020000E94920160E08FE00E944C021092DC016D
:101030008CE38093DB011092D2011092D301EBE894
:10104000F2E085919491E82EEDE8F2E0F490EEE87C
:10105000F2E0E491E093D401EFE8F2E0E491E09370
:10106000D501E0E9F2E0E491E093D6018C01802F14
:101070008E198F1548F4F80164918EEC91E00E946E
:10108000AB030F5F1F4FF3CF1092D8010E942804CB
:1010900085EA90E09093DA018093D9010E942804B8
:1010A00082E08093D7019AE0492E512C612C712C5B
:1010B0000E94B1018C010E94B101080F191F0E940A
:1010C000B101080F191F0E94B101080F191F0E94DA
:1010D000B101080F191F0E94B101080F191F0E94CA
:1010E000B101080F191F0E94B101080F191F61E01B
:1010F0008FE00E944C0261E070E080E090E00E948E
:10110000BD020E94B1014C010E94B1015C010E942C
:10111000B1016C010E94B1017C010E94B1011C016E
:101120000E94B101AC018EA35FA30E94B1019BA3F9
:101130008AA30E94B1019DA38CA360E08FE00E946E
:101140004C029801281939092A193B092C193D0923
:101150002E193F09221933094EA15FA1241B350B1B
:101160008AA19BA1281B390BECA1FDA12E1B3F0BD3
:10117000890183E0169507958A95E1F70115F4E05A
:101180001F0710F000E010E040E060E08EEC91E01E
:101190000E94CB03980140E050E019A28E010F5D40
:1011A0001F4FCA01B901A30192010E940409605DA9
:1011B000F80162938F01211531054105510589F729
:1011C000309761F001900020E9F73197AF01401BA3
:1011D000510BB8018EEC91E00E94210245E050E0F5
:1011E00060E271E08EEC91E00E94210268EC70E018
:1011F00080E090E00E94BD0280E090E0892B09F43D
:1012000057CF0E94000054CFA1E21A2EAA1BBB1B8D
:10121000FD010DC0AA1FBB1FEE1FFF1FA217B307C2
:10122000E407F50720F0A21BB30BE40BF50B661FD8
:10123000771F881F991F1A9469F76095709580959C
:1012400090959B01AC01BD01CF010895EE0FFF1FEA
:101250000590F491E02D099481E090E0F8940C94CD
:061260003109F894FFCFF4
:1012660000000000670337032106290330032D031E
:101276002A03000000004604210221062006E60596
:06128600202020202000C2
:00000001FF
