:100000000C94FB010C940D020C940D020C940D0247
:100010000C940D020C940D020C940D020C940D0224
:100020000C940D020C940D020C940D020C940D0214
:100030000C940D020C940D020C940D020C940D0204
:100040000C94EC020C940D020C940D020C940D0215
:100050000C940D020C940D020C940D020C940D02E4
:100060000C940D020C940D02000000080002010027
:10007000000304070000000000000000AED580A8C7
:100080001FD300408D142001A1C8DA02818FD9F15D
:10009000DB40A4A62EAFFC7FFF1FFA3FFE2FF61F0A
:1000A000FC370E0000380E0000380E0000380E003D
:1000B00000380E0000380E0000380E000038F61F21
:1000C000FC37FA3FFE2FFC7FFF1F000000000000FE
:1000D0000000000000000000000000000000000020
:1000E0000000000000000000000000000000000010
:1000F0000000F01FFC07F83FFE0FFC7FFF1F000011
:10010000FF1F0280FE2F06C0FD370EC001380EC053
:1001100001380EC001380EC001380EC001380EC0C3
:1001200001380EC00138F6DF0130FABF0020FC7F35
:100130000000000000000280002006C001300EC058
:1001400001380EC001380EC001380EC001380EC093
:1001500001380EC001380EC00138F6DFFD37FABF96
:10016000FE2FFC7FFF1FFC7F0000F8BF0000F0DFC8
:10017000010000C0010000C0010000C0010000C07B
:10018000010000C0010000C0010000C00100F0DF5C
:10019000FD07F8BFFE0FFC7FFF1FFC7F0000FABFCA
:1001A0000020F6DF01300EC001380EC001380EC04D
:1001B00001380EC001380EC001380EC001380EC023
:1001C000013806C0FD370280FE2F0000FF1FFC7FB4
:1001D000FF1FFABFFE2FF6DFFD370EC001380EC03D
:1001E00001380EC001380EC001380EC001380EC0F3
:1001F00001380EC0013806C0FD370280FE2F000016
:10020000FF1F0000000002000000060000000E00BA
:1002100000000E0000000E0000000E0000000E00A6
:1002200000000E0000000E000000F61FFC07FA3F61
:10023000FE0FFC7FFF1FFC7FFF1FFABFFE2FF6DFC4
:10024000FD370EC001380EC001380EC001380EC097
:1002500001380EC001380EC001380EC00138F6DF7B
:10026000FD37FABFFE2FFC7FFF1FFC7F0000FABFA7
:100270000020F6DF01300EC001380EC001380EC07C
:1002800001380EC001380EC001380EC001380EC052
:100290000138F6DFFD37FABFFE2FFC7FFF1FFC7F22
:1002A000FF1FFABFFE0FF6DFFD070EC001000EC0F4
:1002B0001D000EC03D000EC079000EC0F1000EC042
:1002C000E1010EC0C103F6DF8107FABF000FFC7F1A
:1002D000001EFC7FFF1FF8BFFE0FF0DFFD0700C010
:1002E000010000C0010000C0010000C0010000C00A
:1002F000010000C0010000C00100F0DFFD07F8BFF1
:10030000FE0FFC7FFF1FFC7FFF1FFA3FFE2FF61F33
:10031000FC370E0000380E0000380E0000380E00CA
:1003200000380E0000380E0000380E0000380600BD
:1003300000300200002000000000700000005000AB
:10034000800F7000E0070000F80100007E000080D0
:100350001F0000E0070000F80100007E0000801F81
:100360000000E007000EF001000A0000000E00008F
:1003700000000080000000C0010000C0010000C0BB
:10038000010000C0010000C0010000C0010000C069
:10039000010000C0010000C001000080000000005A
:1003A00000000E0000000A0000000E000000000027
:1003B0000038000000380000003800000000250070
:1003C00028002B0000000000240027002A0004045D
:1003D00004040404040402020202020203030303ED
:1003E00003030102040810204080010204081020C9
:1003F00001020408102011241FBECFEFD8E0DEBF99
:10040000CDBF21E0A0E0B1E001C01D92A930B2074C
:10041000E1F70E9425040C94E9050C94000090E09B
:10042000FC01EE51FC4F2491FC01E253FC4F8491FE
:10043000882399F090E0880F991FFC01EC53FC4F42
:10044000A591B491FC01E654FC4F859194918FB72E
:10045000F894EC91E22BEC938FBF089583E48093A2
:100460007C0080917A00806480937A0080917A0089
:1004700086FDFCCF809178002091790090E0922B4E
:10048000089590E0FC01E859FF4F3491FC01EE51D2
:10049000FC4F2491FC01E253FC4FE491EE2309F45C
:1004A0003BC0332339F1333091F038F43130A9F0C7
:1004B000323001F584B58F7D12C0373091F038307D
:1004C000A1F03430B9F4809180008F7D03C0809119
:1004D00080008F77809380000DC084B58F7784BDB6
:1004E00009C08091B0008F7703C08091B0008F7DEC
:1004F0008093B000F0E0EE0FFF1FE654FC4FA59193
:10050000B4918FB7F894EC91611103C020952E231C
:1005100001C02E2B2C938FBF08953FB7F894809184
:10052000050190910601A0910701B091080126B53F
:10053000A89B05C02F3F19F00196A11DB11D3FBF1B
:10054000BA2FA92F982F8827820F911DA11DB11DA9
:10055000BC01CD0143E0660F771F881F991F4A95A4
:10056000D1F708958F929F92AF92BF92CF92DF9270
:10057000EF92FF926B017C010E948D024B015C01A6
:10058000C114D104E104F104F1F00E948D02DC01F8
:10059000CB0188199909AA09BB09883E9340A10596
:1005A000B10570F321E0C21AD108E108F10888EE24
:1005B000880E83E0981EA11CB11CC114D104E10473
:1005C000F10419F7DDCFFF90EF90DF90CF90BF904F
:1005D000AF909F908F9008951F920F920FB60F9239
:1005E00011242F933F938F939F93AF93BF93809149
:1005F000010190910201A0910301B0910401309199
:10060000000126E0230F2D3720F40296A11DB11D15
:1006100005C029E8230F0396A11DB11D20930001F9
:100620008093010190930201A0930301B093040110
:100630008091050190910601A0910701B0910801F8
:100640000196A11DB11D8093050190930601A09311
:100650000701B0930801BF91AF919F918F913F9196
:100660002F910F900FBE0F901F90189571E03D9A3B
:100670003C980000000000003D98A8940000000095
:100680000000359BCCD0A2F0889434990894771F51
:1006900070F73D9A803011F03C9801C03C9A000000
:1006A000000000003D98A89400000000359BB7D0E2
:1006B000000000003D9A872F9927089580E2089551
:1006C0000894881F01C0880FA9F03D9A000000001F
:1006D000000018F400003C9802C03C9A00C03D980D
:1006E000A894000000000000359B99D012F48827E0
:1006F0000FC0E9CF3D9A000000003C989927882759
:100700003D98A8940000359B8AD08AF3349B81E001
:10071000000000003D9A089581E008953D9A3C9ABA
:1007200092D03D9890D0359B7AD03C988CD008954B
:100730008F938F918F93359B72D03C9A84D0C0DF7A
:10074000882311F4EBDFF5CF0F90089508953D9ABB
:100750007AD03C9878D03D9876D0359B60D03C9A42
:1007600072D0AEDF089581E00895359B58D03C9A51
:100770006AD0A6DF089581E00895FF920F931F933A
:10078000CF93DF9341155105E9F0EA01F62E182FBA
:1007900088E70E94B503811102C080E014C0812F58
:1007A0000E9460038823C9F300E010E08F2D0E94AF
:1007B0006003882391F30F5F1F4F0C171D07B1F7DC
:1007C0000E948E0381E0DF91CF911F910F91FF90E6
:1007D000089541E050E0682F80E00C94BD0381E271
:1007E0000E94E90380E00E94E9038FE70E94E90389
:1007F00082E20E94E90380E00E94E90383E00C9416
:10080000E9033C983D984498459888279927349B5C
:100810000895359B089581E0089581E00895B0E042
:10082000A8EC002409D032F40A94E1F71197C9F733
:10083000289408C0A89406C0A894359901C02894AB
:1008400000000895089508950895CF93DF93CDB7DC
:10085000DEB72B970FB6F894DEBF0FBECDBF7894EE
:1008600084B5826084BD84B5816084BD85B58260B5
:1008700085BD85B5816085BD80916E008160809366
:100880006E001092810080918100826080938100CF
:1008900080918100816080938100809180008160DF
:1008A000809380008091B10084608093B10080913A
:1008B000B00081608093B00080917A008460809362
:1008C0007A0080917A00826080937A0080917A0029
:1008D0008E7F80937A0080917A00806880937A007E
:1008E0001092C10080E10E940F0261E080E10E944D
:1008F00041028FE00E940F0261E08FE00E944102FE
:100900000CE710E0BAE1FB2EF00EF80184910E9492
:10091000E9030F5F1F4FF012F8CF0E94EF0340E092
:1009200052E06FEF80E40E94BD038E010F5F1F4F06
:10093000AAE04A2E512C612C712C0E942E027C01BF
:100940000E942E02E80EF91E0E942E02E80EF91EE9
:100950000E942E02E80EF91E0E942E02E80EF91ED9
:100960000E942E02E80EF91E0E942E02E80EF91EC9
:100970000E942E02E80EF91E61E08FE00E94410203
:1009800061E070E080E090E00E94B2020E942E02DE
:100990000E942E020E942E020E942E020E942E020F
:1009A0000E942E020E942E020E942E0260E08FE022
:1009B0000E944102E3E0F694E794EA95E1F7CC2443
:1009C000CA94F3E0DF2ECE18DF08E12CF12C1801D9
:1009D00058010987AA868B2CC701B601A301920191
:1009E0000E94A80580E38C0DC82EF6EFF29FC00C84
:1009F0001124F501C1925F019E2E901A69017A01BE
:100A0000C114D104E104F10429F7EA85F82DD801D5
:100A1000AE17BF0730F480819C9190838D933197FE
:100A2000F7CF0E94EF03822D9985891B891520F548
:100A3000F10181911F0190ED980F9A3048F490E0F8
:100A4000C09724E3289F6001299FD00C112433C054
:100A5000823569F1883489F18334A1F18532B9F1A5
:100A60008D32D1F18732E9F18E3209F06AC088E126
:100A7000C82E83E0D82E39C048E050E0491951090A
:100A800076E0440F551F7A95E1F760E080E40E941C
:100A9000BD0368EC70E080E090E00E94B20280E06C
:100AA00090E0892B09F449CF0E94000046CF68E00E
:100AB000C62E62E0D62E94E319C05CE3C52E52E048
:100AC000D52EF9CF40E7C42E42E0D42EF4CF34EA3D
:100AD000C32E32E0D32EEFCF28EDC22E22E0D22E4D
:100AE000EACF9CE0C92E93E0D92E9CE088E79B8753
:100AF0000E94B5039B858823E9F080E49B870E94D0
:100B000060039B858823B1F0A12CB12CE92EF12C38
:100B1000F501EC0DFD1DEA56FF4F84910E94600324
:100B2000882341F0FFEFAF1ABF0AAE14BF0480F371
:100B30000E948E034CE050E060E080E40E94BD0320
:100B400072CF44E350E060E080E40E94BD03F2CF46
:100B5000052E97FB1EF400940E94BF0557FD07D099
:100B60000E94C70507FC03D04EF40C94BF055095B6
:100B70004095309521953F4F4F4F5F4F0895909589
:100B80008095709561957F4F8F4F9F4F0895A1E29B
:100B90001A2EAA1BBB1BFD010DC0AA1FBB1FEE1FF7
:100BA000FF1FA217B307E407F50720F0A21BB30B42
:100BB000E40BF50B661F771F881F991F1A9469F7BE
:100BC00060957095809590959B01AC01BD01CF011A
:060BD0000895F894FFCF28
:00000001FF
