:100000000C9463010C948B010C948B010C948B0168
:100010000C948B010C948B010C948B010C948B0130
:100020000C948B010C948B010C948B010C948B0120
:100030000C948B010C948B010C948B010C948B0110
:100040000C9454070C948B010C948C050C9466054D
:100050000C948B010C948B010C948B010C948B01F0
:100060000C94D7090C948B01AED580A81FD3004007
:100070008D142002A1C8DA02817FD9F1DB40A4A649
:10008000AF000005072060000000000000005F00D6
:10009000000003000300143E143E14242A7F2A1299
:1000A00043330866613649552250000503000000BD
:1000B0001C2241000041221C0014083E08140808BC
:1000C0003E0808005030000008080808080060607A
:1000D000000020100804023E5149453E0004027F02
:1000E00000426151494622414949361814127F1095
:1000F00027454545393E49494932010171090736CD
:1001000049494936264949493E00363600000056DD
:100110003600000814224100141414141400412263
:10012000140802015109063E4159555E7E0909092C
:100130007E7F494949363E414141227F4141413E0E
:100140007F494949417F090909013E4141493A7FB7
:100150000808087F00417F4100304040403F7F0851
:100160001422417F404040407F020C027F7F020406
:10017000087F3E4141413E7F090909061E21212198
:100180005E7F09090976264949493201017F01014B
:100190003F4040403F1F2040201F7F2010207F41D4
:1001A000221C224107087008076151494543007F1E
:1001B00041000002040810200000417F00040201F9
:1001C00002044040404040000102040020545454C6
:1001D000787F444444383844444444384444447F59
:1001E000385454541804047E0505085454543C7F74
:1001F0000804047800447D40002040443D007F1006
:1002000028440000417F40007C047804787C080486
:10021000047838444444387C141414080814141422
:100220007C007C080404485454542004043F444493
:100230003C4040207C1C2040201C3C4030403C4442
:10024000281028440C5050503C4464544C4400083E
:1002500036414100007F00004141360800020102A2
:1002600004027F7F7F7F7F680019802000000000EC
:1002700000250028002B00040404040404040402E4
:100280000202020202030303030303010204081033
:100290002040800102040810200102040810200000
:1002A0000000080002010000030407000000000035
:1002B00000000000030C0F30333C3FC0C3CCCFF034
:1002C000F3FCFF00050B11241FBECFEFD8E0DEBF0B
:1002D000CDBF11E0A0E0B1E0E6ECF4E202C0059091
:1002E0000D92A839B107D9F723E0A8E9B1E001C020
:1002F0001D92A731B207E1F711E0C3E6D1E004C0D7
:100300002197FE010E947E0FC236D107C9F70E94D5
:100310004A0B0C9461120C94000090E0FC01E15631
:10032000FD4F2491FC01E557FD4F3491FC01E95844
:10033000FD4FE491EE23B1F1222339F1233091F006
:1003400038F42130A9F0223001F584B58F7D12C038
:10035000273091F02830A1F02430B9F4809180004A
:100360008F7D03C0809180008F77809380000DC0C7
:1003700084B58F7784BD09C08091B0008F7703C0AA
:100380008091B0008F7D8093B000F0E0EE0FFF1FF2
:10039000E359FD4FA591B4918FB7F894EC913E2BA2
:1003A0003C938FBF0895FC01AC014E5F5F4F8FEF10
:1003B00091E32191822728E030E087FF03C0880F76
:1003C000892701C0880F21503109B9F7E417F507D3
:1003D00081F70895CF92DF92EF92FF920F931F93D0
:1003E000CF93DF936C017A018B01C0E0D0E0CE1592
:1003F000DF0589F0D8016D918D01D601ED91FC9159
:100400000190F081E02DC6010995892B11F47E0140
:1004100002C02196ECCFC701DF91CF911F910F91C0
:10042000FF90EF90DF90CF900895FC01918D828D29
:10043000981761F0828DDF01A80FB11D5D968C9138
:10044000928D9F5F9F73928F90E008958FEF9FEF43
:100450000895FC01918D828D981731F0828DE80FFF
:10046000F11D858D90E008958FEF9FEF0895FC01B9
:10047000918D228D892F90E0805C9F4F821B910986
:100480008F739927089585E092E00E94370221E05A
:10049000892B09F420E0822F0895FC01848DDF016F
:1004A000A80FB11DA35ABF4F2C91848D90E00196E7
:1004B0008F739927848FA689B7892C93A089B189D6
:1004C0008C9180648C93938D848D981306C00288E0
:1004D000F389E02D80818F7D80830895EF92FF92D4
:1004E0000F931F93CF93DF93EC0181E0888F9B8D57
:1004F0008C8D981305C0E889F989808185FD24C019
:10050000F62E0B8D10E00F5F1F4F0F731127E02E9B
:100510008C8DE8120CC00FB607FCFACFE889F98978
:10052000808185FFF5CFCE010E944D02F1CF8B8DEA
:10053000FE01E80FF11DE35AFF4FF0820B8FEA89AD
:10054000FB898081806207C0EE89FF896083E8892A
:10055000F98980818064808381E090E0DF91CF9190
:100560001F910F91FF90EF900895CF93DF93EC01CF
:10057000888D8823C9F0EA89FB89808185FD05C0C3
:10058000A889B9898C9186FD0FC00FB607FCF5CFFD
:10059000808185FFF2CFA889B9898C9185FFEDCF45
:1005A000CE010E944D02E7CFDF91CF91089580E008
:1005B00090E0892B29F00E94430281110C940000E5
:1005C0000895CF93DF93D82FC091AE0281E080933E
:1005D0000302C09304021092020210920102692FDA
:1005E00082EA92E00E9486066D2F82EA92E00E94E3
:1005F000860680910102813208F046C09091E001A8
:100600009111FCCF92E09093E00191E09093DF0193
:100610009FEF9093DE011092DD018093DC01A1EE4B
:10062000B1E02CEB31E0F9019E2F921B981718F4E2
:100630009D919193F9CF1092BB018091BB01CC0F9A
:10064000C82BC093BB018091BA01813061F4109234
:10065000BA018091BB018093BB008091BC0083FDF7
:10066000F8CF85EC01C085EE8093BC008091E0015D
:100670008230E1F38091DE018F3F31F08091DE0125
:10068000803211F08091DE0110920202109201027C
:1006900010920302DF91CF910895DF92EF92FF92C3
:1006A0000F931F93CF93DF9300D000D000D0CDB72E
:1006B000DEB780E094E20E94E10264EF71E080E046
:1006C00090E00E941A078091AE029091E001911192
:1006D000FCCF91E09093E0019093DF012FEF209306
:1006E000DE011092DD0125E02093DC019093BB0137
:1006F0009091BB01880F892B8093BB018091BA0137
:10070000813061F41092BA018091BB018093BB00EB
:100710008091BC0083FDF8CF85EC01C085EE80930D
:10072000BC008091E0018130E1F38091DD018630F1
:1007300018F48091DD0101C086E0ACEBB1E02AE95C
:1007400031E0F9019E2F921B981718F49D91919317
:10075000F9CF1092990180939801863009F05FC01B
:10076000CE0101967C018C0186E0D82EDE0C82EA57
:1007700092E00E943A06F80181938F01DE12F7CFD2
:10078000D9800A811B81C7010E94D301181347C079
:10079000FC801D81EE80CE0104960E94D301E812F8
:1007A0003EC0602F70E07D2980E090E00E940B0E3B
:1007B00020E030E04FE253E40E94C20E20E03FEF21
:1007C0004FE757E40E94630D20E030E044E352E439
:1007D0000E94F10C6093B3027093B4028093B5024F
:1007E0009093B602612F70E07F2980E090E00E9434
:1007F0000B0E20E030E048EC52E40E94C20E20E0F4
:100800003FEF4FE757E40E94630D6093AF02709390
:10081000B0028093B1029093B20281E001C080E007
:1008200026960FB6F894DEBF0FBECDBFDF91CF91F5
:100830001F910F91FF90EF90DF9008950E94840F19
:100840006115710579F0FB0101900020E9F73197FE
:10085000AF01461B570BDC01ED91FC910280F38147
:10086000E02D099480E090E00895CF93DF93BC01E0
:1008700085E092E00E942004EC016AE271E085E0EC
:1008800092E00E9420048C0F9D1FDF91CF9108956C
:100890008F929F92AF92BF920F931F93CF93DF934C
:1008A000CDB7DEB7A1970FB6F894DEBF0FBECDBFB0
:1008B00019A2423008F44AE08E010F5D1F4F842ECA
:1008C000912CA12CB12CA50194010E94480FE62F78
:1008D000B901CA0101501109EA3014F4E05D01C008
:1008E000E95CD801EC93232B242B252B61F7B8016D
:1008F00085E092E00E942004A1960FB6F894DEBF36
:100900000FBECDBFDF91CF911F910F91BF90AF90E0
:100910009F908F9008954F925F926F927F928F92E7
:100920009F92AF92BF92CF92DF92EF92FF926B01B4
:100930007C019B01AC010E942F0F882319F06DE20E
:1009400071E01AC046015701E894B7F82FEF3FEF66
:100950004FE75FE7C501B4010E942F0F811112C05C
:100960002FEF3FEF4FE75FE7C501B4010E945E0D37
:10097000181644F461E371E085E092E00E942004DF
:100980007C018FC02FEF3FEF4FE75FE4C701B60157
:100990000E94BD0E18161CF465E371E0EDCF2FEF39
:1009A0003FEF4FE75FECC701B6010E945E0D87FD88
:1009B000F3CF20E030E0A901C701B6010E945E0D2F
:1009C00087FF11C0E0910502F09106020190F081CD
:1009D000E02D6DE285E092E009955C01F7FAF09474
:1009E000F7F8F09402C0A12CB12C2AE037ED43EACD
:1009F0005BE3C701B6010E94F20C2B013C010E948F
:100A0000DC0D6B017C010E940B0E9B01AC01C3014C
:100A1000B2010E94F10C2B013C014AE0C701B60172
:100A20000E9448047C01EA0CFB1CE0910502F09155
:100A300006020190F081E02D6EE285E092E00995DA
:100A4000E80EF91E20E030E040E251E4C301B201BB
:100A50000E94C20E2B013C010E94DC0D4B01A12C17
:100A6000B12C4AE0C501B4010E944804E80EF91E09
:100A7000C501B4010E940B0E9B01AC01C301B20180
:100A80000E94F10C20E030E040E251E40E94C20EEE
:100A90000E94DC0D80E090E04AE00E944804E80EED
:100AA000F91E6AE271E085E092E00E9420048E0D5A
:100AB0009F1DFF90EF90DF90CF90BF90AF909F90E1
:100AC0008F907F906F905F904F9008951F920F923C
:100AD0000FB60F9211242F933F934F935F936F9311
:100AE0007F938F939F93AF93BF93EF93FF9385E093
:100AF00092E00E944D02FF91EF91BF91AF919F91C3
:100B00008F917F916F915F914F913F912F910F90B6
:100B10000FBE0F901F9018951F920F920FB60F9255
:100B200011242F938F939F93EF93FF93E0911502DE
:100B3000F09116028081E0911B02F0911C0282FD6F
:100B400012C0908180911E028F5F8F7320911F02CF
:100B5000821751F0E0911E02F0E0EB5FFD4F958FA0
:100B600080931E0201C08081FF91EF919F918F9130
:100B70002F910F900FBE0F901F9018953FB7F894CC
:100B80008091130390911403A0911503B091160363
:100B900026B5A89B05C02F3F19F00196A11DB11DD8
:100BA0003FBFBA2FA92F982F8827820F911DA11D13
:100BB000B11DBC01CD0143E0660F771F881F991F4F
:100BC0004A95D1F70895CF93DF93EC019C818E81F4
:100BD000981758F4E881F9810480F581E02D42E00E
:100BE000CE0109958C818F5F8C83DF91CF91089521
:100BF00085ED8093BC008091BC0084FDFCCF1092F9
:100C0000E00108954091E902262F30E0240F311DC4
:100C100021323105DCF42091E0012430C9F4FC01DB
:100C200080E090E0861758F43091E9022191DC01D0
:100C3000A953BD4FA30FB11D2C930196F3CF809103
:100C4000E902680F6093E90280E0089581E0089569
:100C500082E008950895E091990180919801E81744
:100C600030F4F0E0E656FE4F808190E008958FEF7B
:100C70009FEF08959091990180919801981750F4F1
:100C8000E92FF0E0E656FE4F208130E09F5F909321
:100C9000990102C02FEF3FEFC9010895809198019B
:100CA00090E020919901821B91090895CF92DF92E3
:100CB000EF92FF920F931F93CF93DF937C01262F28
:100CC000972F8A0180910302882391F0C62FD72F96
:100CD0006E01C40ED51ECC15DD0571F06991D701EA
:100CE000ED91FC910190F081E02DC7010995F3CFC2
:100CF000642F822F0E940206C801DF91CF911F91BD
:100D00000F91FF90EF90DF90CF900895CF93DF93F6
:100D10001F92CDB7DEB76983209103022223D1F061
:100D200020910102203240F021E030E0FC013383C9
:100D3000228380E090E015C080910202E82FF0E06D
:100D4000EF51FE4F998190838F5F809302028093D1
:100D5000010205C061E0CE0101960E94020681E019
:100D600090E00F90DF91CF910895FC016093BC005B
:100D70008091BC0087FFFCCF9091B900987F908351
:100D80000895CF92DF92EF92FF920F931F93CF932C
:100D9000DF93EC01C62ED42E8F85882351F04111AC
:100DA00008C084E98093BC008091BC0084FDFCCF26
:100DB0001F86EF848E01035F1F4FE11014C0FE8475
:100DC00064EAC8010E94B5068D85883011F1803132
:100DD00001F1DD2011F080E4E82EE092BB0064E830
:100DE000C8010E94B506C092BB0064E8C8010E9419
:100DF000B50682E0D81204C08F858F5F8F8711C03F
:100E000084E98093BC008091BC0084FDFCCF1F86E8
:100E100008C0FF0CF092BB0064E8C8010E94B50650
:100E2000D8CFDF91CF911F910F91FF90EF90DF907E
:100E3000CF9008958F929F92AF92BF92CF92DF9200
:100E4000EF92FF926B017C010E94BE054B015C0199
:100E5000C114D104E104F104F1F00E94BE05DC01EB
:100E6000CB0188199909AA09BB09883E9340A105BD
:100E7000B10570F321E0C21AD108E108F10888EE4B
:100E8000880E83E0981EA11CB11CC114D104E1049A
:100E9000F10419F7DDCFFF90EF90DF90CF90BF9076
:100EA000AF909F908F9008951F920F920FB60F9260
:100EB00011242F933F938F939F93AF93BF93809170
:100EC0000F0390911003A0911103B0911203309180
:100ED0000E0326E0230F2D3720F40296A11DB11D2D
:100EE00005C029E8230F0396A11DB11D20930E0311
:100EF00080930F0390931003A0931103B0931203F8
:100F00008091130390911403A0911503B0911603DF
:100F10000196A11DB11D8093130390931403A09318
:100F20001503B0931603BF91AF919F918F913F919D
:100F30002F910F900FBE0F901F901895DC01ED912F
:100F4000FC910480F581E02D40E009940F931F93FC
:100F5000CF938C01FC0164839085C62FC90F6C2F41
:100F60006F70C8010E949E076C2F62956F70606160
:100F7000C801CF911F910F910C949E070F931F935F
:100F8000CF93DF931F92CDB7DEB78C01FC01868132
:100F9000681728F4C80149830E94A6074981F8010F
:100FA0008781869586958695481758F44583642FE2
:100FB000606BC8010F90DF91CF911F910F910C943E
:100FC0009E070F90DF91CF911F910F910895CF92BF
:100FD000DF92EF92FF920F931F93CF93DF93EC0179
:100FE000F62EC42ED22E8F8186958695869508176B
:100FF00010F00FEF080F1D2D011780F0412F6F2DFE
:10100000CE010E94BE07EF2CCE1430F060E0CE017E
:101010000E94E305E394F8CF1F5FEECF4D2D6F2DB7
:10102000CE01DF91CF911F910F91FF90EF90DF9054
:10103000CF900C94BE072F923F924F925F926F9287
:101040007F928F929F92AF92BF92CF92DF92EF9258
:10105000FF920F931F93CF93DF93CDB7DEB7279700
:101060000FB6F894DEBF0FBECDBFDC011B960D910D
:101070001C911C970115110509F462C19F838E8391
:10108000F801B49131964491319654903196A491DF
:10109000EA2EF12CF7E0EF0EF11C23E0F594E79433
:1010A0002A95E1F7EB82F801349674913196E49138
:1010B000671758F0862F90E02E2F30E0F901E70FE8
:1010C000F11D8E179F070CF473C06D3069F4AE816B
:1010D000BF8116968C91882309F467C060E08E81E9
:1010E0009F810E94A60761C06A3009F029C1EE8184
:1010F000FF8181856581D62E8E9DD00C112487813C
:10110000869586958695D81630F08285882319F0C5
:1011100082E08287D12C4D2D60E08E819F810E94DC
:10112000BE07AE81BF811A968C911A97823008F45F
:101130003CC015962C9115971B96ED91FC911C9730
:10114000309741F03396E49119960C91E09FE02D91
:10115000112401C0E0E08FEF820F0E2F10E0095F35
:101160001F4F93E0159507959A95E1F7080FEE81CB
:10117000FF81468141506481CF010E94E707AE8123
:10118000BF8119968C9119976D2D8E9D600D11243C
:10119000660F660F660F17968C91861708F460E04D
:1011A00060648E819F810E949E0781E090E0CAC0AA
:1011B00050E05B2BC8010696671BEE81FF81F1852D
:1011C000F9834230510588F4452B09F019825E9C61
:1011D00090015F9C300D1124629F8001639F100D70
:1011E0001124080F191F412C24C0EA2FE77021F0A9
:1011F00048E0442E4E1A01C0412CA82FFC0140E0CB
:1012000050E07E2F7A1B761728F47491470F511DFA
:101210003196F7CFFC01E60FF11D54904E9D8001F1
:101220004F9D100D5E9D100D1124020F131F080F0E
:10123000191FAE81BF811496BC91BC83EE81FF81E2
:101240003580652C712CCC24C394D12C812C912C0D
:101250007FEF7C0D7A838B81781708F05FC0212C9B
:10126000AE81BF8119968C91281608F051C07A8101
:10127000711102C0222051F0AE81BF8115964C91B0
:1012800015974F5F6C81CD010E94BE07A12CB12C38
:10129000A51488F5F501E80DF91DE00FF11F249163
:1012A000442061F0CE14DF0449F4E22FF0E0042C76
:1012B00002C0F595E7950A94E2F72E2FEE81FF81A3
:1012C0008185823079F4E22F2110E295EF70F0E011
:1012D000ED54FD4F2491622F8E819F812D830E94BA
:1012E000E3052D81622F8E819F810E94E305FFEF30
:1012F000AF1ABF0ACDCFB12C7981B71639F060E0B3
:101300008E819F810E94E305B394F6CF2394A8CFEA
:10131000860C971CBFEFCB1ADB0A9ACFAE81BF8138
:1013200017968C911797869586958695381608F0AE
:101330003CCF15963C921597632D606BCD0133CF52
:1013400080E090E027960FB6F894DEBF0FBECDBFC9
:10135000DF91CF911F910F91FF90EF90DF90CF9091
:10136000BF90AF909F908F907F906F905F904F90C5
:101370003F902F9008950F93CF93DF93EC010F814F
:1013800006950695069501504E81415020E060E09B
:101390000E94E70781E09A85911101C080E08A8769
:1013A00060E4CE01DF91CF910F910C949E071F92C4
:1013B0000F920FB60F9211242F933F934F935F9389
:1013C0006F937F938F939F93AF93BF93EF93FF930D
:1013D0008091B900887F803609F49CC068F5883216
:1013E00009F45BC090F4803109F454C038F48823C8
:1013F00009F4F6C0883009F44DC0F6C0883109F40C
:101400004CC0803209F45DC0EFC0803409F468C07C
:1014100048F4803309F455C0883309F0E5C080935F
:10142000DE01D8C0803509F44FC0883509F45DC0AD
:10143000883409F0D9C0D6C0883909F4C7C0A8F4E7
:10144000883709F467C038F4883609F463C08037F8
:1014500009F460C0C9C0883809F4B8C0803909F4FB
:101460005FC0803809F0C0C05BC0803B09F486C013
:1014700038F4803A09F466C0883A09F47FC0B4C0F1
:10148000803C09F4A7C0883C09F4A4C0883B09F457
:101490008AC0AAC08091BB0110C09091DD018091EB
:1014A000DC01981770F5E091DD0181E08E0F8093EB
:1014B000DD01F0E0E454FE4F80818093BB0085ECB9
:1014C00086C08093DE018EC0E091DD0181E08E0F49
:1014D0008093DD018091BB00F0E0E454FE4F8083F7
:1014E0009091DD018091DC016EC0E091DD0181E031
:1014F0008E0F8093DD018091BB00F0E0E454FE4F3D
:1015000080838091DF0181116DC081E08093BA01F9
:1015100084EA61C083E08093E00110920D03CFCF95
:1015200080910D03803208F051C0E0910D0381E0FD
:101530008E0F80930D038091BB00F0E0E351FD4FCF
:101540008083BDCF85EC8093BC001092E001809138
:101550000D03803230F4E0910D03F0E0E351FD4FD4
:10156000108260910D0370E0E091EB02F091EC02CB
:101570008DEE92E0099510920D0336C084E08093C1
:10158000E0011092EA021092E902E091E702F09184
:10159000E80209958091E902811105C081E08093FC
:1015A000E9021092C702E091EA0281E08E0F809377
:1015B000EA02F0E0E953FD4F80818093BB009091F7
:1015C000EA028091E902981708F479CF85E88093C0
:1015D000BC000AC085EC8093BC001092E00104C0FE
:1015E0001092DE010E94F805FF91EF91BF91AF913B
:1015F0009F918F917F916F915F914F913F912F912B
:101600000F900FBE0F901F901895E5E0F2E0138247
:10161000128288EE93E0A0E0B0E084839583A683F5
:10162000B78324E031E03183208325EC30E0358737
:10163000248724EC30E03787268720EC30E0318B9C
:10164000208B21EC30E0338B228B22EC30E0358B89
:10165000248B26EC30E0378B268B118E128E138E66
:10166000148EE2EAF2E01382128284839583A683C9
:10167000B78384E191E091838083E7EBF2E013820A
:10168000128281E081871486138684E291E091833F
:1016900080830895CF93DF93CDB7DEB72A970FB637
:1016A000F894DEBF0FBECDBF789484B5826084BD50
:1016B00084B5816084BD85B5826085BD85B5816056
:1016C00085BD80916E00816080936E0010928100D4
:1016D000809181008260809381008091810081608F
:1016E0008093810080918000816080938000809150
:1016F000B10084608093B1008091B00081608093DC
:10170000B00080917A00846080937A0080917A00A2
:10171000826080937A0080917A008E7F80937A0035
:1017200080917A00806880937A001092C1001092B4
:10173000C6028CE38093C5021092B90082E08093C8
:10174000B8001092BB021092BC02E7E6F2E085916D
:101750009491082FE9E6F2E01491EAE6F2E0E491D0
:10176000E093BD02EBE6F2E0E491E093BE02ECE62A
:10177000F2E0E491E093BF027C018E2D801B811783
:1017800050F4F701649187EB92E00E949E07FFEF0F
:10179000EF1AFF0AF2CF1092C10287EB92E00E948B
:1017A000BB0981E890E09093C3028093C20287EB6B
:1017B00092E00E94BB0982E08093C002E091150292
:1017C000F09116028083E0911102F09112021082D2
:1017D000E0911302F091140287E6808310921D02BB
:1017E000E0911902F0911A0286E08083E0911702DD
:1017F000F0911802808180618083E0911702F0915E
:101800001802808188608083E0911702F0911802AD
:10181000808180688083E0911702F09118028081B6
:101820008F7D808389E391E00E94350410929901B5
:101830001092980110920202109201021092E0019F
:1018400081E08093DF011092BA0182E10E948D0154
:1018500083E10E948D018091B9008E7F8093B90051
:101860008091B9008D7F8093B90080E28093B800A9
:1018700085E48093BC0084E48093AE0282EA90E326
:101880000E94E1026AE070E080E090E00E941A07A6
:101890002AE0822E912C04E411E0CE0101965C0135
:1018A0000E944D03882349F0C090B302D090B40247
:1018B000E090B502F090B60206C0C12CD12C90EC9D
:1018C000E92E9FE7F92E0E944D03882349F04090AE
:1018D000AF025090B0026090B1027090B20206C0A8
:1018E000412C512C80EC682E8FE7782E20E030E0E0
:1018F00040E05FE3C301B2010E94F20C0E94D50DEB
:101900007F936F932DEC3CEC4CE45DE3C701B60193
:101910000E94F20C20E030E040E251E40E94C20E4E
:101920000E94D50DCB01B4010E94340F9F938F9379
:10193000C701B6010E94D50D7F936F931F930F933C
:10194000BF92AF920E94890F40E060E087EB92E087
:101950000E94BE07B50187EB92E00E9420040FB6FB
:10196000F894DEBF0FBECDBFA7019601C701B60137
:101970000E942F0F81110BC06FE471E085E092E0AF
:101980000E942004C701B6010E948B0404C08AE5AE
:1019900091E00E943504A3019201C301B2010E94AB
:1019A0002F0F81110BC065E771E085E092E00E9486
:1019B0002004C301B2010E948B0404C08FE791E0B0
:1019C0000E9435046AE271E085E092E00E94200402
:1019D00068EE73E080E090E00E941A070E94D70250
:1019E0005FCF5058BB27AA270E94090D0C94830E85
:1019F0000E94750E38F00E947C0E20F039F49F3F53
:101A000019F426F40C94720E0EF4E095E7FB0C9496
:101A10006C0EE92F0E94940E58F3BA1762077307F1
:101A20008407950720F079F4A6F50C94B60E0EF411
:101A3000E0950B2EBA2FA02D0B01B90190010C01DE
:101A4000CA01A0011124FF27591B99F0593F50F4F6
:101A5000503E68F11A16F040A22F232F342F44274E
:101A6000585FF3CF469537952795A795F040539546
:101A7000C9F77EF41F16BA0B620B730B840BBAF016
:101A80009150A1F0FF0FBB1F661F771F881FC2F781
:101A90000EC0BA0F621F731F841F48F48795779595
:101AA0006795B795F7959E3F08F0B0CF9395880F4F
:101AB00008F09927EE0F9795879508950E94480E94
:101AC00008F481E008950E94770D0C94830E0E9423
:101AD0007C0E58F00E94750E40F029F45F3F29F00B
:101AE0000C946C0E51110C94B70E0C94720E0E9453
:101AF000940E68F39923B1F3552391F3951B550B7D
:101B0000BB27AA2762177307840738F09F5F5F4FD0
:101B1000220F331F441FAA1FA9F335D00E2E3AF00F
:101B2000E0E832D091505040E695001CCAF72BD027
:101B3000FE2F29D0660F771F881FBB1F2617370778
:101B40004807AB07B0E809F0BB0B802DBF01FF27AA
:101B500093585F4F3AF09E3F510578F00C946C0E0D
:101B60000C94B70E5F3FE4F3983ED4F386957795D7
:101B70006795B795F7959F5FC9F7880F911D969563
:101B8000879597F90895E1E0660F771F881FBB1FBF
:101B9000621773078407BA0720F0621B730B840B6C
:101BA000BA0BEE1F88F7E09508950E94DC0D68944B
:101BB000B1110C94B70E08950E949C0E88F09F57A7
:101BC00098F0B92F9927B751B0F0E1F0660F771F61
:101BD000881F991F1AF0BA95C9F714C0B13091F057
:101BE0000E94B60EB1E008950C94B60E672F782FC0
:101BF0008827B85F39F0B93FCCF38695779567951C
:101C0000B395D9F73EF490958095709561957F4F87
:101C10008F4F9F4F0895E89409C097FB3EF490952D
:101C20008095709561957F4F8F4F9F4F9923A9F0B5
:101C3000F92F96E9BB279395F69587957795679544
:101C4000B795F111F8CFFAF4BB0F11F460FF1BC088
:101C50006F5F7F4F8F4F9F4F16C0882311F096E91B
:101C600011C0772321F09EE8872F762F05C06623C9
:101C700071F096E8862F70E060E02AF09A95660F82
:101C8000771F881FDAF7880F9695879597F908953B
:101C9000990F0008550FAA0BE0E8FEEF161617067D
:101CA000E807F907C0F012161306E407F50798F0E5
:101CB000621B730B840B950B39F40A2661F0232BFE
:101CC000242B252B21F408950A2609F4A140A6957A
:101CD0008FEF811D811D089597F99F6780E870E05F
:101CE00060E008959FEF80EC089500240A94161692
:101CF000170618060906089500240A9412161306FA
:101D0000140605060895092E0394000C11F4882387
:101D100052F0BB0F40F4BF2B11F460FF04C06F5FA3
:101D20007F4F8F4F9F4F089557FD9058440F551F79
:101D300059F05F3F71F04795880F97FB991F61F04D
:101D40009F3F79F087950895121613061406551FC4
:101D5000F2CF4695F1DF08C0161617061806991F30
:101D6000F1CF86957105610508940895E894BB2725
:101D700066277727CB0197F908950E94480E08F44B
:101D80008FEF08950E94D50E0C94830E0E94750E5D
:101D900038F00E947C0E20F0952311F00C946C0E0C
:101DA0000C94720E11240C94B70E0E94940E70F3D2
:101DB000959FC1F3950F50E0551F629FF001729FF0
:101DC000BB27F00DB11D639FAA27F00DB11DAA1FFF
:101DD000649F6627B00DA11D661F829F2227B00D4C
:101DE000A11D621F739FB00DA11D621F839FA00DD7
:101DF000611D221F749F3327A00D611D231F849F27
:101E0000600D211D822F762F6A2F11249F5750407D
:101E10009AF0F1F088234AF0EE0FFF1FBB1F661FF8
:101E2000771F881F91505040A9F79E3F510580F0C1
:101E30000C946C0E0C94B70E5F3FE4F3983ED4F311
:101E4000869577956795B795F795E7959F5FC1F765
:101E5000FE2B880F911D9695879597F908950E94FE
:101E6000480E880B990B089597FB072E16F40094E3
:101E700007D077FD09D00E946A0F07FC05D03EF419
:101E8000909581959F4F0895709561957F4F089526
:101E9000A1E21A2EAA1BBB1BFD010DC0AA1FBB1F6E
:101EA000EE1FFF1FA217B307E407F50720F0A21BE0
:101EB000B30BE40BF50B661F771F881F991F1A944D
:101EC00069F760957095809590959B01AC01BD0177
:101ED000CF010895AA1BBB1B51E107C0AA1FBB1F5E
:101EE000A617B70710F0A61BB70B881F991F5A95A6
:101EF000A9F780959095BC01CD010895EE0FFF1FC5
:101F00000590F491E02D099481E090E0F8940C9410
:101F10006112AEE0B0E0EFE8FFE00C9438120D89FA
:101F20001E8986E08C831A8309838FEF9FE79E8347
:101F30008D83AE01475E5F4F6F89788DCE0101962C
:101F40000E94AC0F2F813885F801E20FF31F108239
:101F50002E96E4E00C945412ACE0B0E0E2EBFFE02B
:101F60000C942A127C016B018A01FC0117821682F3
:101F7000838181FFBDC1CE0101964C01F7019381A0
:101F8000F60193FD859193FF81916F01882309F4F8
:101F9000ABC1853239F493FD859193FF81916F0137
:101FA000853229F4B70190E00E949411E7CF512CBB
:101FB000312C20E02032A0F48B3269F030F48032F2
:101FC00059F0833269F420612CC08D3239F08033AE
:101FD00039F4216026C02260246023C0286021C01B
:101FE00027FD27C030ED380F3A3078F426FF06C0C1
:101FF000FAE05F9E300D1124532E13C08AE0389E04
:10200000300D1124332E20620CC08E3221F426FDB7
:102010006BC1206406C08C3611F4206802C088367B
:1020200041F4F60193FD859193FF81916F01811138
:10203000C1CF982F9F7D9554933028F40C5F1F4F8C
:10204000FFE3F9830DC0833631F0833771F08335B8
:1020500009F05BC022C0F801808189830E5F1F4FA9
:1020600044244394512C540115C03801F2E06F0E02
:10207000711CF801A080B18026FF03C0652D70E0BF
:1020800002C06FEF7FEFC5012C870E9489112C01E0
:1020900083012C852F77222E17C03801F2E06F0EB6
:1020A000711CF801A080B18026FF03C0652D70E08F
:1020B00002C06FEF7FEFC5012C870E947E112C01BB
:1020C0002C852068222E830123FC1BC0832D90E0E9
:1020D00048165906B0F4B70180E290E00E949411CE
:1020E0003A94F4CFF50127FC859127FE81915F0199
:1020F000B70190E00E94941131103A94F1E04F1A28
:1021000051084114510471F7E5C0843611F0893645
:1021100039F5F80127FF07C06081718182819381C1
:102120000C5F1F4F08C060817181072E000C880B67
:10213000990B0E5F1F4F2F76722E97FF09C0909557
:102140008095709561957F4F8F4F9F4F2068722EBD
:102150002AE030E0A4010E94CC11A82EA81844C0A7
:10216000853729F42F7EB22E2AE030E025C0F22FE9
:10217000F97FBF2E8F36C1F018F4883579F0B4C0DE
:10218000803719F0883721F0AFC02F2F2061B22E91
:10219000B4FE0DC08B2D8460B82E09C024FF0AC088
:1021A0009F2F9660B92E06C028E030E005C020E1E0
:1021B00030E002C020E132E0F801B7FE07C06081E4
:1021C0007181828193810C5F1F4F06C06081718194
:1021D00080E090E00E5F1F4FA4010E94CC11A82E5A
:1021E000A818FB2DFF777F2E76FE0BC0372D3E7F84
:1021F000A51450F474FE0AC072FC08C0372D3E7E50
:1022000005C0BA2C372D03C0BA2C01C0B52C34FF41
:102210000DC0FE01EA0DF11D8081803311F4397E7D
:1022200009C032FF06C0B394B39404C0832F8678EC
:1022300009F0B39433FD13C030FF06C05A2CB31419
:1022400018F4530C5B18B32CB31468F4B70180E294
:1022500090E03C870E949411B3943C85F5CFB31471
:1022600010F43B1801C0312C34FF12C0B70180E3D9
:1022700090E03C870E9494113C8532FF17C031FDED
:1022800003C088E790E002C088E590E0B7010CC089
:10229000832F867859F031FF02C08BE201C080E2C3
:1022A00037FD8DE2B70190E00E949411A51438F437
:1022B000B70180E390E00E9494115A94F7CFAA945A
:1022C000F401EA0DF11D8081B70190E00E949411A4
:1022D000A110F5CF332009F451CEB70180E290E090
:1022E0000E9494113A94F6CFF7018681978102C03B
:1022F0008FEF9FEF2C96E2E10C944612FC010590C3
:10230000615070400110D8F7809590958E0F9F1FF7
:102310000895FC016150704001900110D8F780953C
:1023200090958E0F9F1F08950F931F93CF93DF9368
:10233000FB01238121FD03C08FEF9FEF28C022FF07
:1023400016C046815781248135814217530744F4D2
:10235000A081B1819D012F5F3F4F318320838C93FA
:10236000268137812F5F3F4F3783268310C0EB01D3
:10237000092F182F0084F185E02D0995892BE1F6AE
:102380008E819F8101969F838E83812F902FDF9175
:10239000CF911F910F910895FA01AA27283051F18A
:1023A000203181F1E8946F936E7F6E5F7F4F8F4F86
:1023B0009F4FAF4FB1E03ED0B4E03CD0670F781FE5
:1023C000891F9A1FA11D680F791F8A1F911DA11DCA
:1023D0006A0F711D811D911DA11D20D009F4689403
:1023E0003F912AE0269F11243019305D3193DEF6AB
:1023F000CF010895462F4770405D4193B3E00FD061
:10240000C9F7F6CF462F4F70405D4A3318F0495D4B
:1024100031FD4052419302D0A9F7EACFB4E0A6952E
:102420009795879577956795BA95C9F70097610550
:10243000710508959B01AC010A2E069457954795A6
:1024400037952795BA95C9F7620F731F841F951F9B
:10245000A01D08952F923F924F925F926F927F92AC
:102460008F929F92AF92BF92CF92DF92EF92FF92A4
:102470000F931F93CF93DF93CDB7DEB7CA1BDB0B50
:102480000FB6F894DEBF0FBECDBF09942A883988F5
:1024900048885F846E847D848C849B84AA84B984FC
:1024A000C884DF80EE80FD800C811B81AA81B98108
:1024B000CE0FD11D0FB6F894DEBF0FBECDBFED011C
:0624C0000895F894FFCF1F
:1024C600000000006E02EA01370215022902B50279
:1024D60000000000860656064E063A062B062A0619
:1024E600000000001B08EA01C1060D0A006E616EBD
:1024F60000696E66006F7666005348543331207467
:102506006573740025642E256420256425250054F2
:10251600656D70202A43203D20004661696C656424
:1025260020746F20726561642074656D70657261D8
:10253600747572650048756D2E2025203D20004675
:1025460061696C656420746F2072656164206875CA
:082556006D69646974790000ED
:00000001FF
