:100000000C94AE010C94D6010C94D6010C943D09CD
:100010000C94D6010C943C090C943E090C94D60126
:100020000C94D6010C94D6010C94D6010C94D601F4
:100030000C94D6010C94D6010C94D6010C94D601E4
:100040000C9434050C94D6010C946F040C94490460
:100050000C94D6010C94D6010C94D6010C94D601C4
:100060000C9404080C94D60107634236B79BD8A7BA
:100070001A39685618AEBAAB558C1D3CB7CC5763CD
:10008000BD6DEDFD753EF6177231BF000000803F7B
:1000900008000000BE922449123EABAAAA2ABECD97
:1000A000CCCC4C3E00000080BEABAAAAAA3E000009
:1000B0000000BF000000803F000000000008417801
:1000C000D3BB4387D1133D190E3CC3BD4282AD2B38
:1000D0003E68EC8276BED98FE1A93E4C80EFFFBE30
:1000E00001C4FF7F3F000000000000030C0F30330D
:1000F0003C3FC0C3CCCFF0F3FCFF00000000230066
:100100002600290000000008000201000003040787
:100110000000000000000000AED580A81FD3004002
:100120008D142002A1C8DA02817FD9F1DB40A4A698
:10013000AF00000000250028002B00000000002474
:100140000027002A00040404040404040402020238
:100150000202020303030303030102040810204008
:10016000800102040810200102040810200000058C
:10017000072060000000000000005F000000030096
:100180000300143E143E14242A7F2A1243330866C7
:100190006136495522500005030000001C22410031
:1001A0000041221C0014083E081408083E080800FC
:1001B00050300000080808080800606000002010A7
:1001C0000804023E5149453E0004027F004261514D
:1001D000494622414949361814127F1027454545A2
:1001E000393E4949493201017109073649494936C1
:1001F000264949493E0036360000005636000008C0
:100200001422410014141414140041221408020191
:100210005109063E4159555E7E0909097E7F4949CB
:1002200049363E414141227F4141413E7F49494952
:10023000417F090909013E4141493A7F0808087F89
:1002400000417F4100304040403F7F081422417F01
:10025000404040407F020C027F7F0204087F3E4105
:1002600041413E7F090909061E2121215E7F0909BE
:100270000976264949493201017F01013F4040404A
:100280003F1F2040201F7F2010207F41221C224141
:1002900007087008076151494543007F410000028B
:1002A000040810200000417F0004020102044040C5
:1002B000404040000102040020545454787F4444DC
:1002C00044383844444444384444447F38545454B3
:1002D0001804047E0505085454543C7F080404782F
:1002E00000447D40002040443D007F102844000031
:1002F000417F40007C047804787C0804047838440A
:100300004444387C14141408081414147C007C0829
:100310000404485454542004043F44443C404020C6
:100320007C1C2040201C3C4030403C442810284489
:100330000C5050503C4464544C4400083641410039
:10034000007F0000414136080002010204027F7F65
:100350007F7F7F18011980200000031B11241FBE1E
:10036000CFEFD8E0DEBFCDBF13E0A0E0B1E0ECE915
:10037000FFE302C005900D92AA37B107D9F725E037
:10038000AAE7B3E001C01D92AD35B207E1F711E075
:10039000CEEAD1E004C02197FE010E94B21FCD3AFF
:1003A000D107C9F70E945C0F0C94CC1F0C9400007D
:1003B000CF92DF92EF92FF920F931F93CF93DF9331
:1003C0006C017A018B01C0E0D0E0CE15DF0589F029
:1003D000D8016D918D01D601ED91FC910190F081D4
:1003E000E02DC6010995892B11F47E0102C02196EA
:1003F000ECCFC701DF91CF911F910F91FF90EF904C
:10040000DF90CF900895FC01538D448D252F30E06F
:10041000842F90E0821B930B541710F0CF96089511
:1004200001970895FC01918D828D981761F0828D5E
:10043000DF01A80FB11D5D968C91928D9F5F9F7318
:10044000928F90E008958FEF9FEF0895FC01918DBA
:10045000828D981731F0828DE80FF11D858D90E027
:1004600008958FEF9FEF0895FC01918D228D892FC4
:1004700090E0805C9F4F821B91098F7399270895AC
:1004800085EA94E00E94340221E0892B09F420E0FF
:10049000822F0895FC01848DDF01A80FB11DA35A9E
:1004A000BF4F2C91848D90E001968F739927848F94
:1004B000A689B7892C93A089B1898C9180648C938B
:1004C000938D848D981306C00288F389E02D808176
:1004D0008F7D80830895EF92FF920F931F93CF93A8
:1004E000DF93EC0181E0888F9B8D8C8D981305C084
:1004F000E889F989808185FD24C0F62E0B8D10E0F6
:100500000F5F1F4F0F731127E02E8C8DE8120CC068
:100510000FB607FCFACFE889F989808185FFF5CF0E
:10052000CE010E944A02F1CF8B8DFE01E80FF11D32
:10053000E35AFF4FF0820B8FEA89FB89808180624A
:1005400007C0EE89FF896083E889F989808180642A
:10055000808381E090E0DF91CF911F910F91FF9018
:10056000EF900895CF93DF93EC01888D8823C9F035
:10057000EA89FB89808185FD05C0A889B9898C91AC
:1005800086FD0FC00FB607FCF5CF808185FFF2CF47
:10059000A889B9898C9185FFEDCFCE010E944A02CE
:1005A000E7CFDF91CF91089580E090E0892B29F08B
:1005B0000E94400281110C9400000895833081F064
:1005C00028F4813099F08230A1F008958730A9F0A5
:1005D0008830B9F08430D1F4809180008F7D03C0E1
:1005E000809180008F7780938000089584B58F7705
:1005F00002C084B58F7D84BD08958091B0008F774F
:1006000003C08091B0008F7D8093B00008953FB704
:10061000F8948091C7039091C803A091C903B09149
:10062000CA0326B5A89B05C02F3F19F00196A11D4E
:10063000B11D3FBFBA2FA92F982F8827820F911D78
:10064000A11DB11DBC01CD0143E0660F771F881FBE
:10065000991F4A95D1F70895CF93DF93EC019C81C0
:100660008E81981758F4E881F9810084F185E02D96
:1006700042E0CE0109958C818F5F8C83DF91CF9111
:10068000089585ED8093BC008091BC0084FDFCCF73
:100690001092510408954091A103262F30E0240FB9
:1006A000311D21323105DCF4209151042430C9F48C
:1006B000FC0180E090E0861758F43091A10321916D
:1006C000DC01A158BC4FA30FB11D2C930196F3CFB1
:1006D0008091A103680F6093A10380E0089581E0F9
:1006E000089582E0089508958FEF9FEF08958FEFAA
:1006F0009FEF089580917E0390E0919581959109F7
:100700000895CF92DF92EF92FF920F931F93CF93B2
:10071000DF937C01262F972F8A0180915204882332
:1007200091F0C62FD72F6E01C40ED51ECC15DD0556
:1007300071F06991D701ED91FC910190F081E02D6C
:10074000C7010995F3CF642F822F0E944B03C80184
:10075000DF91CF911F910F91FF90EF90DF90CF909D
:100760000895CF93DF931F92CDB7DEB769832091B1
:1007700052042223D1F020917504203240F021E070
:1007800030E0FC013383228380E090E015C080914B
:100790005304E82FF0E0EC5AFB4F998190838F5F70
:1007A000809353048093750405C061E0CE010196E7
:1007B0000E944B0381E090E00F90DF91CF9108956C
:1007C000089580E090E008950E94C71F0F931F9343
:1007D000CF93DF93EC01062F142F8E85813120F407
:1007E000882329F0411103C00E94FF0E1E868E85CA
:1007F000811113C08D8591E090935204809374040D
:100800001092530410927504112311F060E401C09A
:1008100060E082E495E00E94B103602F82E495E0FD
:100820000E94B103123021F48E858F5F8E8703C042
:100830000E94FF0E1E86DF91CF911F910F910895A8
:100840006115710579F0FB0101900020E9F73197FE
:10085000AF01461B570BDC01ED91FC910280F38147
:10086000E02D099480E090E008950F931F93CF93BB
:10087000DF93EC010E9420048C016BE471E0CE0157
:100880000E942004800F911FDF91CF911F910F9143
:1008900008951F920F920FB60F9211242F933F933A
:1008A0004F935F936F937F938F939F93AF93BF9378
:1008B000EF93FF9385EA94E00E944A02FF91EF9143
:1008C000BF91AF919F918F917F916F915F914F9168
:1008D0003F912F910F900FBE0F901F9018951F9270
:1008E0000F920FB60F9211242F938F939F93EF9334
:1008F000FF93E091B504F091B6048081E091BB04D0
:10090000F091BC0482FD12C090818091BE048F5F83
:100910008F732091BF04821751F0E091BE04F0E084
:10092000EB55FB4F958F8093BE0401C08081FF91F2
:10093000EF919F918F912F910F900FBE0F901F906D
:100940001895CF93DF93282F30E0F901EC5FFE4F2D
:100950008491F901E75AFE4FD491F901EB5BFE4F08
:10096000C491CC2391F081110E94DE02EC2FF0E0C3
:10097000EE0FFF1FE650FF4FA591B491EC91ED23D0
:1009800081E090E021F480E002C080E090E0DF911F
:10099000CF9108951F93CF93DF93282F30E0F90173
:1009A000EC5FFE4F8491F901E75AFE4FD491F901B3
:1009B000EB5BFE4FC491CC23C9F0162F81110E942E
:1009C000DE02EC2FF0E0EE0FFF1FEF5CFE4FA59173
:1009D000B4918FB7F894111105C09C91ED2FE0955B
:1009E000E92302C0EC91ED2BEC938FBFDF91CF9107
:1009F0001F9108958F929F92AF92BF92CF92DF92F4
:100A0000EF92FF926B017C010E9407034B015C0196
:100A1000C114D104E104F104F1F00E940703DC01E8
:100A2000CB0188199909AA09BB09883E9340A10501
:100A3000B10570F321E0C21AD108E108F10888EE8F
:100A4000880E83E0981EA11CB11CC114D104E104DE
:100A5000F10419F7DDCFFF90EF90DF90CF90BF90BA
:100A6000AF909F908F9008951F920F920FB60F92A4
:100A700011242F933F938F939F93AF93BF938091B4
:100A8000D3039091D403A091D503B091D6033091B4
:100A9000C60326E0230F2D3720F40296A11DB11DB9
:100AA00005C029E8230F0396A11DB11D2093C6039D
:100AB0008093D3039093D403A093D503B093D6032C
:100AC0008091C7039091C803A091C903B091CA0354
:100AD0000196A11DB11D8093C7039093C803A093F5
:100AE000C903B093CA03BF91AF919F918F913F917A
:100AF0002F910F900FBE0F901F901895DC01ED9174
:100B0000FC910084F185E02D40E009940F931F9340
:100B1000CF938C01FC0164839085C62FC90F6C2F85
:100B20006F70C8010E947E056C2F62956F706061C6
:100B3000C801CF911F910F910C947E050F931F93C5
:100B4000CF93DF931F92CDB7DEB78C01FC01868176
:100B5000681728F4C80149830E9486054981F80175
:100B60008781869586958695481758F44583642F26
:100B7000606BC8010F90DF91CF911F910F910C9482
:100B80007E050F90DF91CF911F910F910895CF9225
:100B9000DF92EF92FF920F931F93CF93DF93EC01BD
:100BA000F62EC42ED22E8F818695869586950817AF
:100BB00010F00FEF080F1D2D011780F0412F6F2D42
:100BC000CE010E949E05EF2CCE1430F060E0CE01E5
:100BD0000E942C03E394F8CF1F5FEECF4D2D6F2DB5
:100BE000CE01DF91CF911F910F91FF90EF90DF9099
:100BF000CF900C949E052F923F924F925F926F92EE
:100C00007F928F929F92AF92BF92CF92DF92EF929C
:100C1000FF920F931F93CF93DF93CDB7DEB7279744
:100C20000FB6F894DEBF0FBECDBFDC011B960D9151
:100C30001C911C970115110509F462C19F838E83D5
:100C4000F801B49131964491319654903196A49123
:100C5000EA2EF12CF7E0EF0EF11C23E0F594E79477
:100C60002A95E1F7EB82F801349674913196E4917C
:100C7000671758F0862F90E02E2F30E0F901E70F2C
:100C8000F11D8E179F070CF473C06D3069F4AE81AF
:100C9000BF8116968C91882309F467C060E08E812D
:100CA0009F810E94860561C06A3009F029C1EE81EA
:100CB000FF8181856581D62E8E9DD00C1124878180
:100CC000869586958695D81630F08285882319F00A
:100CD00082E08287D12C4D2D60E08E819F810E9421
:100CE0009E05AE81BF811A968C911A97823008F4C6
:100CF0003CC015962C9115971B96ED91FC911C9775
:100D0000309741F03396E49119960C91E09FE02DD5
:100D1000112401C0E0E08FEF820F0E2F10E0095F79
:100D20001F4F93E0159507959A95E1F7080FEE810F
:100D3000FF81468141506481CF010E94C705AE8189
:100D4000BF8119968C9119976D2D8E9D600D112480
:100D5000660F660F660F17968C91861708F460E091
:100D600060648E819F810E947E0581E090E0CAC010
:100D700050E05B2BC8010696671BEE81FF81F18571
:100D8000F9834230510588F4452B09F019825E9CA5
:100D900090015F9C300D1124629F8001639F100DB4
:100DA0001124080F191F412C24C0EA2FE77021F0ED
:100DB00048E0442E4E1A01C0412CA82FFC0140E00F
:100DC00050E07E2F7A1B761728F47491470F511D3F
:100DD0003196F7CFFC01E60FF11D54904E9D800136
:100DE0004F9D100D5E9D100D1124020F131F080F53
:100DF000191FAE81BF811496BC91BC83EE81FF8127
:100E00003580652C712CCC24C394D12C812C912C51
:100E10007FEF7C0D7A838B81781708F05FC0212CDF
:100E2000AE81BF8119968C91281608F051C07A8145
:100E3000711102C0222051F0AE81BF8115964C91F4
:100E400015974F5F6C81CD010E949E05A12CB12C9E
:100E5000A51488F5F501E80DF91DE00FF11F2491A7
:100E6000442061F0CE14DF0449F4E22FF0E0042CBA
:100E700002C0F595E7950A94E2F72E2FEE81FF81E7
:100E80008185823079F4E22F2110E295EF70F0E055
:100E9000E651FF4F2491622F8E819F812D830E9406
:100EA0002C032D81622F8E819F810E942C03FFEFE6
:100EB000AF1ABF0ACDCFB12C7981B71639F060E0F7
:100EC0008E819F810E942C03B394F6CF2394A8CFE8
:100ED000860C971CBFEFCB1ADB0A9ACFAE81BF817D
:100EE00017968C911797869586958695381608F0F3
:100EF0003CCF15963C921597632D606BCD0133CF97
:100F000080E090E027960FB6F894DEBF0FBECDBF0D
:100F1000DF91CF911F910F91FF90EF90DF90CF90D5
:100F2000BF90AF909F908F907F906F905F904F9009
:100F30003F902F900895CF9340E060E08EE495E0DD
:100F40000E949E05C0917B03C230D8F48EE491E0EC
:100F50000E947B0DC11103C08EE38093900460E971
:100F600074E08EE495E00E94350489E591E00E94EA
:100F70007B0D80917B038130F1F58EE380939004AB
:100F80003AC08EEF8C0F8230F8F48091DF03882313
:100F900019F084E691E002C08FE691E00E947B0D9B
:100FA000C23019F48EE38093900460E974E08EE41B
:100FB00095E00E9435048AE791E00E947B0D8091C4
:100FC0007B038330C1F4D9CF8CEF8C0F8230D0F407
:100FD00085E891E00E947B0DC43019F48EE3809384
:100FE000900460E974E08EE495E00E94350480E9A5
:100FF00091E00E947B0D60E974E08EE495E0CF9172
:101000000C943504CF9108951F920F920FB60F9252
:1010100011242F933F934F935F936F937F938F93FD
:101020009F93AF93BF93EF93FF938091B900887F15
:10103000803609F49CC068F5883209F45BC090F4EE
:10104000803109F454C038F4882309F4F6C088309C
:1010500009F44DC0F6C0883109F44CC0803209F45F
:101060005DC0EFC0803409F468C048F4803309F4EF
:1010700055C0883309F0E5C080934F04D8C080354F
:1010800009F44FC0883509F45DC0883409F0D9C02F
:10109000D6C0883909F4C7C0A8F4883709F467C0F6
:1010A00038F4883609F463C0803709F460C0C9C0D9
:1010B000883809F4B8C0803909F45FC0803809F075
:1010C000C0C05BC0803B09F486C038F4803A09F4A4
:1010D00066C0883A09F47FC0B4C0803C09F4A7C058
:1010E000883C09F4A4C0883B09F48AC0AAC0809156
:1010F0002C0410C090914E0480914D04981770F507
:10110000E0914E0481E08E0F80934E04F0E0E35DA9
:10111000FB4F80818093BB0085EC86C080934F0499
:101120008EC0E0914E0481E08E0F80934E0480913A
:10113000BB00F0E0E35DFB4F808390914E04809113
:101140004D046EC0E0914E0481E08E0F80934E04FA
:101150008091BB00F0E0E35DFB4F80838091500401
:1011600081116DC081E080932B0484EA61C083E02B
:10117000809351041092C503CFCF8091C503803274
:1011800008F051C0E091C50381E08E0F8093C50344
:101190008091BB00F0E0EB55FC4F8083BDCF85EC28
:1011A0008093BC00109251048091C503803230F4CA
:1011B000E091C503F0E0EB55FC4F10826091C50350
:1011C00070E0E091A303F091A40385EA93E0099510
:1011D0001092C50336C084E0809351041092A2039C
:1011E0001092A103E0919F03F091A00309958091D3
:1011F000A103811105C081E08093A10310927F03B8
:10120000E091A20381E08E0F8093A203F0E0E15809
:10121000FC4F80818093BB009091A2038091A10339
:10122000981708F479CF85E88093BC000AC085EC54
:101230008093BC001092510404C010924F040E948D
:101240004103FF91EF91BF91AF919F918F917F915A
:101250006F915F914F913F912F910F900FBE0F9023
:101260001F901895CF93DF93EB010E94481B888352
:10127000CE01DF91CF9108951895189518959FB7D5
:10128000F89480917D03882319F0815080937D0329
:1012900080917D03811105C08CB58F7B8CBD109230
:1012A0007C039FBF62E070E080E090E00E94FA045F
:1012B00085B1817D85B9089561E080ED0E94830D3F
:1012C00081E090917604903609F080E008956F9265
:1012D0007F928F929F92AF92BF92CF92DF92EF92C6
:1012E000FF920F931F93CF93DF936B017C01142F19
:1012F000052F97FF0BC0F094E094D094C094C11CCC
:10130000D11CE11CF11C7724739401C0712CC12FF6
:10131000D02F8AE0882E912CA12CB12C96EF692E2B
:10132000C701B601A50194010E946C1FFE01319610
:1013300080E38C0DC82E629EC00C1124C8828E2FB3
:10134000811B69017A01C114D104E104F10411F097
:10135000EF01E6CF772021F031969DE299838F5FF0
:10136000A12FB02F3197AE17BF0728F490812C9191
:1013700020839D93F7CFDF91CF911F910F91FF9025
:10138000EF90DF90CF90BF90AF909F908F907F9025
:101390006F900895CF92DF92EF92FF926B017C01E4
:1013A00020E030E0A9010E942A1D20E030E040E06A
:1013B0005FE318162CF4C701B6010E945F1B04C03E
:1013C000C701B6010E945E1B0E94421CFF90EF9075
:1013D000DF90CF900895CF92DF92EF92FF92CF935C
:1013E000DF9300D000D0CDB7DEB76091DD03709100
:1013F000DE03072E000C880B990B0E947A1C24EF49
:101400003DEF44ED5BE30E942F1D6B017C01609179
:10141000CF037091D0038091D1039091D2030E94A9
:101420007A1C2AE037ED43E25CE30E942F1D23E3A0
:1014300033E948E853E40E945F1BA70196010E942C
:101440005F1B9B01AC01C701B6010E94D01B9B0131
:10145000AC0160E070E080E89FE30E945E1B28E53D
:1014600039E348EA50EC0E949C1D9B01AC0160915D
:10147000CB037091CC038091CD039091CE0329834F
:101480003A834B835C830E94781C29813A814B818B
:101490005C810E942F1D0F900F900F900F90DF9195
:1014A000CF91FF90EF90DF90CF900C94CA09CF922C
:1014B000DF92EF92FF926091D9037091DA038091ED
:1014C000DB039091DC030E94781C6B017C0160912E
:1014D000CB037091CC038091CD039091CE030E94F9
:1014E000781C9B01AC01C701B6010E94D01B24EB04
:1014F00039EC42E45EE30E949C1D20E030E040E8CD
:101500005FE30E945E1B6B017C016091CF037091D1
:10151000D0038091D1039091D2030E947A1C2AE0DB
:1015200037ED43E25CE30E942F1D23E333E948E8F3
:1015300053E40E945F1B9B01AC01C701B6010E94EE
:101540002F1D2EE938ED49E153E40E942F1D0E9422
:10155000CA09CB01FF90EF90DF90CF900895CF9311
:10156000C82F40E060E08EE495E00E949E059091D7
:101570007B0391111DC0CC2351F00E94EB096093B5
:10158000D9037093DA038093DB039093DC036BE958
:1015900071E08EE495E00E9435040E946F0D609129
:1015A000DD037091DE03072E000C880B990B57C0EA
:1015B000913019F5CC2331F00E94570A9093DE0345
:1015C0008093DD0366EA71E08EE495E00E943504C5
:1015D0000E946F0D6091D9037091DA038091DB0353
:1015E0009091DC030E94781C20E030E048EC52E44B
:1015F0000E94D01B0E94CA0932C09330A1F461EB53
:1016000071E08EE495E00E9435040E946F0DE09138
:10161000D703F0E0EE0FFF1FEB5FFE4F608171819B
:1016200080E090E01CC09430F1F48091D8038536BE
:1016300014F084E603C08C391CF48CE98093D80341
:101640006CEB71E08EE495E00E9435040E946F0D12
:101650006091D803062E000C770B880B990B40E99C
:1016600054E00E94670960E974E08EE495E0CF9150
:101670000C9435044091E5035091E6036091E70333
:101680007091E8034093E1035093E2036093E30316
:101690007093E40381114FC08091E003811104C075
:1016A00081E08093E0030CC0813061F480917B0382
:1016B00090E0019665E070E00E94361F80937B0306
:1016C0000C949B07823009F09AC080917B038111B2
:1016D00006C08091DD039091DE03019752C08130F6
:1016E000C9F46091D9037091DA038091DB03909182
:1016F000DC030E94781C20E030E048EC52E40E94B9
:10170000D01B0E94CA099B01AC012150310941093B
:10171000510956C0833031F48091D703882349F0B2
:10172000815063C0843029F48091D8038A5080931B
:10173000D80381E018C0813009F061C08091E003D6
:10174000813099F480917B03823049F48091DF03EA
:1017500090E00196817099278093DF03B1CF82E0FA
:101760008093E00380E00C94AF0A823009F047C018
:1017700080917B0381110AC08091DD039091DE038B
:1017800001969093DE038093DD03D3CF813029F55A
:101790006091D9037091DA038091DB039091DC03AF
:1017A0000E94781C20E030E048EC52E40E94D01BFC
:1017B0000E94CA099B01AC012F5F3F4F4F4F5F4F03
:1017C000A4E6B0E00E948B1F6093D9037093DA0304
:1017D0008093DB039093DC03ACCF833049F480919A
:1017E000D703853008F0A5CF8F5F8093D703A1CFB3
:1017F000843009F09ECF8091D803865F98CF0895FA
:101800008091DF03882359F00E94EB096093D9038C
:101810007093DA038093DB039093DC0308950E94B6
:10182000570A9093DE038093DD030895EF92FF92B1
:101830000F931F93CF93DF931F92CDB7DEB77C0139
:10184000FC0100811181C80169830E94481B6981E4
:10185000681719F0C8010E94501BC7010F90DF9153
:10186000CF911F910F91FF90EF9008950F931F93C9
:10187000CF93DF9300D0CDB7DEB78B01FB01608142
:101880009A838983CE0101960E94160CC8010F909D
:101890000F90DF91CF911F910F91089580917C035C
:1018A000882361F09FB7F89420917C0380917A039C
:1018B000213019F48DBB9FBF08958FBF08958EBD51
:1018C00000000DB407FEFDCF8EB5089520917C0376
:1018D000222379F02FB7F89430917C03313039F41A
:1018E0003DB330937A033DB33DBB2FBF02C020937D
:1018F0007A038CBD9DBD089571E0539A5298000003
:1019000000000000AED05398ACD0A89400000000B6
:1019100000004B9B92D0B2F088944A990894771FAC
:1019200060F7539A803011F0529801C0529A00002B
:101930000000000096D05398A894000000004B9B34
:101940007CD08FD000000000539A872F99270895EC
:1019500080E208950894881F01C0880FB9F0539A57
:1019600000000000000018F40000529802C0529AD3
:1019700000C077D05398A8940000000000004B9B53
:101980005CD012F4882712C06CD0E7CF539A0000C5
:101990000000529866D0992788275398A894000091
:1019A0004B9B4BD07AF34A9B81E05BD00000000058
:1019B000539A089581E00895539A529A52D05398B9
:1019C00050D04B9B3AD052984CD0789408958F9336
:1019D0008F918F93F8944B9B30D0529A42D0BADFBC
:1019E000882311F4E9DFF4CF0F9008950895F89457
:1019F000539A37D0529835D0539833D04B9B1DD043
:101A0000529A2FD0A7DF089581E00895F8944B9B58
:101A100014D0529A26D09EDF089581E008955298FE
:101A200053985A985B98882799274A9B08954B9B0F
:101A3000089581E0089581E00895B0E0A8EC0024C5
:101A400009D032F40A94E1F71197C9F7289408C035
:101A5000A89406C0A8944B9901C02894000008954A
:101A6000089598E09A95F1F708950895CF93DF933C
:101A7000EC0181E090E00E94481B888382E090E0C6
:101A80000E94481B8983CE01DF91CF910895EF9288
:101A9000FF920F931F93CF93DF937C018C01C3E0E0
:101AA000D0E0CE010E94481BF80181938F0121965E
:101AB000C730D105B1F7C701DF91CF911F910F91C9
:101AC000FF90EF900895CF93DF93EC0187E090E0D3
:101AD0000E94481B8883CE01DF91CF910895E0E9F1
:101AE000F4E08AE08E0F90E28E1711F09193FCCF14
:101AF0001092A4040895DC01E0E9F4E09D91919333
:101B00009111FCCF0895EF92FF921F93CF93DF9333
:101B1000C82F162F80E590E00E94660C60E08AE0F6
:101B20000E94CA048C2F80680E945F0C86E7E82E12
:101B300084E0F82EE7018C2F8E19811728F480E0BD
:101B40000E945F0C8993F7CF61E08AE00E94CA048B
:101B5000DF91CF911F91FF90EF900C944E0CCF939B
:101B6000C82F80E590E00E94660C60E08AE00E9449
:101B7000CA048C2F8F770E945F0C809176040E949C
:101B80005F0C61E08AE00E94CA04CF910C944E0C75
:101B9000BC0185EA94E00C942004E091A504F09146
:101BA000A6040190F081E02D682F85EA94E0099465
:101BB0008F929F92AF92BF920F931F93CF93DF9319
:101BC000CDB7DEB7A1970FB6F894DEBF0FBECDBF7D
:101BD00019A2423008F44AE08E010F5D1F4F842E97
:101BE000912CA12CB12CA50194010E944A1FE62F33
:101BF000B901CA0101501109EA3014F4E05D01C0D5
:101C0000E95CD801EC93232B242B252B61F7B80139
:101C100085EA94E00E942004A1960FB6F894DEBFF6
:101C20000FBECDBFDF91CF911F910F91BF90AF90AD
:101C30009F908F9008958F929F92AF92BF92CF9274
:101C4000DF92EF92FF92CF93DF936B017C019B01B8
:101C5000AC010E94EC1D882319F06EE673E027C0EA
:101C600046015701E894B7F82FEF3FEF4FE75FE7E2
:101C7000C501B4010E94EC1D81110DC02FEF3FEF93
:101C80004FE75FE7C501B4010E94CB1B18161CF497
:101C900062E773E00CC02FEF3FEF4FE75FE4C7014F
:101CA000B6010E942A1D181684F466E773E085EADF
:101CB00094E0DF91CF91FF90EF90DF90CF90BF90B5
:101CC000AF909F908F900C9420042FEF3FEF4FE741
:101CD0005FECC701B6010E94CB1B87FDE6CF20E079
:101CE00030E0A901C701B6010E94CB1B87FF09C0E4
:101CF0008DE20E94CD0DEC01F7FAF094F7F8F09424
:101D000002C0C0E0D0E02AE037ED43EA5BE3C70160
:101D1000B6010E945F1B4B015C010E94491C6B01D4
:101D20007C010E94781C9B01AC01C501B4010E949A
:101D30005E1B4B015C014AE0C701B6010E94D80D51
:101D4000C80FD91F8EE20E94CD0DC80FD91F20E009
:101D500030E040E251E4C501B4010E942F1D4B0167
:101D60005C010E94491C6B01E12CF12C4AE0C70187
:101D7000B6010E94D80DC80FD91FC701B6010E9435
:101D8000781C9B01AC01C501B4010E945E1B20E0E0
:101D900030E040E251E40E942F1D0E94491C80E087
:101DA00090E04AE00E94D80D8C0F9D1FDF91CF91EB
:101DB000FF90EF90DF90CF90BF90AF909F908F906B
:101DC00008950F93009155050695069506950150C7
:101DD00040915405415020E060E08EE495E00E947F
:101DE000C70581E090915805911101C080E0809372
:101DF000580560E48EE495E00F910C947E052091E7
:101E0000750490917404213208F04AC08091510405
:101E10008111FCCF32E03093510431E03093500413
:101E20003FEF30934F0410924E0420934D04A4E5ED
:101E3000B4E04DE254E0FA013E2F341B321718F49F
:101E40003D913193F9CF10922C0420912C04990FDD
:101E5000922B90932C0490912B04913061F410926A
:101E60002B0490912C049093BB009091BC0093FDA7
:101E7000F8CF95EC01C095EE9093BC009091510481
:101E80009230E1F390914F049F3F79F080914F049D
:101E9000803241F080914F04803331F084E005C0FE
:101EA00081E003C082E001C083E0109253041092ED
:101EB0007504109252040895CF93DF93CDB7DEB727
:101EC0006D970FB6F894DEBF0FBECDBF789484B582
:101ED000826084BD84B5816084BD85B5826085BD26
:101EE00085B5816085BD80916E00816080936E00B4
:101EF00010928100809181008260809381008091A6
:101F00008100816080938100809180008160809356
:101F100080008091B10084608093B1008091B00016
:101F200081608093B00080917A00846080937A0011
:101F300080917A00826080937A0080917A008E7F0F
:101F400080937A0080917A00806880937A00109262
:101F5000C100A7E1B1E032E03A0F8D9190E0FC01C1
:101F6000E75AFE4F2491FC01EB5BFE4F84918823DE
:101F7000D1F090E0880F991FFC01E55CFE4F459180
:101F80005491FC01EF5CFE4F659174919FB7F894FA
:101F9000FA011081822F809581238083FB0180814B
:101FA000822B80839FBF3A13D8CF80917A00809391
:101FB0000E0410927A0084B18E6284B983B7817F57
:101FC000846083BF85E08093680081E080936B002C
:101FD00080E280936D00E091B504F091B60482E058
:101FE0008083E091B104F091B2041082E091B304D7
:101FF000F091B40488E080831092BD04E091B904AC
:10200000F091BA0486E08083E091B704F091B804BF
:10201000808180618083E091B704F091B804808171
:1020200088608083E091B704F091B8048081806873
:102030008083E091B704F091B80480818F7D808324
:1020400067EC71E085EA94E00E94350410925C052B
:102050008CE380935B051092520510925305E3E5E3
:10206000F3E085919491E82EE5E5F3E0F490E6E560
:10207000F3E0E491E0935405E7E5F3E0E491E093C5
:102080005505E8E5F3E0E491E09356058C01802FD7
:102090008E198F1548F4F80164918EE495E00E9442
:1020A0007E050F5F1F4FF3CF109258050E94E10E7F
:1020B0008DE691E090935A05809359050E94E10EB8
:1020C00082E08093570585B1866085B962E070E053
:1020D00080E090E00E94FA040E945C09811121C016
:1020E0000E943F0963ED71E085EA94E00E943504A7
:1020F00040E060E08EE495E00E949E0566EE71E0AF
:102100008EE495E00E94350461EF71E08EE495E085
:102110000E94350468EE73E080E090E00E94FA04CB
:10212000D2CF6AE188E80E94830D8091770490E025
:10213000982F882720917604822B90930D0480930A
:102140000C048091790490E0982F882720917804DE
:10215000822B90930B0480930A0480917B0490E07F
:10216000982F882720917A04822B909309048093DA
:10217000080480917D0490E0982F882720917C04AA
:10218000822B9093F9038093F80380917F0490E071
:10219000982F882720917E04822B9093FB038093B5
:1021A000FA038091810490E0982F88272091800481
:1021B000822B9093FD038093FC038091830490E035
:1021C000982F882720918204822B9093FF0380937D
:1021D000FE038091850490E0982F88272091840445
:1021E000822B90930104809300048091870490E0F7
:1021F000982F882720918604822B90930304809344
:1022000002048091890490E0982F88272091880407
:10221000822B9093F3038093F20380918B0490E0E0
:10222000982F882720918A04822B9093F50380931E
:10223000F40380918D0490E0982F882720918C04DE
:10224000822B9093F7038093F60380918F04809301
:10225000E90367E081EE0E94830D8091770490E0AE
:10226000982F882720917604822B9093EB038093FC
:10227000EA03809178048093EC0320917904909193
:102280007A04F0E12F0290011124892F8F70282BFE
:102290003093F1032093F00380917B0440E18402AA
:1022A00090011124892F90E044E0959587954A95F7
:1022B000E1F7822B932B9093EF038093EE038091B1
:1022C0007C048093ED030E943F096FED73E080E092
:1022D00090E00E9432091091DF03612F70E080E0EE
:1022E00090E00E94781C9B01AC010E94EC1D8111C2
:1022F0000C94E41A1F3F11F40C94E41A8DED93E052
:102300000E94360D0091DD031091DE03B801012E0D
:10231000000C880B990B0E947A1C9B01AC010E9457
:10232000EC1D81110C94E81A0F3F1F4F11F40C940F
:10233000E81A89ED93E00E94470DC090D903D09030
:10234000DA03E090DB03F090DC03C701B6010E94E2
:10235000781C9B01AC010E94EC1D81110C94F01AB9
:10236000CF20CE20CD20C09411F40C94F01A88ED2B
:1023700093E00E94630D6091D803062E000C770B4A
:10238000880B990B0E947A1C9B01AC010E94EC1DEA
:1023900081111092D80367ED73E088E090E00E940D
:1023A00032091091D703612F70E080E090E00E9425
:1023B000781C9B01AC010E94EC1D81110C94FE1A4B
:1023C000163010F00C94FE1AEDE5F1E02491E9E4EA
:1023D000F1E08491882399F090E0880F991FFC0127
:1023E000E55CFE4FA591B491FC01EF5CFE4F859139
:1023F00094918FB7F894EC91E22BEC938FBF61E04E
:1024000084E00E94CA0462E070E080E090E00E94F4
:10241000FA040E940F0D2FB7F8948091D303909186
:10242000D403A091D503B091D6032FBF8093E503C9
:102430009093E603A093E703B093E803B2E0EB2E9A
:10244000B1E0FB2E10E0C12E11E0D12E0FE114E01F
:1024500027E131E03D8B2C8B412C512C3201342C67
:10246000AC89BD898D91BD8BAC8B0E94A104282FB6
:1024700080930401F70180814091E5035091E603C8
:102480006091E7037091E803281781F040932704D7
:10249000509328046093290470932A04D8014D9323
:1024A0005D936D937C93139720835CC0F8018081CA
:1024B0009181A281B381481B590B6A0B7B0B4B3076
:1024C00051056105710508F44DC0D6018C91821744
:1024D00009F448C02C93213081F48CEF91E00E94E4
:1024E000C80D4AE0C301B2010E94D80D6BE471E04F
:1024F00085EA94E00E94200435C081E092E00E94C9
:10250000C80D4AE0C301B2010E94D80D6BE471E02E
:1025100085EA94E00E9420048091E5039091E6030F
:10252000A091E703B091E8038090E1039090E2036B
:10253000A090E303B090E4039C01AD012819390990
:102540004A095B09233331054105510558F0809351
:102550001B0490931C04A0931D04B0931E04842DAF
:102560000E943A0BD6018D916D0181112EC0809190
:10257000E5039091E603A091E703B091E803809012
:102580001B0490901C04A0901D04B0901E049C019C
:10259000AD01281939094A095B09293E3340410533
:1025A000510598F04091E1035091E2036091E303FB
:1025B0007091E403841B950BA60BB70BC397A10581
:1025C000B10518F0832D0E943A0B7FEFE71AF70A46
:1025D0000C5F1F4F4A9445284628472829F0412C74
:1025E000512C320143943BCF8091E003882309F4BE
:1025F000B9C08091E5039091E603A091E703B09103
:10260000E8034091E1035091E2036091E30370918C
:10261000E403841B950BA60BB70B813D9740A105E6
:10262000B10508F49FC0BE01645F7F4F80E090E079
:102630000E9432099C858091DF03981761F06FED4D
:1026400073E080E090E00E94360C65E072E085EA7D
:1026500094E00E943504CE0109960E94360D29852A
:102660003A858091DD039091DE0328173907D1F078
:102670006091DD0381E090E09A838983CE01019629
:102680000E94160C6091DE0382E090E09A838983B9
:10269000CE0101960E94160C69E072E085EA94E092
:1026A0000E943504CE0101960E94470D49815A814E
:1026B0006B817C818091D9039091DA03A091DB0337
:1026C000B091DC03481759076A077B07D1F0F9ED91
:1026D000EF2EF3E0FF2E03E010E0D7016D917D01B6
:1026E00018870F83CE0107960E94160C0F5F1F4FAD
:1026F0000730110591F764E172E085EA94E00E94E9
:102700003504CE010B960E94630D8B856091D80332
:10271000861771F087E090E098878F83CE01079647
:102720000E94160C60E272E085EA94E00E94350493
:10273000BE01695F7F4F88E090E00E9432099F816F
:102740008091D703981761F067ED73E088E090E01F
:102750000E94360C6CE272E085EA94E00E94350437
:102760001092E0038091E00381112AC78091E50374
:102770009091E603A091E703B091E803409127040C
:10278000509128046091290470912A04841B950BB0
:10279000A60BB70B0B97A105B10508F411C785B1BE
:1027A000866085B962E070E080E090E00E94FA0403
:1027B0000E945C09811119C00E943F096DE372E01B
:1027C00085EA94E00E94350440E060E08EE495E004
:1027D0000E949E056FE472E08EE495E00E9435044D
:1027E0006AE572E08EE495E079C681E08093760434
:1027F00082EF0E94AF0D85E28093760484EF0E9401
:10280000AF0D6AE070E080E090E00E94FA0468E0BA
:1028100087EF0E94830D80907604898A90907704D8
:102820009A8AA0907804AB8AC0907A04D12CE12CCB
:10283000F12C24E0CC0CDD1CEE1CFF1C2A95D1F7FA
:102840008091790490E0A0E0B0E03CE0880F991F0F
:10285000AA1FBB1F3A95D1F78C299D29AE29BF2904
:10286000C0907B04D12CE12CF12C44E0F694E79449
:10287000D794C7944A95D1F7C82AD92AEA2AFB2ABD
:1028800080917C0490E0A0E0B0E0BA2FA92F982FAF
:10289000882720917D044C015D01822A8C8A9D8AC3
:1028A000AE8ABF8A80900C0490900D0426013701F7
:1028B00063E076946794579447946A95D1F7A12C76
:1028C000B12CAEEFBFEFA50194010E94991FA301A7
:1028D0009201260F371F481F591FA0910A04B0917B
:1028E0000B040E94961F2B013C01D701C60174E026
:1028F000B695A795979587957A95D1F7BC01CD01A7
:10290000681979098A099B099B01AC010E94261F5D
:102910009B01AC01ECE05595479537952795EA95D5
:10292000D1F7A0910804B09109040E94961F6B0191
:102930007C01C301B20120E038E040E050E00E9499
:102940006C1F49015A01C701B60120E030E440E0A4
:1029500050E00E946C1FC501B401620F731F841FF9
:10296000951F6D877E878F87988B60930404709383
:1029700005048093060490930704A5E0B0E09B0152
:10298000AC010E948B1F60587F4F8F4F9F4F20E0FC
:1029900031E040E050E00E946C1F203670EF3707B6
:1029A0007FEF470757072CF480E690EFAFEFBFEFBC
:1029B00013C0253381E23807410551054CF42093BB
:1029C000CF033093D0034093D1035093D2030CC074
:1029D00084E391E2A0E0B0E08093CF039093D00332
:1029E000A093D103B093D20302E0402E512C612C6E
:1029F000712C6D857E858F859889A30192010E9437
:102A00006C1F69017A019AEFD91AE108F108C70130
:102A1000B60124E030E040E050E00E946C1FCA01A3
:102A2000B9010E94261F4B015C0100910204109124
:102A300003042090000430900104A091FE03B091A3
:102A4000FF03B98FA88FA091FC03B091FD039B01F8
:102A5000AC018DE055954795379527958A95D1F727
:102A60000E94961F28E030E040E050E00E946C1F7A
:102A70002A8F3B8F4C8F5D8FA091FA03B091FB039F
:102A8000A70196010E94961FA30192010E946C1F4C
:102A90006A8D7B8D8C8D9D8D620F731F841F951F9A
:102AA00020E030E044E050E00E946C1F30584F4F6F
:102AB0005F4FA091F803B091F9030E948B1F2B0187
:102AC0003C019FE075946794579447949A95D1F789
:102AD000411451046104710409F418C1A501940161
:102AE0008BE055954795379527958A95D1F7D8016D
:102AF0000E94961F4B015C01D101A70196010E9423
:102B0000961FDC01CB01880F991FAA1FBB1FBC01B8
:102B1000CD01680D791D8A1D9B1D24E030E040E049
:102B200050E00E946C1F8988C82CD12CE12CF12C1C
:102B30006CE0CC0CDD1CEE1CFF1C6A95D1F79A886A
:102B4000892D90E0A0E0B0E074E0880F991FAA1FE3
:102B5000BB1F7A95D1F7C82AD92AEA2AFB2AAB8863
:102B60008A2D90E0A0E0B0E0E4E0B695A7959795B7
:102B70008795EA95D1F78C299D29AE29BF29C12CCB
:102B8000D12CF0E1EF2EF12CC81AD90AEA0AFB0A7F
:102B9000888C998CC401990CAA0BBB0BDC0199277A
:102BA0008827BC01CD01620F731F841F951F20E091
:102BB00030E140E050E00E946C1FC701B601621B8B
:102BC000730B840B950B9B01AC01A5E3BCE00E9449
:102BD0008B1F97FD11C0660F771F881F991FA301D8
:102BE00092010E944A1F2093CB033093CC03409361
:102BF000CD035093CE0312C0A30192010E944A1F3D
:102C0000DA01C901880F991FAA1FBB1F8093CB034C
:102C10009093CC03A093CD03B093CE03C090CB038D
:102C2000D090CC03E090CD03F090CE03C701B60165
:102C3000E3E09695879577956795EA95D1F7E091CA
:102C4000F603F091F7039B01AC010E94261F9B0144
:102C5000AC01ADE05695479537952795AA95D1F7E4
:102C6000DF010E94961F20E030E140E050E00E942A
:102C70006C1F49015A01A7019601B2E0569547958C
:102C800037952795BA95D1F7A091F403B091F50344
:102C90000E94961F20E030E240E050E00E946C1F4E
:102CA000820E931EA41EB51E8091F2039091F30331
:102CB000092E000CAA0BBB0BBC01CD01680D791DC0
:102CC0008A1D9B1D20E130E040E050E00E946C1F17
:102CD000C20ED31EE41EF51E8091D803082E000CF0
:102CE000990BAA0BBB0BC80ED91EEA1EFB1EC09285
:102CF000CB03D092CC03E092CD03F092CE0370E3ED
:102D0000C71675E7D706E104F10428F480E395E7D8
:102D1000A0E0B0E00CC081EBC8168DEAD80681E0D7
:102D2000E806F10460F080EB9DEAA1E0B0E080935A
:102D3000CB039093CC03A093CD03B093CE03CD846B
:102D4000DE84EF84F8889CE2D91A91E0E90AF10860
:102D50008C889D88AE88BF885EE0880C991CAA1C70
:102D6000BB1C5A95D1F78091F0039091F103092E85
:102D7000000CAA0BBB0B64E1880F991FAA1FBB1F95
:102D80006A95D1F7881A990AAA0ABB0AA091EE039C
:102D9000B091EF03A70196010E94961FA50194012F
:102DA000261B370B480B590BCA01B901705C8F4FBA
:102DB0009F4F20E030E840E050E00E946C1F490146
:102DC0005A01A091ED030A2E000CBB0BA70196013E
:102DD0000E94961F20E034E040E050E00E946C1F0B
:102DE00029013A01A091EC03B0E0A70196010E94ED
:102DF0008B1F20E038E040E050E00E946C1FCA01C9
:102E0000B90170588F4F9F4FA30192010E94261F56
:102E100020E034E040E050E00E946C1F405E5F4FD5
:102E2000A091EA03B091EB030E94961F705E8F4F52
:102E30009F4F20E030E440E050E00E946C1FCA0148
:102E4000B901A50194010E94261F6B017C0120E0BD
:102E500030E840E050E00E946C1FCA01B9010E94B6
:102E6000261F9B01AC0177E055954795379527952F
:102E70007A95D1F7A091E903B0E00E948B1F20E181
:102E800030E040E050E00E946C1FC21AD30AE40A0E
:102E9000F50AF7FE03C0C12CD12C760131E0C31630
:102EA000D104E10439E1F3062CF0C12CD12CE12C42
:102EB00049E1F42E3CE0F594E794D794C7943A9511
:102EC000D1F741EAC41646E8D40641E0E406F1042D
:102ED0004CF4C0921304D0921404E0921504F092C2
:102EE00016040CC060EA76E881E090E06093130479
:102EF0007093140480931504909316040E943F0964
:102F00000E94000C6BE471E085EA94E00E942004CA
:102F100062E573E085EA94E00E94350485E692E07C
:102F20000E94C80D6091CF037091D0038091D103AE
:102F30009091D2030E947A1C20E030E048EC52E4E9
:102F40000E94D01B0E941B0E63E772E085EA94E0AA
:102F50000E94350488E792E00E94C80D6091170432
:102F6000709118048091190490911A040E941B0E0C
:102F700063E772E085EA94E00E9435048CE892E011
:102F80000E94C80D6091CF037091D0038091D1034E
:102F90009091D2030E947A1C20E030E048EC52E489
:102FA0000E94D01B9B01AC01609117047091180422
:102FB0008091190490911A040E945E1B0E941B0EBE
:102FC00063E772E085EA94E00E9435048FE992E0BD
:102FD0000E94C80D6091130470911404809115042F
:102FE000909116040E94781C20E030E04AE754E4F7
:102FF0000E94D01B0E941B0E6AEA72E085EA94E0F0
:103000000E9435048FEA92E00E94C80D60910F047F
:103010007091100480911104909112040E941B0E73
:103020006AEA72E085EA94E00E94350480EC92E05E
:103030000E94C80D609113047091140480911504CE
:10304000909116040E94781C20E030E04AE754E496
:103050000E94D01B9B01AC0160910F047091100481
:1030600080911104909112040E945E1B0E941B0E1D
:103070006AEA72E085EA94E00E9435048BED92E002
:103080000E94C80D6091CB037091CC038091CD0359
:103090009091CE030E94781C20E030E048EC52E48E
:1030A0000E94D01B0E941B0E60ED72E085EA94E046
:1030B0000E94350487ED92E00E94C80D6091D9030B
:1030C0007091DA038091DB039091DC030E94781CFD
:1030D00020E030E048EC52E40E94D01B0E941B0E1E
:1030E00060ED72E085EA94E00E94350486EE92E09D
:1030F0000E94C80DC090DD03D090DE030D2C000CA3
:10310000EE08FF08F7FE0CC08DE20E94CD0D662789
:103110007727CB016C197D098E099F094AE003C00E
:103120004AE0C701B6010E94D80D61EF72E085EA5E
:1031300094E00E94350480910E0480937A001AE096
:10314000C12CD12C760100E82EE4B22E00937A0037
:1031500080917A00876080937A00B0927C008091A1
:103160007A00806480937A0080917A0086FDFCCF9B
:10317000609178007091790080E090E00E94781C66
:1031800020E030E040E05FE30E945F1B9B01AC0168
:1031900060E070E889E894E40E94D01B20E030E011
:1031A00040E854E40E942F1D9B01AC01C701B60109
:1031B0000E945F1B6B017C01115041F686EF92E08B
:1031C0000E94C80D20E030E040E251E4C701B601A2
:1031D0000E94D01B0E94CA096B017C0197FF0CC0A2
:1031E0008DE20E94CD0D66277727CB016C197D09F2
:1031F0008E099F094AE001C04AE00E94D80D60E0B4
:1032000073E085EA94E00E94350410927A0088E821
:103210000E94060D811106C066E073E085EA94E025
:103220000E94350484E20E94AA0C811106C061E16B
:1032300073E085EA94E00E94350480E00E94AA0CC5
:10324000811106C06DE173E085EA94E00E943504C7
:103250000E94DC0C60E170E080E090E00E94FA04E3
:1032600088E80E94060D811106C069E273E085EAD4
:1032700094E00E94350480E00E94AA0C811106C0EF
:1032800064E373E085EA94E00E94350489E80E94D3
:10329000F70C811106C060E473E085EA94E00E94B7
:1032A0003504CE0101967C0110E081E0153009F073
:1032B00080E00E947C0CD7018D937D011F5F16304A
:1032C000A1F70E94DC0C698170E0762F66270C81E3
:1032D00010E0102F00278D81082B8A81682B80E059
:1032E00090E00E94781C20E030E04FE253E40E941E
:1032F0002F1D20E03FEF4FE757E40E94D01B20E056
:1033000030E044E352E40E945E1B60931704709324
:1033100018048093190490931A04B80180E090E097
:103320000E94781C20E030E048EC52E40E942F1DFF
:1033300020E03FEF4FE757E40E94D01B60930F045B
:103340007093100480931104909312048091CB0326
:103350009091CC03A091CD03B091CE03892B8A2B01
:103360008B2B09F4BDC06BE471E085EA94E00E9408
:1033700020046DE473E085EA94E00E9435040E9425
:10338000000C40E060E08EE495E00E949E050E9403
:103390006F0D6091CF037091D0038091D103909114
:1033A000D2030E947A1C20E030E040E251E40E9407
:1033B000D01B0E94CA096B017C0140E954E00E94C5
:1033C0006709282F30E0813021F0823061F4F7FE68
:1033D0000AC0D901A157BB4F8C91F901E057FB4FAF
:1033E000818380E307C0F901E157FB4F8081D90158
:1033F000A057BB4F8C938EE2808360911304709131
:10340000140480911504909116040E94781C20E009
:1034100030E04AE754E40E94D01B0E94CA0946E902
:1034200054E00E946709E82FF0E0E057FB4F85E287
:10343000868360E974E08EE495E00E9435048AE5B5
:1034400093E00E94C80D80E994E00E94C80D6DEAE7
:1034500072E085EA94E00E9435040E946F0D60914D
:10346000DD037091DE03072E000C880B990B41E9F8
:1034700054E00E9467096091D9037091DA0380914A
:10348000DB039091DC030E94781C20E030E048ECE4
:1034900052E40E94D01B0E94CA0946E954E00E94EF
:1034A00067098091DF03882321F08AE280939004EA
:1034B00003C08AE28093950460E974E08EE495E0AD
:1034C0000E9435048AE593E00E94C80D80E994E0EB
:1034D0000E94C80D6DEA72E085EA94E00E9435040E
:1034E0002FB7F8948091D3039091D403A091D50382
:1034F000B091D6032FBF8093E5039093E603A0938A
:10350000E703B093E80385E00E94A104892B91F4BE
:103510008091E5039091E603A091E703B091E80361
:103520008093270490932804A0932904B0932A043D
:1035300011E001C010E088E00E94A104892B89F409
:103540008091E5039091E603A091E703B091E80331
:103550008093270490932804A0932904B0932A040D
:103560002FC011112DC06CE573E085EA94E00E9434
:10357000350465E070E080E090E00E94FA04E0919C
:10358000D703F0E0EF5EFE4F8081F894A89598E1B4
:103590009093600080648093600083B7816083BFF4
:1035A0007894889583B78E7F83BF0FB6F894A895DB
:1035B00080916000886180936000109260000FBE6F
:1035C0000E94D4020C940B121092DF030C947E1113
:1035D00082E692E09093DE038093DD030C949911D0
:1035E0008DEC9BE8A1E0B0E08093D9039093DA03DF
:1035F000A093DB03B093DC030C94B71184E08093B9
:10360000D7030C94E411E5EAF4E01382128288EE09
:1036100093E0A0E0B0E084839583A683B7832DE197
:1036200031E03183208325EC30E03587248724EC9A
:1036300030E03787268720EC30E0318B208B21EC7F
:1036400030E0338B228B22EC30E0358B248B26EC60
:1036500030E0378B268B118E128E138E148EE2E49F
:10366000F5E01382128284839583A683B7838FE269
:1036700091E091838083EEE4F5E01382128281E091
:1036800081871486138681E491E091838083089575
:10369000F999FECF92BD81BDF89A992780B508951A
:1036A000262FF999FECF1FBA92BD81BD20BD0FB65E
:1036B000F894FA9AF99A0FBE019608955058BB27CC
:1036C000AA270E94761B0C94F01C0E94E21C38F082
:1036D0000E94E91C20F039F49F3F19F426F40C9461
:1036E000DF1C0EF4E095E7FB0C94D91CE92F0E9437
:1036F000011D58F3BA17620773078407950720F076
:1037000079F4A6F50C94231D0EF4E0950B2EBA2F38
:10371000A02D0B01B90190010C01CA01A0011124D7
:10372000FF27591B99F0593F50F4503E68F11A1683
:10373000F040A22F232F342F4427585FF3CF469514
:1037400037952795A795F0405395C9F77EF41F1636
:10375000BA0B620B730B840BBAF09150A1F0FF0F00
:10376000BB1F661F771F881FC2F70EC0BA0F621FEC
:10377000731F841F48F4879577956795B795F795DC
:103780009E3F08F0B0CF9395880F08F09927EE0F71
:103790009795879508950E94B51C08F481E00895D7
:1037A0000E94E41B0C94F01C0E94E91C58F00E943B
:1037B000E21C40F029F45F3F29F00C94D91C511110
:1037C0000C94241D0C94DF1C0E94011D68F39923A6
:1037D000B1F3552391F3951B550BBB27AA2762170D
:1037E0007307840738F09F5F5F4F220F331F441F1A
:1037F000AA1FA9F335D00E2E3AF0E0E832D091504E
:103800005040E695001CCAF72BD0FE2F29D0660F3A
:10381000771F881FBB1F261737074807AB07B0E87D
:1038200009F0BB0B802DBF01FF2793585F4F3AF083
:103830009E3F510578F00C94D91C0C94241D5F3FD9
:10384000E4F3983ED4F3869577956795B795F79509
:103850009F5FC9F7880F911D9695879597F90895F1
:10386000E1E0660F771F881FBB1F6217730784078D
:10387000BA0720F0621B730B840BBA0BEE1F88F79C
:10388000E09508950E94491C6894B1110C94241D80
:1038900008950E94091D88F09F5798F0B92F992725
:1038A000B751B0F0E1F0660F771F881F991F1AF02B
:1038B000BA95C9F714C0B13091F00E94231DB1E050
:1038C00008950C94231D672F782F8827B85F39F04F
:1038D000B93FCCF3869577956795B395D9F73EF4C4
:1038E00090958095709561957F4F8F4F9F4F08956C
:1038F000E89409C097FB3EF490958095709561958A
:103900007F4F8F4F9F4F9923A9F0F92F96E9BB273F
:103910009395F695879577956795B795F111F8CFBB
:10392000FAF4BB0F11F460FF1BC06F5F7F4F8F4F26
:103930009F4F16C0882311F096E911C0772321F01C
:103940009EE8872F762F05C0662371F096E8862FB4
:1039500070E060E02AF09A95660F771F881FDAF70B
:10396000880F9695879597F90895990F0008550F38
:10397000AA0BE0E8FEEF16161706E807F907C0F0F5
:1039800012161306E407F50798F0621B730B840BFD
:10399000950B39F40A2661F0232B242B252B21F4D7
:1039A00008950A2609F4A140A6958FEF811D811D77
:1039B000089597F99F6780E870E060E008959FEFB1
:1039C00080EC089500240A941616170618060906B6
:1039D000089500240A941216130614060506089585
:1039E000092E0394000C11F4882352F0BB0F40F40D
:1039F000BF2B11F460FF04C06F5F7F4F8F4F9F4F4D
:103A0000089557FD9058440F551F59F05F3F71F0CE
:103A10004795880F97FB991F61F09F3F79F0879535
:103A20000895121613061406551FF2CF4695F1DFBE
:103A300008C0161617061806991FF1CF869571054E
:103A4000610508940895E894BB2766277727CB0182
:103A500097F908950E94B51C08F48FEF08950E940D
:103A6000421D0C94F01C0E94E21C38F00E94E91CDC
:103A700020F0952311F00C94D91C0C94DF1C112418
:103A80000C94241D0E94011D70F3959FC1F3950FA6
:103A900050E0551F629FF001729FBB27F00DB11DD2
:103AA000639FAA27F00DB11DAA1F649F6627B00D62
:103AB000A11D661F829F2227B00DA11D621F739F4B
:103AC000B00DA11D621F839FA00D611D221F749F59
:103AD0003327A00D611D231F849F600D211D822FA0
:103AE000762F6A2F11249F5750409AF0F1F08823C7
:103AF0004AF0EE0FFF1FBB1F661F771F881F9150F4
:103B00005040A9F79E3F510580F00C94D91C0C94AD
:103B1000241D5F3FE4F3983ED4F38695779567952F
:103B2000B795F795E7959F5FC1F7FE2B880F911D1D
:103B30009695879597F90895FA01EE0FFF1F309635
:103B400021053105A1F16115710561F48038BFE3EC
:103B50009B0749F168949038810561F08038BFEF88
:103B60009B0741F099234AF5FF3FE1053105210507
:103B700019F1E8940894E795D901AA2329F4AB2F09
:103B8000BE2FF85FD0F310C0FF5F70F4A695E0F78A
:103B9000F73950F019F0FF3A38F49F779F930DD022
:103BA0000F9007FC9058089546F00C94DF1C60E0DD
:103BB00070E080E89FE308954FE79F775F934F930E
:103BC0003F932F930E949C1E2F913F914F915F91A5
:103BD0000E942F1D0C94F91D0E94B51C880B990B97
:103BE000089529F416F00C94D91C0C94231D0C9400
:103BF000DF1C0E94091DA8F39638A0F707F80F9262
:103C0000E8942BE33AEA48EB5FE70E94451D0F92E8
:103C10000F920F924DB75EB70F920E94E41EE8E636
:103C2000F0E00E942B1E4F915F91EF91FF91E5957F
:103C3000EE1FFF1F49F0FE57E0684427EE0F441FB8
:103C4000FA95E1F74195550B0E945E1E0F9007FE15
:103C50000C94521E0895DF93CF931F930F93FF92FE
:103C6000EF92DF927B018C01689406C0DA2EEF019F
:103C70000E94421DFE01E894A59125913591459140
:103C80005591A6F3EF010E94761BFE019701A80152
:103C9000DA9469F7DF90EF90FF900F911F91CF9129
:103CA000DF9108959B01AC0160E070E080E89FE344
:103CB0000C94D01B0C94D91C0C94181F0E94091D45
:103CC000D8F39923C9F3940F511DA3F39150504099
:103CD00094F059F0882332F0660F771F881F9150B7
:103CE0005040C1F79E3F51052CF7880F911D9695C6
:103CF000879597F908955F3FACF0983E9CF0BB27FD
:103D0000869577956795B79508F4B1609395C1F757
:103D1000BB0F58F711F460FFE8CF6F5F7F4F8F4FF5
:103D20009F4FE3CF0C94241D16F00C94181F0C9495
:103D3000DF1C68940C94D91C0E94091DA8F39923D8
:103D4000C1F3AEF3DF93CF931F930F93FF92C92F6D
:103D5000DD2788232AF02197660F771F881FDAF75F
:103D600020E030E040E85FEB9FE3883920F0803EC0
:103D700038F021968F770E945F1BE0E9F0E004C0E5
:103D80000E945F1BEDEBF0E00E942B1E8B01BE0139
:103D9000EC01FB2E6F5771097595771F880B990BF6
:103DA0000E947A1C28E132E741E35FE30E94421D52
:103DB000AF2D9801AE01FF900F911F91CF91DF9130
:103DC0000E94761B0C94F01CFA01DC01AA0FBB1FA9
:103DD0009B01AC01BF5728F4222733274427507892
:103DE00020C0B75190F4AB2F002446953795279506
:103DF000011CA395D2F3002071F0220F331F441F42
:103E0000B395DAF30ED00C945E1B61307105A0E817
:103E10008A07B94630F49B01AC01662777278827CB
:103E20009078309621F02083318342835383089524
:103E30009F3F31F0915020F4879577956795B7951E
:103E4000880F911D9695879597F90895DB018F93BB
:103E50009F930E948B1FBF91AF91A29F800D911DD8
:103E6000A39F900DB29F900D1124089597FB072EEC
:103E700016F4009407D077FD09D00E949E1F07FC1E
:103E800005D03EF4909581959F4F0895709561956A
:103E90007F4F0895A1E21A2EAA1BBB1BFD010DC086
:103EA000AA1FBB1FEE1FFF1FA217B307E407F507EA
:103EB00020F0A21BB30BE40BF50B661F771F881FC6
:103EC000991F1A9469F760957095809590959B015C
:103ED000AC01BD01CF010895052E97FB1EF400949F
:103EE0000E94831F57FD07D00E944A1F07FC03D082
:103EF0004EF40C94831F50954095309521953F4F7B
:103F00004F4F5F4F089590958095709561957F4FC5
:103F10008F4F9F4F08950E94B81FA59F900DB49F8B
:103F2000900DA49F800D911D11240895B7FF0C944E
:103F30008B1F0E948B1F821B930B0895AA1BBB1B18
:103F400051E107C0AA1FBB1FA617B70710F0A61B99
:103F5000B70B881F991F5A95A9F780959095BC01BA
:103F6000CD010895EE0FFF1F0590F491E02D099407
:103F7000A29FB001B39FC001A39F700D811D1124AA
:103F8000911DB29F700D811D1124911D089581E036
:0C3F900090E0F8940C94CC1FF894FFCF44
:103F9C000101010101FA00F401E803D007A00F4070
:103FAC001F0405060720210508000000006B02D83D
:103FBC00010302B20234021202260200000000B118
:103FCC00038103E10373037A037703740300000096
:103FDC0000FB05D801E103E003E6030D0A002031E4
:103FEC0053455420414C5420002032534554205307
:103FFC00454120002033484F4C443A414C5400205A
:10400C0033484F4C443A53454100203444454C41CD
:10401C0059204D5300203543414C205052455300FC
:10402C002020202020202020202000414C544954C6
:10403C005544453A20005345412050524553533A7C
:10404C000044454C4159204D533A200043414C20EB
:10405C0050524553533A005374617274696E672E13
:10406C002E2E0053656E736F72206E6F7420666F08
:10407C00756E64212E0053454E534F522020202044
:10408C00004E4F5420464F554E4420004849474857
:10409C00004C4F5700484F4C44414C542053415610
:1040AC00454421005345415020534156454421007D
:1040BC005043414C205341564544210057445453DE
:1040CC00454C45435420534156454421004D6561B0
:1040DC00737572696E67206661696C65642E004D3C
:1040EC004541535552494E4720004641494C4544A1
:1040FC00202020200054656D7065726174757265A6
:10410C003A2000205B435D0054656D7065726174EC
:10411C007572652053485433313A200054656D70E4
:10412C006572617475726520444946463A200048B0
:10413C00756D69646974793A2000205B255D0048CF
:10414C00756D69646974792053485433313A200091
:10415C0048756D696469747920444946463A200073
:10416C00205B6850615D005365612050726573730C
:10417C007572653A2000416C7469747564653A20F7
:10418C0000205B4D5D00566F6C746167653A2000D2
:10419C00205B6D565D0053544152543120455252B0
:1041AC00005752495445313120455252005752491B
:1041BC00544531322045525200535441525432200E
:1041CC004552520057524954453231204552520003
:1041DC005245505354415254204552520053484F6B
:1041EC0057204D454153555245005B00454E5445B3
:1041FC0052494E4720534C4545502E2E2E006E6191
:0A420C006E00696E66006F766600B2
:107800000C94343C0C94513C0C94513C0C94513CE1
:107810000C94513C0C94513C0C94513C0C94513CB4
:107820000C94513C0C94513C0C94513C0C94513CA4
:107830000C94513C0C94513C0C94513C0C94513C94
:107840000C94513C0C94513C0C94513C0C94513C84
:107850000C94513C0C94513C0C94513C0C94513C74
:107860000C94513C0C94513C11241FBECFEFD8E036
:10787000DEBFCDBF11E0A0E0B1E0EAE8FFE702C063
:1078800005900D92A230B107D9F712E0A2E0B1E065
:1078900001C01D92AD30B107E1F70E942D3D0C945F
:1078A000C33F0C94003C982F95959595959595958B
:1078B000905D8F708A307CF0282F295A8091C0000B
:1078C00085FFFCCF9093C6008091C00085FFFCCF60
:1078D0002093C6000895282F205DF0CF982F809127
:1078E000C00085FFFCCF9093C6000895EF92FF92F1
:1078F0000F931F93EE24FF2487018091C00087FD22
:1079000017C00894E11CF11C011D111D81E2E8164D
:1079100081EAF80687E0080780E0180770F3E09135
:107920000401F091050109958091C00087FFE9CF1E
:107930008091C6001F910F91FF90EF9008950E94D3
:10794000763C982F8091C00085FFFCCF9093C600B5
:1079500091362CF490330CF09053892F089597555D
:10796000892F08951F930E949F3C182F0E949F3CCF
:107970001295107F810F1F9108951F93182F882350
:1079800021F00E94763C1150E1F71F9108951F935A
:10799000182F0E94763C803249F0809103018F5F5E
:1079A000809303018530C1F01F9108958091C0003C
:1079B00085FFFCCF84E18093C6008091C00085FFE5
:1079C000FCCF1093C6008091C00085FFFCCF80E102
:1079D0008093C6001F910895E0910401F091050184
:1079E00009951F9108950E94763C803241F0809164
:1079F00003018F5F80930301853081F008958091AA
:107A0000C00085FFFCCF84E18093C6008091C00058
:107A100085FFFCCF80E18093C6000895E0910401CA
:107A2000F09105010995089548EC50E08823A1F0F4
:107A30002D9A28EE33E0FA013197F1F721503040CA
:107A4000D1F72D9828EE33E0FA013197F1F7215064
:107A50003040D1F7815061F708953F924F925F9285
:107A60006F927F928F929F92AF92BF92CF92DF924E
:107A7000EF92FF920F931F93CF93DF93000082E06A
:107A80008093C00080E18093C4001092C50088E11B
:107A90008093C10086E08093C2005098589A259A3E
:107AA00081E00E94143D24E1F22E9EE1E92E85E959
:107AB000D82E0FE0C02E10E1B12EAA24A394B1E479
:107AC0009B2EA6E58A2EF2E57F2EE0E26E2E79E46B
:107AD000572E63E5462E50E5352E0E94763C8033C6
:107AE000B1F18133B9F1803409F46FC0813409F404
:107AF00076C0823409F485C0853409F488C08035A5
:107B000031F1823521F1813511F1853509F485C0D6
:107B1000863509F48DC0843609F496C0843709F49B
:107B200003C1853709F472C1863709F466C08091B4
:107B300003018F5F80930301853079F6E0910401A2
:107B4000F091050109950E94763C803351F60E9420
:107B5000F33CC3CF0E94763C803249F78091C0004D
:107B600085FFFCCFF092C6008091C00085FFFCCF5E
:107B70009092C6008091C00085FFFCCF8092C60025
:107B80008091C00085FFFCCF7092C6008091C0003C
:107B900085FFFCCF6092C6008091C00085FFFCCFBE
:107BA0005092C6008091C00085FFFCCF4092C60075
:107BB0008091C00085FFFCCF3092C6008091C0004C
:107BC00085FFFCCFB092C60088CF0E94763C8638F5
:107BD00008F4BDCF0E94763C0E94F33C7ECF0E9409
:107BE000763C803809F49CC0813809F40BC1823896
:107BF00009F430C1883909F48FC080E00E94C73C85
:107C00006CCF84E10E94BD3C0E94F33C66CF85E0CE
:107C10000E94BD3C0E94F33C60CF0E94763C809362
:107C200006010E94763C809307010E94F33C55CFE9
:107C30000E94763C803309F411C183E00E94BD3C70
:107C400080E00E94C73C49CF0E94763C80930902A5
:107C50000E94763C8093080280910C028E7F809374
:107C60000C020E94763C853409F409C18091080217
:107C700090910902892B89F000E010E00E94763C87
:107C8000F801E85FFE4F80830F5F1F4F809108026D
:107C9000909109020817190788F30E94763C8032F8
:107CA00009F045CF80910C0280FFF5C0609106017C
:107CB00070910701660F771F7093070160930601AB
:107CC000A0910802B09109021097C9F0E8E0F1E034
:107CD0009B01AD014E0F5F1FF999FECF32BD21BD53
:107CE000819180BDFA9AF99A2F5F3F4FE417F5070B
:107CF00099F76A0F7B1F70930701609306018091CB
:107D0000C00085FFFCCFF092C6008091C00085FFC7
:107D1000FCCFB092C600E1CE83E00E94C73CDDCE2E
:107D200082E00E94C73CD9CE0E94763C8093090233
:107D30000E94763C80930802809106019091070191
:107D4000880F991F90930701809306010E94763C4B
:107D5000853409F49AC080910C028E7F80930C02C6
:107D60000E94763C803209F0B8CE8091C00085FF39
:107D7000FCCFF092C600A0910802B09109021097C2
:107D8000C1F180910C02082F0170182F1695117007
:107D9000E0910601F0910701AF014F5F5F4FBA011B
:107DA00020E030E00023B1F4112339F49491809164
:107DB000C00085FFFCCF9093C6002F5F3F4FCB01E3
:107DC0000196FA012A173B0780F4BC014F5F5F4F11
:107DD000002351F3F999FECFF2BDE1BDF89A90B5B9
:107DE0008091C00085FFFCCFE6CF709307016093C0
:107DF00006018091C00085FDE5CE8091C00085FF21
:107E0000F8CFE0CE81E00E94C73C67CE0E94763C6E
:107E1000803209F08CCE8091C00085FFFCCFF092BB
:107E2000C6008091C00085FFFCCFE092C600809123
:107E3000C00085FFFCCFD092C6008091C00085FFB6
:107E4000FCCFC092C6008091C00085FFFCCFB092ED
:107E5000C60043CE80E10E94C73C3FCE0E94763CE4
:107E60000E94763C182F0E94763C112309F483C0AF
:107E7000113009F484C08FE00E94C73C2ECE80915F
:107E80000C02816080930C02F1CE80910C02816023
:107E900080930C0265CF809107018823880F880B9F
:107EA0008A2180930B028091060190910701880F2F
:107EB000991F90930701809306018091080280FF2B
:107EC00009C08091080290910902019690930902DD
:107ED00080930802F894F999FECF1127E0910601EA
:107EE000F0910701C8E0D1E0809108029091090269
:107EF000103091F40091570001700130D9F303E084
:107F000000935700E8950091570001700130D9F3B4
:107F100001E100935700E8950990199000915700EE
:107F200001700130D9F301E000935700E8951395F3
:107F3000103498F011270091570001700130D9F3E7
:107F400005E000935700E89500915700017001305B
:107F5000D9F301E100935700E8953296029709F0B2
:107F6000C7CF103011F00296E5CF11248091C000E8
:107F700085FFC5CEC8CE8EE10E94C73CAECD85E957
:0A7F80000E94C73CAACDF894FFCF81
:027F8A00800075
:040000030000780081
:00000001FF
