:100000000C9488000C94B0000C94B0000C94B000D8
:100010000C94B0000C94B0000C94B0000C94B000A0
:100020000C94B0000C94B0000C94B0000C94B00090
:100030000C94B0000C94B0000C94B0000C94B00080
:100040000C94FC020C94B0000C94CA020C94A40210
:100050000C94B0000C94B0000C94B0000C94B00060
:100060000C94B0000C94B0000000000024002700A5
:100070002A0000000000250028002B0004040404CE
:100080000404040402020202020203030303030342
:10009000010204081020408001020408102001021F
:1000A00004081020000000080002010000030407FB
:1000B0000000000000000000496E697469616C690D
:1000C0007A6174696F6E206572726F722E2053446C
:1000D00041206F722053434C20617265206C6F7712
:1000E000002E2E2E646F6E6500496E7469616C6916
:1000F0007A696E67202E2E2E004E6F2049324320E3
:1001000064657669636520666F756E642E00FC0316
:1001100011241FBECFEFD8E0DEBFCDBF11E0A0E0BD
:10012000B1E0ECEFFBE002C005900D92AC36B107F8
:10013000D9F722E0ACE6B1E001C01D92A231B207CE
:10014000E1F710E0C8E8D0E004C02197FE010E946A
:10015000F105C738D107C9F70E9429040C94FC05A2
:100160000C940000CF92DF92EF92FF920F931F93B7
:10017000CF93DF936C017A018B01C0E0D0E0CE1504
:10018000DF0589F0D8016D918D01D601ED91FC91CB
:100190000190F081E02DC6010995892B11F47E01B3
:1001A00002C02196ECCFC701DF91CF911F910F9133
:1001B000FF90EF90DF90CF900895089580E090E059
:1001C0000895FC01538D448D252F30E0842F90E05D
:1001D000821B930B541710F0CF9608950197089542
:1001E000FC01918D828D981761F0828DDF01A80F3F
:1001F000B11D5D968C91928D9F5F9F73928F90E061
:1002000008958FEF9FEF0895FC01918D828D9817CF
:1002100031F0828DE80FF11D858D90E008958FEF0C
:100220009FEF0895FC01918D228D892F90E0805CD5
:100230009F4F821B91098F739927089585E791E05D
:100240000E94120121E0892B09F420E0822F0895F9
:10025000FC01848DDF01A80FB11DA35ABF4F2C9163
:10026000848D90E001968F739927848FA689B78932
:100270002C93A089B1898C9180648C93938D848D0B
:10028000981306C00288F389E02D80818F7D8083DA
:100290000895EF92FF920F931F93CF93DF93EC019A
:1002A00081E0888F9B8D8C8D981305C0E889F98932
:1002B000808185FD24C0F62E0B8D10E00F5F1F4F4F
:1002C0000F731127E02E8C8DE8120CC00FB607FCBF
:1002D000FACFE889F989808185FFF5CFCE010E94A8
:1002E0002801F1CF8B8DFE01E80FF11DE35AFF4F7E
:1002F000F0820B8FEA89FB898081806207C0EE89DA
:10030000FF896083E889F98980818064808381E046
:1003100090E0DF91CF911F910F91FF90EF900895A2
:10032000CF93DF93EC01888D8823C9F0EA89FB899C
:10033000808185FD05C0A889B9898C9186FD0FC093
:100340000FB607FCF5CF808185FFF2CFA889B98968
:100350008C9185FFEDCFCE010E942801E7CFDF9180
:10036000CF91089580E090E0892B29F00E941E0132
:1003700081110C94000008953FB7F89480917101A9
:1003800090917201A0917301B091740126B5A89B60
:1003900005C02F3F19F00196A11DB11D3FBFBA2F17
:1003A000A92F982F8827820F911DA11DB11DBC0177
:1003B000CD0143E0660F771F881F991F4A95D1F73B
:1003C00008958F929F92AF92BF92CF92DF92EF9259
:1003D000FF926B017C010E94BC014B015C01C114C6
:1003E000D104E104F104F1F00E94BC01DC01CB0175
:1003F00088199909AA09BB09883E9340A105B1054E
:1004000070F321E0C21AD108E108F10888EE880EE5
:1004100083E0981EA11CB11CC114D104E104F104B5
:1004200019F7DDCFFF90EF90DF90CF90BF90AF90A6
:100430009F908F900895009769F0FC010190002033
:10044000E9F73197AF01481B590BBC0185E791E0F3
:100450000C94B20080E090E008950F931F93CF9327
:10046000DF938C01C0E0D0E0F801EC0FFD1F649138
:10047000662371F0E0917501F09176010190F081B1
:10048000E02D85E791E00995892B11F02196ECCFBD
:1004900082E191E00E941B028C0F9D1FDF91CF91A2
:1004A0001F910F9108958F929F92AF92BF920F93D9
:1004B0001F93CF93DF93CDB7DEB7A1970FB6F89414
:1004C000DEBF0FBECDBF19A2423008F44AE08E0154
:1004D0000F5D1F4F842E912CA12CB12CA5019401EE
:1004E0000E94CF05E62FB901CA0101501109EA3077
:1004F00014F4E05D01C0E95CD801EC93232B242BBC
:10050000252B61F7C8010E941B02A1960FB6F89433
:10051000DEBF0FBECDBFDF91CF911F910F91BF9076
:10052000AF909F908F900895CF93DF930E941B020E
:10053000EC0182E191E00E941B028C0F9D1FDF9174
:10054000CF9108950E94F7051F920F920FB60F9258
:1005500011242F933F934F935F936F937F938F93C8
:100560009F93AF93BF93EF93FF9385E791E00E9432
:100570002801FF91EF91BF91AF919F918F917F9152
:100580006F915F914F913F912F910F900FBE0F9000
:100590001F9018951F920F920FB60F9211242F9350
:1005A0008F939F93EF93FF93E0918501F0918601E4
:1005B0008081E0918B01F0918C0182FD12C09081CD
:1005C00080918E018F5F8F7320918F01821751F080
:1005D000E0918E01F0E0EB58FE4F958F80938E01F5
:1005E00001C08081FF91EF919F918F912F910F908A
:1005F0000FBE0F901F9018951F920F920FB60F927B
:1006000011242F933F938F939F93AF93BF93809128
:100610006D0190916E01A0916F01B09170013091C8
:100620006C0126E0230F2D3720F40296A11DB11D89
:1006300005C029E8230F0396A11DB11D20936C016D
:1006400080936D0190936E01A0936F01B093700140
:100650008091710190917201A0917301B091740128
:100660000196A11DB11D8093710190937201A09319
:100670007301B0937401BF91AF919F918F913F919E
:100680002F910F900FBE0F901F90189571E0539A05
:100690005298000000000000AAD05398A8D0A89457
:1006A0000000000000004B9B8ED0B2F088944A9965
:1006B0000894771F60F7539A803011F0529801C068
:1006C000529A00000000000092D05398A8940000B5
:1006D00000004B9B78D08BD000000000539A872FEE
:1006E0009927089580E208950894881F01C0880F13
:1006F000B9F0539A00000000000018F4000052986E
:1007000002C0529A00C073D05398A8940000000011
:1007100000004B9B58D012F4882712C068D0E7CF56
:10072000539A00000000529862D099278827539866
:10073000A89400004B9B47D07AF34A9B81E057D0A6
:1007400000000000539A089581E00895539A529A48
:100750004ED053984CD04B9B36D0529848D00895E9
:100760008F938F918F934B9B2ED0529A40D0BCDFAA
:10077000882311F4EBDFF5CF0F9008950895539A75
:1007800036D0529834D0539832D04B9B1CD0529ACA
:100790002ED0AADF089581E008954B9B14D0529A81
:1007A00026D0A2DF089581E00895529853985A9870
:1007B0005B98882799274A9B08954B9B089581E071
:1007C000089581E00895B0E0A8EC002409D032F447
:1007D0000A94E1F71197C9F7289408C0A89406C0B5
:1007E000A8944B9901C0289400000895089592E3BD
:1007F0009A95F1F708950895E5E7F1E013821282E2
:1008000088EE93E0A0E0B0E084839583A683B7836D
:1008100084E091E09183808385EC90E095878487E4
:1008200084EC90E09787868780EC90E0918B808BBA
:1008300081EC90E0938B828B82EC90E0958B848BA3
:1008400086EC90E0978B868B118E128E138E148E11
:100850000895789484B5826084BD84B5816084BD38
:1008600085B5826085BD85B5816085BD80916E004E
:10087000816080936E00109281008091810082607F
:1008800080938100809181008160809381008091BC
:1008900080008160809380008091B10084608093AB
:1008A000B1008091B00081608093B00080917A00A7
:1008B000846080937A0080917A00826080937A00CD
:1008C00080917A008E7F80937A0080917A00806890
:1008D00080937A001092C10044E950E0FA016491DB
:1008E00080E890E0FC012491222399F030E0220F6F
:1008F000331FF901E859FF4FA591B4912E583F4F8E
:10090000F901C591D4912FB7F8943C91632B6C9366
:100910002FBFE8EAF0E02491FA014491FC019491A0
:100920009923B9F1222339F1233091F038F42130A1
:10093000A9F0223001F584B58F7D12C0273091F0E7
:100940002830A1F02430B9F4809180008F7D03C05D
:10095000809180008F77809380000DC084B58F7761
:1009600084BD09C08091B0008F7703C08091B00032
:100970008F7D8093B000E92FF0E0EE0FFF1FEE585F
:10098000FF4FA591B4918FB7F8949C91492B4C934C
:100990008FBF65E070E080E090E00E94E101E091AF
:1009A0008501F091860182E08083E0918101F091E0
:1009B00082011082E0918301F091840188E08083BC
:1009C00010928D01E0918901F0918A0186E0808387
:1009D000E0918701F0918801808180618083E091BE
:1009E0008701F0918801808188608083E091870190
:1009F000F0918801808180688083E0918701F09187
:100A0000880180818F7D808389EE90E00E942D0295
:100A100085E191E00E941B024AE062E370E080E021
:100A200090E00E94530282E191E00E941B020E942A
:100A3000D503811103C088EB90E002C081EE90E005
:100A40000E942D0289E291E00E94940286E391E0E7
:100A50000E94940200E8E12CF12C10E0812F8160CB
:100A60000E94CD038823D9F181E00E9446030E94B1
:100A7000A6038EE491E00E941B021F3030F440E197
:100A800060E070E0CB010E945302C12FD0E0BE01B4
:100A90006F5F7F4F072E000C880B990B40E10E947F
:100AA000530284E591E00E941B02D595C795CF3093
:100AB000D10534F440E160E070E0CB010E945302C4
:100AC000BE01DD0F880B990B40E10E94530282E1C9
:100AD00091E00E941B02EE24E394F12C02C00E94DC
:100AE000A6031E5F015009F0B9CFD0E8C0E08C2FFB
:100AF0000E94CD038823C1F10E94A60389E591E0FD
:100B00000E941B02CF3030F440E160E070E0CB0186
:100B10000E9453028C2F90E0A0E0B0E040E1BC01C5
:100B2000CD010E94530284E591E00E941B026C2FCC
:100B300070E08B01159507950F30110534F440E1F5
:100B400060E070E0CB010E945302B801110F880BE6
:100B5000990B40E10E94530282E191E00E941B0246
:100B6000EE24E394F12C02C00E94A6030E94A60387
:100B7000CE5FD15009F0BBCFEF2821F489EF90E090
:100B80000E942D0284E691E00E94940268EE73E0D8
:100B900080E090E00E94E1010E94B20153CFA1E207
:100BA0001A2EAA1BBB1BFD010DC0AA1FBB1FEE1FE7
:100BB000FF1FA217B307E407F50720F0A21BB30B32
:100BC000E40BF50B661F771F881F991F1A9469F7AE
:100BD00060957095809590959B01AC01BD01CF010A
:100BE0000895EE0FFF1F0590F491E02D099481E028
:0C0BF00090E0F8940C94FC05F894FFCF02
:100BFC00000000004901B200E10090011201F00078
:100C0C0004010D0A004932432064656C617920634C
:100C1C006F756E7465723A20005363616E6E696E07
:100C2C0067202E2E2E0020202020202020382D6200
:100C3C00697420372D626974206164647200526596
:100C4C0061643A20202030780057726974653A202C
:0C0C5C0020307800446F6E650A0A00002A
:00000001FF
